{
  "transactions": [
    {
      "hash": "0xbe052b95e4c0ef62ccff15eff6286957501cacb4636bbe1d3cf5b31e59fb8ef8",
      "transactionType": "CALL",
      "contractName": null,
      "contractAddress": "0xf7f007dc8cb507e25e8b7dbda600c07fdcf9a75b",
      "function": "approve(address,uint256)",
      "arguments": [
        "0x60A87004B1148e80ec944489AB09308a35b50889",
        "50000"
      ],
      "transaction": {
        "from": "0x2cac89abf06dbe5d3a059517053b7144074e1ce5",
        "to": "0xf7f007dc8cb507e25e8b7dbda600c07fdcf9a75b",
        "gas": "0x1247fa",
        "value": "0x0",
        "input": "0x095ea7b300000000000000000000000060a87004b1148e80ec944489ab09308a35b50889000000000000000000000000000000000000000000000000000000000000c350",
        "nonce": "0x7a",
        "chainId": "0x1f47b"
      },
      "additionalContracts": [],
      "isFixedGasLimit": false
    },
    {
      "hash": "0xb088e373ea10156d175360d658596bcbbf70064fe8416f2b064fc7ae18044702",
      "transactionType": "CALL",
      "contractName": null,
      "contractAddress": "0x60a87004b1148e80ec944489ab09308a35b50889",
      "function": "purchaseTicket(uint256)",
      "arguments": [
        "0"
      ],
      "transaction": {
        "from": "0x2cac89abf06dbe5d3a059517053b7144074e1ce5",
        "to": "0x60a87004b1148e80ec944489ab09308a35b50889",
        "gas": "0xed90c",
        "value": "0x0",
        "input": "0xb948348c0000000000000000000000000000000000000000000000000000000000000000",
        "nonce": "0x7b",
        "chainId": "0x1f47b"
      },
      "additionalContracts": [],
      "isFixedGasLimit": false
    },
    {
      "hash": "0xa76b53418419da8571647fb350a203da81e530a79ede886056918365cbcbbe4b",
      "transactionType": "CALL",
      "contractName": null,
      "contractAddress": "0x60a87004b1148e80ec944489ab09308a35b50889",
      "function": "useTicket(uint256)",
      "arguments": [
        "1"
      ],
      "transaction": {
        "from": "0x2cac89abf06dbe5d3a059517053b7144074e1ce5",
        "to": "0x60a87004b1148e80ec944489ab09308a35b50889",
        "gas": "0xd7bd4",
        "value": "0x0",
        "input": "0x266064480000000000000000000000000000000000000000000000000000000000000001",
        "nonce": "0x7c",
        "chainId": "0x1f47b"
      },
      "additionalContracts": [],
      "isFixedGasLimit": false
    }
  ],
  "receipts": [
    {
      "status": "0x1",
      "cumulativeGasUsed": "0xe0333",
      "logs": [
        {
          "address": "0xf7f007dc8cb507e25e8b7dbda600c07fdcf9a75b",
          "topics": [
            "0x8c5be1e5ebec7d5bd14f71427d1e84f3dd0314c0f7b2291e5b200ac8c7c3b925",
            "0x0000000000000000000000002cac89abf06dbe5d3a059517053b7144074e1ce5",
            "0x00000000000000000000000060a87004b1148e80ec944489ab09308a35b50889"
          ],
          "data": "0x000000000000000000000000000000000000000000000000000000000000c350",
          "blockHash": "0xd1dd16a9c66651df7573f7d90ea653c4f4937741e57711b6b5b9842335e365bf",
          "blockNumber": "0x13d6302",
          "transactionHash": "0xbe052b95e4c0ef62ccff15eff6286957501cacb4636bbe1d3cf5b31e59fb8ef8",
          "transactionIndex": "0x0",
          "logIndex": "0x0",
          "removed": false
        }
      ],
      "logsBloom": "0x00000000000000000000000000000000000000000000000000000000000000000000000000000000000000000000000000000000000000000000000000600000000000000000000000000000000000000000000002000000000000000000000000000080000000000000004000000000000000000000000000000000000000000000000000000000000000000000000000000000000000000004000000000000020800000000000000000000000000000800000000000000000000000000000000000000000000000000000000000020000000000000000000000000000000000010000000000000000000000000000000000000000000000000000080000000",
      "type": "0x2",
      "transactionHash": "0xbe052b95e4c0ef62ccff15eff6286957501cacb4636bbe1d3cf5b31e59fb8ef8",
      "transactionIndex": "0x0",
      "blockHash": "0xd1dd16a9c66651df7573f7d90ea653c4f4937741e57711b6b5b9842335e365bf",
      "blockNumber": "0x13d6302",
      "gasUsed": "0xe0333",
      "effectiveGasPrice": "0x3b9aca00",
      "from": "0x2cac89abf06dbe5d3a059517053b7144074e1ce5",
      "to": "0xf7f007dc8cb507e25e8b7dbda600c07fdcf9a75b",
      "contractAddress": null
    },
    {
      "status": "0x1",
      "cumulativeGasUsed": "0x158142",
      "logs": [
        {
          "address": "0xf7f007dc8cb507e25e8b7dbda600c07fdcf9a75b",
          "topics": [
            "0xddf252ad1be2c89b69c2b068fc378daa952ba7f163c4a11628f55a4df523b3ef",
            "0x0000000000000000000000002cac89abf06dbe5d3a059517053b7144074e1ce5",
            "0x00000000000000000000000060a87004b1148e80ec944489ab09308a35b50889"
          ],
          "data": "0x000000000000000000000000000000000000000000000000000000000000c350",
          "blockHash": "0x3a4eded3bc4d844fff140b3d9470c7b8630a470b2389091c66802612e2e3170c",
          "blockNumber": "0x13d6303",
          "transactionHash": "0xb088e373ea10156d175360d658596bcbbf70064fe8416f2b064fc7ae18044702",
          "transactionIndex": "0x0",
          "logIndex": "0x0",
          "removed": false
        },
        {
          "address": "0xee1e6b5918f02fc106d146460a32ea20b3ce0bc8",
          "topics": [
            "0xddf252ad1be2c89b69c2b068fc378daa952ba7f163c4a11628f55a4df523b3ef",
            "0x0000000000000000000000000000000000000000000000000000000000000000",
            "0x0000000000000000000000002cac89abf06dbe5d3a059517053b7144074e1ce5",
            "0x0000000000000000000000000000000000000000000000000000000000000001"
          ],
          "data": "0x",
          "blockHash": "0x3a4eded3bc4d844fff140b3d9470c7b8630a470b2389091c66802612e2e3170c",
          "blockNumber": "0x13d6303",
          "transactionHash": "0xb088e373ea10156d175360d658596bcbbf70064fe8416f2b064fc7ae18044702",
          "transactionIndex": "0x0",
          "logIndex": "0x1",
          "removed": false
        },
        {
          "address": "0xee1e6b5918f02fc106d146460a32ea20b3ce0bc8",
          "topics": [
            "0xf8e1a15aba9398e019f0b49df1a4fde98ee17ae345cb5f6b5e2c27f5033e8ce7"
          ],
          "data": "0x0000000000000000000000000000000000000000000000000000000000000001",
          "blockHash": "0x3a4eded3bc4d844fff140b3d9470c7b8630a470b2389091c66802612e2e3170c",
          "blockNumber": "0x13d6303",
          "transactionHash": "0xb088e373ea10156d175360d658596bcbbf70064fe8416f2b064fc7ae18044702",
          "transactionIndex": "0x0",
          "logIndex": "0x2",
          "removed": false
        },
        {
          "address": "0xee1e6b5918f02fc106d146460a32ea20b3ce0bc8",
          "topics": [
            "0x7bc684e6c46e8f9f9ece878eb1544e6e07b5dc4289148b08c888f525b27be3db",
            "0x0000000000000000000000000000000000000000000000000000000000000001",
            "0x0000000000000000000000000000000000000000000000000000000000000001",
            "0x0000000000000000000000002cac89abf06dbe5d3a059517053b7144074e1ce5"
          ],
          "data": "0x0000000000000000000000000000000000000000000000000000000000000000000000000000000000000000000000000000000000000000000000000000c350000000000000000000000000000000000000000000000000000000006888c005",
          "blockHash": "0x3a4eded3bc4d844fff140b3d9470c7b8630a470b2389091c66802612e2e3170c",
          "blockNumber": "0x13d6303",
          "transactionHash": "0xb088e373ea10156d175360d658596bcbbf70064fe8416f2b064fc7ae18044702",
          "transactionIndex": "0x0",
          "logIndex": "0x3",
          "removed": false
        },
        {
          "address": "0x60a87004b1148e80ec944489ab09308a35b50889",
          "topics": [
            "0xe57a70e7bd5ff15b67408de156d6b60b131f76a51ee875a24307fdd155643f24",
            "0x0000000000000000000000002cac89abf06dbe5d3a059517053b7144074e1ce5",
            "0x0000000000000000000000000000000000000000000000000000000000000001",
            "0x0000000000000000000000000000000000000000000000000000000000000000"
          ],
          "data": "0x0000000000000000000000000000000000000000000000000000000000000001000000000000000000000000000000000000000000000000000000000000c35000000000000000000000000000000000000000000000000000000000000000c0000000000000000000000000000000000000000000000000000000006888c00500000000000000000000000000000000000000000000000000000000000000000000000000000000000000000000000000000000000000000000000000000001000000000000000000000000000000000000000000000000000000000000001144656275672054657374205469636b6574000000000000000000000000000000",
          "blockHash": "0x3a4eded3bc4d844fff140b3d9470c7b8630a470b2389091c66802612e2e3170c",
          "blockNumber": "0x13d6303",
          "transactionHash": "0xb088e373ea10156d175360d658596bcbbf70064fe8416f2b064fc7ae18044702",
          "transactionIndex": "0x0",
          "logIndex": "0x4",
          "removed": false
        }
      ],
      "logsBloom": "0x00000000000000000040000020000000000000000000000000000000000000000000000000000000000000000000000000000000000000000000000000440000000000000000000000000008000000000200000002040000000000000000000000000080020000000000004000000800000000000000000000000010000000000000000000000000000000000000100000000000000000000404000000000000000808000000000000000000000000002800000000000000010000000000008000000002000000800002000000000020020000000000000000000800000060000000000000000000200000000000000000000000000000000000400080000000",
      "type": "0x2",
      "transactionHash": "0xb088e373ea10156d175360d658596bcbbf70064fe8416f2b064fc7ae18044702",
      "transactionIndex": "0x0",
      "blockHash": "0x3a4eded3bc4d844fff140b3d9470c7b8630a470b2389091c66802612e2e3170c",
      "blockNumber": "0x13d6303",
      "gasUsed": "0x158142",
      "effectiveGasPrice": "0x3b9aca00",
      "from": "0x2cac89abf06dbe5d3a059517053b7144074e1ce5",
      "to": "0x60a87004b1148e80ec944489ab09308a35b50889",
      "contractAddress": null
    },
    {
      "status": "0x1",
      "cumulativeGasUsed": "0x14927a",
      "logs": [
        {
          "address": "0xee1e6b5918f02fc106d146460a32ea20b3ce0bc8",
          "topics": [
            "0x8be613b4dc15de51545df38aaa743da56cbd4d107ee7a3c2764ddc43c2bca505",
            "0x0000000000000000000000000000000000000000000000000000000000000001",
            "0x0000000000000000000000000000000000000000000000000000000000000001",
            "0x00000000000000000000000060a87004b1148e80ec944489ab09308a35b50889"
          ],
          "data": "0x000000000000000000000000000000000000000000000000000000006888c006",
          "blockHash": "0xc3a2c851bb0ebd2ffdf458811fb41a069f495fd3f79fe6ea9fae716b9f05e27b",
          "blockNumber": "0x13d6304",
          "transactionHash": "0xa76b53418419da8571647fb350a203da81e530a79ede886056918365cbcbbe4b",
          "transactionIndex": "0x0",
          "logIndex": "0x0",
          "removed": false
        },
        {
          "address": "0x0ad7485fb4fe6bade19bb6892804cd31392a34cb",
          "topics": [
            "0xddf252ad1be2c89b69c2b068fc378daa952ba7f163c4a11628f55a4df523b3ef",
            "0x0000000000000000000000000000000000000000000000000000000000000000",
            "0x0000000000000000000000002cac89abf06dbe5d3a059517053b7144074e1ce5",
            "0x0000000000000000000000000000000000000000000000000000000000000001"
          ],
          "data": "0x",
          "blockHash": "0xc3a2c851bb0ebd2ffdf458811fb41a069f495fd3f79fe6ea9fae716b9f05e27b",
          "blockNumber": "0x13d6304",
          "transactionHash": "0xa76b53418419da8571647fb350a203da81e530a79ede886056918365cbcbbe4b",
          "transactionIndex": "0x0",
          "logIndex": "0x1",
          "removed": false
        },
        {
          "address": "0x0ad7485fb4fe6bade19bb6892804cd31392a34cb",
          "topics": [
            "0xf8e1a15aba9398e019f0b49df1a4fde98ee17ae345cb5f6b5e2c27f5033e8ce7"
          ],
          "data": "0x0000000000000000000000000000000000000000000000000000000000000001",
          "blockHash": "0xc3a2c851bb0ebd2ffdf458811fb41a069f495fd3f79fe6ea9fae716b9f05e27b",
          "blockNumber": "0x13d6304",
          "transactionHash": "0xa76b53418419da8571647fb350a203da81e530a79ede886056918365cbcbbe4b",
          "transactionIndex": "0x0",
          "logIndex": "0x2",
          "removed": false
        },
        {
          "address": "0x0ad7485fb4fe6bade19bb6892804cd31392a34cb",
          "topics": [
            "0xe08e85b6c120ed467bb3455d9ee3712720b1540306ad0664464d1f4a2731706d",
            "0x0000000000000000000000000000000000000000000000000000000000000001",
            "0x0000000000000000000000000000000000000000000000000000000000000001",
            "0x0000000000000000000000000000000000000000000000000000000000000001"
          ],
          "data": "0x0000000000000000000000002cac89abf06dbe5d3a059517053b7144074e1ce500000000000000000000000000000000000000000000000000000000000000010000000000000000000000000000000000000000000000000000000000000080000000000000000000000000000000000000000000000000000000006888c006000000000000000000000000000000000000000000000000000000000000002768747470733a2f2f65746865726c696e6b2e636f6d2f6576656e74732f64656275672d7465737400000000000000000000000000000000000000000000000000",
          "blockHash": "0xc3a2c851bb0ebd2ffdf458811fb41a069f495fd3f79fe6ea9fae716b9f05e27b",
          "blockNumber": "0x13d6304",
          "transactionHash": "0xa76b53418419da8571647fb350a203da81e530a79ede886056918365cbcbbe4b",
          "transactionIndex": "0x0",
          "logIndex": "0x3",
          "removed": false
        },
        {
          "address": "0x60a87004b1148e80ec944489ab09308a35b50889",
          "topics": [
            "0xe6c762b539c457743f94227289f320ccb6dc2241f3af7ef16d1d5e0ac6f664d6",
            "0x0000000000000000000000000000000000000000000000000000000000000001",
            "0x0000000000000000000000000000000000000000000000000000000000000001",
            "0x0000000000000000000000002cac89abf06dbe5d3a059517053b7144074e1ce5"
          ],
          "data": "0x000000000000000000000000000000000000000000000000000000006888c006000000000000000000000000000000000000000000000000000000000000006000000000000000000000000000000000000000000000000000000000000000a00000000000000000000000000000000000000000000000000000000000000015446562756720504f41502054657374204576656e740000000000000000000000000000000000000000000000000000000000000000000000000000000000001144656275672054657374205469636b6574000000000000000000000000000000",
          "blockHash": "0xc3a2c851bb0ebd2ffdf458811fb41a069f495fd3f79fe6ea9fae716b9f05e27b",
          "blockNumber": "0x13d6304",
          "transactionHash": "0xa76b53418419da8571647fb350a203da81e530a79ede886056918365cbcbbe4b",
          "transactionIndex": "0x0",
          "logIndex": "0x4",
          "removed": false
        }
      ],
      "logsBloom": "0x000000000020000000400000200000000000000000000000000000000000000010000000000000000000000000000000000000000100000000000008004400000000000000000000000000080000000000000000000400000000000000000000000020800a0000000000004000200800000000000000000000000010000000000000000000000000008000000000100000000000000000000404000000000000000008000000000000000000000000002808000000000000000000000000008000000002000000000000040000000000000010000000000000000800000060000000000000000000200000000000000000000000000000000000400080000000",
      "type": "0x2",
      "transactionHash": "0xa76b53418419da8571647fb350a203da81e530a79ede886056918365cbcbbe4b",
      "transactionIndex": "0x0",
      "blockHash": "0xc3a2c851bb0ebd2ffdf458811fb41a069f495fd3f79fe6ea9fae716b9f05e27b",
      "blockNumber": "0x13d6304",
      "gasUsed": "0x14927a",
      "effectiveGasPrice": "0x3b9aca00",
      "from": "0x2cac89abf06dbe5d3a059517053b7144074e1ce5",
      "to": "0x60a87004b1148e80ec944489ab09308a35b50889",
      "contractAddress": null
    }
  ],
  "libraries": [],
  "pending": [],
  "returns": {},
  "timestamp": 1753792519,
  "chain": 128123,
  "commit": "84283d5"
}