{
  "transactions": [
    {
      "hash": "0xb3c5a36d59d236edace5816305dd03b93f8712fa00b4beccc9553eec940e5a2e",
      "transactionType": "CALL",
      "contractName": null,
      "contractAddress": "0x4870c0a529925f1dec8eeba6b4ebe9a60355ee7b",
      "function": "useTicket(uint256)",
      "arguments": [
        "1"
      ],
      "transaction": {
        "from": "0x2cac89abf06dbe5d3a059517053b7144074e1ce5",
        "to": "0x4870c0a529925f1dec8eeba6b4ebe9a60355ee7b",
        "gas": "0x110a82",
        "value": "0x0",
        "input": "0x266064480000000000000000000000000000000000000000000000000000000000000001",
        "nonce": "0x57",
        "chainId": "0x1f47b"
      },
      "additionalContracts": [],
      "isFixedGasLimit": false
    }
  ],
  "receipts": [
    {
      "status": "0x1",
      "cumulativeGasUsed": "0xd09fa",
      "logs": [
        {
          "address": "0x701b9e0901c0c5f60296a59faa20846efbbb5ac1",
          "topics": [
            "0x8be613b4dc15de51545df38aaa743da56cbd4d107ee7a3c2764ddc43c2bca505",
            "0x0000000000000000000000000000000000000000000000000000000000000001",
            "0x0000000000000000000000000000000000000000000000000000000000000005",
            "0x0000000000000000000000004870c0a529925f1dec8eeba6b4ebe9a60355ee7b"
          ],
          "data": "0x0000000000000000000000000000000000000000000000000000000068888d5d",
          "blockHash": "0x1dcfdd60dfe5bfcab29649e00b2ef799648dbe88bb74ac0b843301b5ace4ba41",
          "blockNumber": "0x13d5852",
          "transactionHash": "0xb3c5a36d59d236edace5816305dd03b93f8712fa00b4beccc9553eec940e5a2e",
          "transactionIndex": "0x0",
          "logIndex": "0x0",
          "removed": false
        },
        {
          "address": "0x4870c0a529925f1dec8eeba6b4ebe9a60355ee7b",
          "topics": [
            "0xe6c762b539c457743f94227289f320ccb6dc2241f3af7ef16d1d5e0ac6f664d6",
            "0x0000000000000000000000000000000000000000000000000000000000000001",
            "0x0000000000000000000000000000000000000000000000000000000000000005",
            "0x0000000000000000000000002cac89abf06dbe5d3a059517053b7144074e1ce5"
          ],
          "data": "0x0000000000000000000000000000000000000000000000000000000068888d5d000000000000000000000000000000000000000000000000000000000000006000000000000000000000000000000000000000000000000000000000000000a0000000000000000000000000000000000000000000000000000000000000001933302d5365636f6e6420504f41502054657374204576656e7400000000000000000000000000000000000000000000000000000000000000000000000000000e504f415020546573742050617373000000000000000000000000000000000000",
          "blockHash": "0x1dcfdd60dfe5bfcab29649e00b2ef799648dbe88bb74ac0b843301b5ace4ba41",
          "blockNumber": "0x13d5852",
          "transactionHash": "0xb3c5a36d59d236edace5816305dd03b93f8712fa00b4beccc9553eec940e5a2e",
          "transactionIndex": "0x0",
          "logIndex": "0x1",
          "removed": false
        }
      ],
      "logsBloom": "0x00000000002000000000000100008000000000000000000000000000000001001000001000000000000000000000000000000000000000000000000000440000000010000000000000000000000000000000000000040000000000000000000000002080000000000000000000200000000000000000000000000000000000080000000000000000000000000000001000000800000000000004000000000000000000000040000000000000000000000008000000000000000000000000000000000000000000000000040000000000000000020000000000000000000040000000000000000000000000000000000000000000000000000000000040000000",
      "type": "0x2",
      "transactionHash": "0xb3c5a36d59d236edace5816305dd03b93f8712fa00b4beccc9553eec940e5a2e",
      "transactionIndex": "0x0",
      "blockHash": "0x1dcfdd60dfe5bfcab29649e00b2ef799648dbe88bb74ac0b843301b5ace4ba41",
      "blockNumber": "0x13d5852",
      "gasUsed": "0xd09fa",
      "effectiveGasPrice": "0x3b9aca00",
      "from": "0x2cac89abf06dbe5d3a059517053b7144074e1ce5",
      "to": "0x4870c0a529925f1dec8eeba6b4ebe9a60355ee7b",
      "contractAddress": null
    }
  ],
  "libraries": [],
  "pending": [],
  "returns": {},
  "timestamp": 1753779549,
  "chain": 128123,
  "commit": "84283d5"
}