{
  "transactions": [
    {
      "hash": "0x724908a607e727c2accd53092686b94b7e99ced6effcd914ce38096c43887c7d",
      "transactionType": "CALL",
      "contractName": null,
      "contractAddress": "0x4e373bb270a9c5f79e2149075d23456c013feb22",
      "function": "useTicket(uint256)",
      "arguments": [
        "1"
      ],
      "transaction": {
        "from": "0x2cac89abf06dbe5d3a059517053b7144074e1ce5",
        "to": "0x4e373bb270a9c5f79e2149075d23456c013feb22",
        "gas": "0x1b393d",
        "value": "0x0",
        "input": "0x266064480000000000000000000000000000000000000000000000000000000000000001",
        "nonce": "0x68",
        "chainId": "0x1f47b"
      },
      "additionalContracts": [],
      "isFixedGasLimit": false
    }
  ],
  "receipts": [
    {
      "status": "0x1",
      "cumulativeGasUsed": "0x14b7d6",
      "logs": [
        {
          "address": "0xdd1c19b66931b73a33f970bc30be5342c767447a",
          "topics": [
            "0x8be613b4dc15de51545df38aaa743da56cbd4d107ee7a3c2764ddc43c2bca505",
            "0x0000000000000000000000000000000000000000000000000000000000000001",
            "0x0000000000000000000000000000000000000000000000000000000000000005",
            "0x0000000000000000000000004e373bb270a9c5f79e2149075d23456c013feb22"
          ],
          "data": "0x00000000000000000000000000000000000000000000000000000000688892e3",
          "blockHash": "0x4d1c84b2f9b35ad0b8d2b8f8f161b390204242136eda73951e93f041d268f63b",
          "blockNumber": "0x13d597e",
          "transactionHash": "0x724908a607e727c2accd53092686b94b7e99ced6effcd914ce38096c43887c7d",
          "transactionIndex": "0x0",
          "logIndex": "0x0",
          "removed": false
        },
        {
          "address": "0x54aac9de386c8185fe8842456e55d7bf17b1f8ab",
          "topics": [
            "0xddf252ad1be2c89b69c2b068fc378daa952ba7f163c4a11628f55a4df523b3ef",
            "0x0000000000000000000000000000000000000000000000000000000000000000",
            "0x0000000000000000000000002cac89abf06dbe5d3a059517053b7144074e1ce5",
            "0x0000000000000000000000000000000000000000000000000000000000000001"
          ],
          "data": "0x",
          "blockHash": "0x4d1c84b2f9b35ad0b8d2b8f8f161b390204242136eda73951e93f041d268f63b",
          "blockNumber": "0x13d597e",
          "transactionHash": "0x724908a607e727c2accd53092686b94b7e99ced6effcd914ce38096c43887c7d",
          "transactionIndex": "0x0",
          "logIndex": "0x1",
          "removed": false
        },
        {
          "address": "0x54aac9de386c8185fe8842456e55d7bf17b1f8ab",
          "topics": [
            "0xf8e1a15aba9398e019f0b49df1a4fde98ee17ae345cb5f6b5e2c27f5033e8ce7"
          ],
          "data": "0x0000000000000000000000000000000000000000000000000000000000000001",
          "blockHash": "0x4d1c84b2f9b35ad0b8d2b8f8f161b390204242136eda73951e93f041d268f63b",
          "blockNumber": "0x13d597e",
          "transactionHash": "0x724908a607e727c2accd53092686b94b7e99ced6effcd914ce38096c43887c7d",
          "transactionIndex": "0x0",
          "logIndex": "0x2",
          "removed": false
        },
        {
          "address": "0x54aac9de386c8185fe8842456e55d7bf17b1f8ab",
          "topics": [
            "0xe08e85b6c120ed467bb3455d9ee3712720b1540306ad0664464d1f4a2731706d",
            "0x0000000000000000000000000000000000000000000000000000000000000001",
            "0x0000000000000000000000000000000000000000000000000000000000000002",
            "0x0000000000000000000000000000000000000000000000000000000000000005"
          ],
          "data": "0x0000000000000000000000002cac89abf06dbe5d3a059517053b7144074e1ce50000000000000000000000000000000000000000000000000000000000000001000000000000000000000000000000000000000000000000000000000000008000000000000000000000000000000000000000000000000000000000688892e3000000000000000000000000000000000000000000000000000000000000003068747470733a2f2f65746865726c696e6b2e636f6d2f6576656e74732f6e65772d33307365632d706f61702d7465737400000000000000000000000000000000",
          "blockHash": "0x4d1c84b2f9b35ad0b8d2b8f8f161b390204242136eda73951e93f041d268f63b",
          "blockNumber": "0x13d597e",
          "transactionHash": "0x724908a607e727c2accd53092686b94b7e99ced6effcd914ce38096c43887c7d",
          "transactionIndex": "0x0",
          "logIndex": "0x3",
          "removed": false
        },
        {
          "address": "0x4e373bb270a9c5f79e2149075d23456c013feb22",
          "topics": [
            "0xe6c762b539c457743f94227289f320ccb6dc2241f3af7ef16d1d5e0ac6f664d6",
            "0x0000000000000000000000000000000000000000000000000000000000000001",
            "0x0000000000000000000000000000000000000000000000000000000000000005",
            "0x0000000000000000000000002cac89abf06dbe5d3a059517053b7144074e1ce5"
          ],
          "data": "0x00000000000000000000000000000000000000000000000000000000688892e3000000000000000000000000000000000000000000000000000000000000006000000000000000000000000000000000000000000000000000000000000000c000000000000000000000000000000000000000000000000000000000000000234e65772033302d5365636f6e6420504f415020496e746567726174696f6e20546573740000000000000000000000000000000000000000000000000000000000000000000000000000000000000000000000000000000000000000000000000e504f415020546573742050617373000000000000000000000000000000000000",
          "blockHash": "0x4d1c84b2f9b35ad0b8d2b8f8f161b390204242136eda73951e93f041d268f63b",
          "blockNumber": "0x13d597e",
          "transactionHash": "0x724908a607e727c2accd53092686b94b7e99ced6effcd914ce38096c43887c7d",
          "transactionIndex": "0x0",
          "logIndex": "0x4",
          "removed": false
        }
      ],
      "logsBloom": "0x04000000002000000000000000000000000000000001000000000000000000001000000000000000000000000000000000000000000000000000000800440000000010000000000000000008000000000000000100040000000000000000000000002080020000000000000000200800000000000000000000000810000000000000008000000000008000001000001000000800000000000004000000000000000000000000040000000100000080002008000000000000800000000000008000000002000000000000040000000000000010000000000000000000000060000000000000000000200000000004000000000000008000000400000000002000",
      "type": "0x2",
      "transactionHash": "0x724908a607e727c2accd53092686b94b7e99ced6effcd914ce38096c43887c7d",
      "transactionIndex": "0x0",
      "blockHash": "0x4d1c84b2f9b35ad0b8d2b8f8f161b390204242136eda73951e93f041d268f63b",
      "blockNumber": "0x13d597e",
      "gasUsed": "0x14b7d6",
      "effectiveGasPrice": "0x3b9aca00",
      "from": "0x2cac89abf06dbe5d3a059517053b7144074e1ce5",
      "to": "0x4e373bb270a9c5f79e2149075d23456c013feb22",
      "contractAddress": null
    }
  ],
  "libraries": [],
  "pending": [],
  "returns": {},
  "timestamp": 1753780964,
  "chain": 128123,
  "commit": "84283d5"
}