{
  "transactions": [
    {
      "hash": "0xb114dcc47d911395c062bf384d6cb6128ec984b66704346c61236e7915437190",
      "transactionType": "CALL",
      "contractName": null,
      "contractAddress": "0xf7f007dc8cb507e25e8b7dbda600c07fdcf9a75b",
      "function": "approve(address,uint256)",
      "arguments": [
        "0x17d9207E742E6e806123CB5cb8DF04e0513D55c4",
        "3000000"
      ],
      "transaction": {
        "from": "0x2cac89abf06dbe5d3a059517053b7144074e1ce5",
        "to": "0xf7f007dc8cb507e25e8b7dbda600c07fdcf9a75b",
        "gas": "0x12480a",
        "value": "0x0",
        "input": "0x095ea7b300000000000000000000000017d9207e742e6e806123cb5cb8df04e0513d55c400000000000000000000000000000000000000000000000000000000002dc6c0",
        "nonce": "0x31",
        "chainId": "0x1f47b"
      },
      "additionalContracts": [],
      "isFixedGasLimit": false
    },
    {
      "hash": "0xf0053f2438951a22107f874c91bdf9fabd103db8b2a22d30ee4fc783ca0233b7",
      "transactionType": "CALL",
      "contractName": null,
      "contractAddress": "0x17d9207e742e6e806123cb5cb8df04e0513d55c4",
      "function": "purchaseTicket(uint256)",
      "arguments": [
        "0"
      ],
      "transaction": {
        "from": "0x2cac89abf06dbe5d3a059517053b7144074e1ce5",
        "to": "0x17d9207e742e6e806123cb5cb8df04e0513d55c4",
        "gas": "0xe8f15",
        "value": "0x0",
        "input": "0xb948348c0000000000000000000000000000000000000000000000000000000000000000",
        "nonce": "0x32",
        "chainId": "0x1f47b"
      },
      "additionalContracts": [],
      "isFixedGasLimit": false
    },
    {
      "hash": "0x8e67cdcc4de054dab2590fdcb2398e8fefa12f1cd82508bc11bd1dc9c4b0c21d",
      "transactionType": "CALL",
      "contractName": null,
      "contractAddress": "0xf7f007dc8cb507e25e8b7dbda600c07fdcf9a75b",
      "function": "approve(address,uint256)",
      "arguments": [
        "0x17d9207E742E6e806123CB5cb8DF04e0513D55c4",
        "1500000"
      ],
      "transaction": {
        "from": "0x2cac89abf06dbe5d3a059517053b7144074e1ce5",
        "to": "0xf7f007dc8cb507e25e8b7dbda600c07fdcf9a75b",
        "gas": "0x12480a",
        "value": "0x0",
        "input": "0x095ea7b300000000000000000000000017d9207e742e6e806123cb5cb8df04e0513d55c4000000000000000000000000000000000000000000000000000000000016e360",
        "nonce": "0x33",
        "chainId": "0x1f47b"
      },
      "additionalContracts": [],
      "isFixedGasLimit": false
    },
    {
      "hash": "0xf600ec1fb58dd43467e76c9d2f89b34545e3ecb2663b456f2922817cfc181a4e",
      "transactionType": "CALL",
      "contractName": null,
      "contractAddress": "0x17d9207e742e6e806123cb5cb8df04e0513d55c4",
      "function": "purchaseTicket(uint256)",
      "arguments": [
        "1"
      ],
      "transaction": {
        "from": "0x2cac89abf06dbe5d3a059517053b7144074e1ce5",
        "to": "0x17d9207e742e6e806123cb5cb8df04e0513d55c4",
        "gas": "0xd465e",
        "value": "0x0",
        "input": "0xb948348c0000000000000000000000000000000000000000000000000000000000000001",
        "nonce": "0x34",
        "chainId": "0x1f47b"
      },
      "additionalContracts": [],
      "isFixedGasLimit": false
    },
    {
      "hash": "0x32e3922cc99f68997bbe042e1c77c5dc7ddd462d445ae5db5ac66b12981b5ede",
      "transactionType": "CALL",
      "contractName": null,
      "contractAddress": "0xf7f007dc8cb507e25e8b7dbda600c07fdcf9a75b",
      "function": "approve(address,uint256)",
      "arguments": [
        "0x6Eca0faba1916fb1B164176F7b71DE088DAadF5e",
        "2000000"
      ],
      "transaction": {
        "from": "0x2cac89abf06dbe5d3a059517053b7144074e1ce5",
        "to": "0xf7f007dc8cb507e25e8b7dbda600c07fdcf9a75b",
        "gas": "0x12480a",
        "value": "0x0",
        "input": "0x095ea7b30000000000000000000000006eca0faba1916fb1b164176f7b71de088daadf5e00000000000000000000000000000000000000000000000000000000001e8480",
        "nonce": "0x35",
        "chainId": "0x1f47b"
      },
      "additionalContracts": [],
      "isFixedGasLimit": false
    },
    {
      "hash": "0x3e7e4f1b2936f0c9aa9487c1337ed7052e79390a7e9b3fc14f9ad1ecd3fe6d91",
      "transactionType": "CALL",
      "contractName": null,
      "contractAddress": "0x6eca0faba1916fb1b164176f7b71de088daadf5e",
      "function": "purchaseTicket(uint256)",
      "arguments": [
        "0"
      ],
      "transaction": {
        "from": "0x2cac89abf06dbe5d3a059517053b7144074e1ce5",
        "to": "0x6eca0faba1916fb1b164176f7b71de088daadf5e",
        "gas": "0xe9a87",
        "value": "0x0",
        "input": "0xb948348c0000000000000000000000000000000000000000000000000000000000000000",
        "nonce": "0x36",
        "chainId": "0x1f47b"
      },
      "additionalContracts": [],
      "isFixedGasLimit": false
    },
    {
      "hash": "0x8b98b4606bd88f2359805f2912efbf2fa438c7a5cbff5b7a783754774f2f7ac1",
      "transactionType": "CALL",
      "contractName": null,
      "contractAddress": "0xf7f007dc8cb507e25e8b7dbda600c07fdcf9a75b",
      "function": "approve(address,uint256)",
      "arguments": [
        "0xaa51ae81b06b939C0AA2f4651A3cB1180975DBf9",
        "4000000"
      ],
      "transaction": {
        "from": "0x2cac89abf06dbe5d3a059517053b7144074e1ce5",
        "to": "0xf7f007dc8cb507e25e8b7dbda600c07fdcf9a75b",
        "gas": "0x1247fa",
        "value": "0x0",
        "input": "0x095ea7b3000000000000000000000000aa51ae81b06b939c0aa2f4651a3cb1180975dbf900000000000000000000000000000000000000000000000000000000003d0900",
        "nonce": "0x37",
        "chainId": "0x1f47b"
      },
      "additionalContracts": [],
      "isFixedGasLimit": false
    },
    {
      "hash": "0x0ad7b87aeb2ff48d307a54bc19cdb496ecef4201ff73135f71e5ae50c79bbc76",
      "transactionType": "CALL",
      "contractName": null,
      "contractAddress": "0xaa51ae81b06b939c0aa2f4651a3cb1180975dbf9",
      "function": "purchaseTicket(uint256)",
      "arguments": [
        "0"
      ],
      "transaction": {
        "from": "0x2cac89abf06dbe5d3a059517053b7144074e1ce5",
        "to": "0xaa51ae81b06b939c0aa2f4651a3cb1180975dbf9",
        "gas": "0xe4bfc",
        "value": "0x0",
        "input": "0xb948348c0000000000000000000000000000000000000000000000000000000000000000",
        "nonce": "0x38",
        "chainId": "0x1f47b"
      },
      "additionalContracts": [],
      "isFixedGasLimit": false
    }
  ],
  "receipts": [
    {
      "status": "0x1",
      "cumulativeGasUsed": "0xe033f",
      "logs": [
        {
          "address": "0xf7f007dc8cb507e25e8b7dbda600c07fdcf9a75b",
          "topics": [
            "0x8c5be1e5ebec7d5bd14f71427d1e84f3dd0314c0f7b2291e5b200ac8c7c3b925",
            "0x0000000000000000000000002cac89abf06dbe5d3a059517053b7144074e1ce5",
            "0x00000000000000000000000017d9207e742e6e806123cb5cb8df04e0513d55c4"
          ],
          "data": "0x00000000000000000000000000000000000000000000000000000000002dc6c0",
          "blockHash": "0x53e2a748e55e8dc0bb5452cf16106a6478506f3c9cf275c2b2879810e3aadf9a",
          "blockNumber": "0x13ce9f1",
          "transactionHash": "0xb114dcc47d911395c062bf384d6cb6128ec984b66704346c61236e7915437190",
          "transactionIndex": "0x0",
          "logIndex": "0x0",
          "removed": false
        }
      ],
      "logsBloom": "0x00000000000000000000000000000000000000000000000000000000000000000000000000000000000000000000000000100000000000000000000000600000000000000000000000000000000000000000000002000000000000000000000000000080000000000000000000000000000000000000000000000000000000000000000000000000000000000000000000000000000000000004000000000000020800200000000000000000000000000000000000000000000000800000000000000000000000000000000000000020000000000000000000000000000000000010000000000000000000000000000000000000000000000000000000000000",
      "type": "0x2",
      "transactionHash": "0xb114dcc47d911395c062bf384d6cb6128ec984b66704346c61236e7915437190",
      "transactionIndex": "0x0",
      "blockHash": "0x53e2a748e55e8dc0bb5452cf16106a6478506f3c9cf275c2b2879810e3aadf9a",
      "blockNumber": "0x13ce9f1",
      "gasUsed": "0xe033f",
      "effectiveGasPrice": "0x3b9aca00",
      "from": "0x2cac89abf06dbe5d3a059517053b7144074e1ce5",
      "to": "0xf7f007dc8cb507e25e8b7dbda600c07fdcf9a75b",
      "contractAddress": null
    },
    {
      "status": "0x1",
      "cumulativeGasUsed": "0x15e498",
      "logs": [
        {
          "address": "0xf7f007dc8cb507e25e8b7dbda600c07fdcf9a75b",
          "topics": [
            "0xddf252ad1be2c89b69c2b068fc378daa952ba7f163c4a11628f55a4df523b3ef",
            "0x0000000000000000000000002cac89abf06dbe5d3a059517053b7144074e1ce5",
            "0x00000000000000000000000017d9207e742e6e806123cb5cb8df04e0513d55c4"
          ],
          "data": "0x00000000000000000000000000000000000000000000000000000000002dc6c0",
          "blockHash": "0xeff0a7c57034e9a457b231d5027c48228d459a38604baa39e3b86cc05e602fe5",
          "blockNumber": "0x13ce9f2",
          "transactionHash": "0xf0053f2438951a22107f874c91bdf9fabd103db8b2a22d30ee4fc783ca0233b7",
          "transactionIndex": "0x0",
          "logIndex": "0x0",
          "removed": false
        },
        {
          "address": "0x632654be7ea0625dea3d12857887acb76dc3ae1b",
          "topics": [
            "0xddf252ad1be2c89b69c2b068fc378daa952ba7f163c4a11628f55a4df523b3ef",
            "0x0000000000000000000000000000000000000000000000000000000000000000",
            "0x0000000000000000000000002cac89abf06dbe5d3a059517053b7144074e1ce5",
            "0x0000000000000000000000000000000000000000000000000000000000000001"
          ],
          "data": "0x",
          "blockHash": "0xeff0a7c57034e9a457b231d5027c48228d459a38604baa39e3b86cc05e602fe5",
          "blockNumber": "0x13ce9f2",
          "transactionHash": "0xf0053f2438951a22107f874c91bdf9fabd103db8b2a22d30ee4fc783ca0233b7",
          "transactionIndex": "0x0",
          "logIndex": "0x1",
          "removed": false
        },
        {
          "address": "0x632654be7ea0625dea3d12857887acb76dc3ae1b",
          "topics": [
            "0xf8e1a15aba9398e019f0b49df1a4fde98ee17ae345cb5f6b5e2c27f5033e8ce7"
          ],
          "data": "0x0000000000000000000000000000000000000000000000000000000000000001",
          "blockHash": "0xeff0a7c57034e9a457b231d5027c48228d459a38604baa39e3b86cc05e602fe5",
          "blockNumber": "0x13ce9f2",
          "transactionHash": "0xf0053f2438951a22107f874c91bdf9fabd103db8b2a22d30ee4fc783ca0233b7",
          "transactionIndex": "0x0",
          "logIndex": "0x2",
          "removed": false
        },
        {
          "address": "0x632654be7ea0625dea3d12857887acb76dc3ae1b",
          "topics": [
            "0x7bc684e6c46e8f9f9ece878eb1544e6e07b5dc4289148b08c888f525b27be3db",
            "0x0000000000000000000000000000000000000000000000000000000000000001",
            "0x0000000000000000000000000000000000000000000000000000000000000001",
            "0x0000000000000000000000002cac89abf06dbe5d3a059517053b7144074e1ce5"
          ],
          "data": "0x000000000000000000000000000000000000000000000000000000000000000000000000000000000000000000000000000000000000000000000000002dc6c00000000000000000000000000000000000000000000000000000000068867138",
          "blockHash": "0xeff0a7c57034e9a457b231d5027c48228d459a38604baa39e3b86cc05e602fe5",
          "blockNumber": "0x13ce9f2",
          "transactionHash": "0xf0053f2438951a22107f874c91bdf9fabd103db8b2a22d30ee4fc783ca0233b7",
          "transactionIndex": "0x0",
          "logIndex": "0x3",
          "removed": false
        },
        {
          "address": "0x17d9207e742e6e806123cb5cb8df04e0513d55c4",
          "topics": [
            "0xe57a70e7bd5ff15b67408de156d6b60b131f76a51ee875a24307fdd155643f24",
            "0x0000000000000000000000002cac89abf06dbe5d3a059517053b7144074e1ce5",
            "0x0000000000000000000000000000000000000000000000000000000000000001",
            "0x0000000000000000000000000000000000000000000000000000000000000000"
          ],
          "data": "0x000000000000000000000000000000000000000000000000000000000000000100000000000000000000000000000000000000000000000000000000002dc6c000000000000000000000000000000000000000000000000000000000000000c000000000000000000000000000000000000000000000000000000000688671380000000000000000000000000000000000000000000000000000000000000000000000000000000000000000000000000000000000000000000000000000000100000000000000000000000000000000000000000000000000000000000000085649502050617373000000000000000000000000000000000000000000000000",
          "blockHash": "0xeff0a7c57034e9a457b231d5027c48228d459a38604baa39e3b86cc05e602fe5",
          "blockNumber": "0x13ce9f2",
          "transactionHash": "0xf0053f2438951a22107f874c91bdf9fabd103db8b2a22d30ee4fc783ca0233b7",
          "transactionIndex": "0x0",
          "logIndex": "0x4",
          "removed": false
        }
      ],
      "logsBloom": "0x00000000000000000000000000004000000000000000000000001000000000000000000000000000000000000000000000100000000000000000000000440000000000000000000000000008000000000200000002040000000000000000000000000080020000000000000000000800000000000000000000000010000000000000000000000000000000000000000000000000000000000404000000000000000800200000000000000000000000002000000000000000010000800000088000000002000000800002000000000020020000000000000000000000100060200000000000000000200000000000000000000000000000000000000000000000",
      "type": "0x2",
      "transactionHash": "0xf0053f2438951a22107f874c91bdf9fabd103db8b2a22d30ee4fc783ca0233b7",
      "transactionIndex": "0x0",
      "blockHash": "0xeff0a7c57034e9a457b231d5027c48228d459a38604baa39e3b86cc05e602fe5",
      "blockNumber": "0x13ce9f2",
      "gasUsed": "0x15e498",
      "effectiveGasPrice": "0x3b9aca00",
      "from": "0x2cac89abf06dbe5d3a059517053b7144074e1ce5",
      "to": "0x17d9207e742e6e806123cb5cb8df04e0513d55c4",
      "contractAddress": null
    },
    {
      "status": "0x1",
      "cumulativeGasUsed": "0xe033f",
      "logs": [
        {
          "address": "0xf7f007dc8cb507e25e8b7dbda600c07fdcf9a75b",
          "topics": [
            "0x8c5be1e5ebec7d5bd14f71427d1e84f3dd0314c0f7b2291e5b200ac8c7c3b925",
            "0x0000000000000000000000002cac89abf06dbe5d3a059517053b7144074e1ce5",
            "0x00000000000000000000000017d9207e742e6e806123cb5cb8df04e0513d55c4"
          ],
          "data": "0x000000000000000000000000000000000000000000000000000000000016e360",
          "blockHash": "0xfd397bdab340076c58ad7d4f64755e1759495d69279512e26c006e08e9eab421",
          "blockNumber": "0x13ce9f3",
          "transactionHash": "0x8e67cdcc4de054dab2590fdcb2398e8fefa12f1cd82508bc11bd1dc9c4b0c21d",
          "transactionIndex": "0x0",
          "logIndex": "0x0",
          "removed": false
        }
      ],
      "logsBloom": "0x00000000000000000000000000000000000000000000000000000000000000000000000000000000000000000000000000100000000000000000000000600000000000000000000000000000000000000000000002000000000000000000000000000080000000000000000000000000000000000000000000000000000000000000000000000000000000000000000000000000000000000004000000000000020800200000000000000000000000000000000000000000000000800000000000000000000000000000000000000020000000000000000000000000000000000010000000000000000000000000000000000000000000000000000000000000",
      "type": "0x2",
      "transactionHash": "0x8e67cdcc4de054dab2590fdcb2398e8fefa12f1cd82508bc11bd1dc9c4b0c21d",
      "transactionIndex": "0x0",
      "blockHash": "0xfd397bdab340076c58ad7d4f64755e1759495d69279512e26c006e08e9eab421",
      "blockNumber": "0x13ce9f3",
      "gasUsed": "0xe033f",
      "effectiveGasPrice": "0x3b9aca00",
      "from": "0x2cac89abf06dbe5d3a059517053b7144074e1ce5",
      "to": "0xf7f007dc8cb507e25e8b7dbda600c07fdcf9a75b",
      "contractAddress": null
    },
    {
      "status": "0x1",
      "cumulativeGasUsed": "0x14f69c",
      "logs": [
        {
          "address": "0xf7f007dc8cb507e25e8b7dbda600c07fdcf9a75b",
          "topics": [
            "0xddf252ad1be2c89b69c2b068fc378daa952ba7f163c4a11628f55a4df523b3ef",
            "0x0000000000000000000000002cac89abf06dbe5d3a059517053b7144074e1ce5",
            "0x00000000000000000000000017d9207e742e6e806123cb5cb8df04e0513d55c4"
          ],
          "data": "0x000000000000000000000000000000000000000000000000000000000016e360",
          "blockHash": "0x1dbe23c8dde5ef189746c086ba5c05f86a2ffa4b9e94cdbc7a455be59caa8179",
          "blockNumber": "0x13ce9f4",
          "transactionHash": "0xf600ec1fb58dd43467e76c9d2f89b34545e3ecb2663b456f2922817cfc181a4e",
          "transactionIndex": "0x0",
          "logIndex": "0x0",
          "removed": false
        },
        {
          "address": "0x632654be7ea0625dea3d12857887acb76dc3ae1b",
          "topics": [
            "0xddf252ad1be2c89b69c2b068fc378daa952ba7f163c4a11628f55a4df523b3ef",
            "0x0000000000000000000000000000000000000000000000000000000000000000",
            "0x0000000000000000000000002cac89abf06dbe5d3a059517053b7144074e1ce5",
            "0x0000000000000000000000000000000000000000000000000000000000000002"
          ],
          "data": "0x",
          "blockHash": "0x1dbe23c8dde5ef189746c086ba5c05f86a2ffa4b9e94cdbc7a455be59caa8179",
          "blockNumber": "0x13ce9f4",
          "transactionHash": "0xf600ec1fb58dd43467e76c9d2f89b34545e3ecb2663b456f2922817cfc181a4e",
          "transactionIndex": "0x0",
          "logIndex": "0x1",
          "removed": false
        },
        {
          "address": "0x632654be7ea0625dea3d12857887acb76dc3ae1b",
          "topics": [
            "0xf8e1a15aba9398e019f0b49df1a4fde98ee17ae345cb5f6b5e2c27f5033e8ce7"
          ],
          "data": "0x0000000000000000000000000000000000000000000000000000000000000002",
          "blockHash": "0x1dbe23c8dde5ef189746c086ba5c05f86a2ffa4b9e94cdbc7a455be59caa8179",
          "blockNumber": "0x13ce9f4",
          "transactionHash": "0xf600ec1fb58dd43467e76c9d2f89b34545e3ecb2663b456f2922817cfc181a4e",
          "transactionIndex": "0x0",
          "logIndex": "0x2",
          "removed": false
        },
        {
          "address": "0x632654be7ea0625dea3d12857887acb76dc3ae1b",
          "topics": [
            "0x7bc684e6c46e8f9f9ece878eb1544e6e07b5dc4289148b08c888f525b27be3db",
            "0x0000000000000000000000000000000000000000000000000000000000000002",
            "0x0000000000000000000000000000000000000000000000000000000000000001",
            "0x0000000000000000000000002cac89abf06dbe5d3a059517053b7144074e1ce5"
          ],
          "data": "0x0000000000000000000000000000000000000000000000000000000000000001000000000000000000000000000000000000000000000000000000000016e360000000000000000000000000000000000000000000000000000000006886713f",
          "blockHash": "0x1dbe23c8dde5ef189746c086ba5c05f86a2ffa4b9e94cdbc7a455be59caa8179",
          "blockNumber": "0x13ce9f4",
          "transactionHash": "0xf600ec1fb58dd43467e76c9d2f89b34545e3ecb2663b456f2922817cfc181a4e",
          "transactionIndex": "0x0",
          "logIndex": "0x3",
          "removed": false
        },
        {
          "address": "0x17d9207e742e6e806123cb5cb8df04e0513d55c4",
          "topics": [
            "0xe57a70e7bd5ff15b67408de156d6b60b131f76a51ee875a24307fdd155643f24",
            "0x0000000000000000000000002cac89abf06dbe5d3a059517053b7144074e1ce5",
            "0x0000000000000000000000000000000000000000000000000000000000000001",
            "0x0000000000000000000000000000000000000000000000000000000000000001"
          ],
          "data": "0x0000000000000000000000000000000000000000000000000000000000000002000000000000000000000000000000000000000000000000000000000016e36000000000000000000000000000000000000000000000000000000000000000c0000000000000000000000000000000000000000000000000000000006886713f00000000000000000000000000000000000000000000000000000000000000000000000000000000000000000000000000000000000000000000000000000001000000000000000000000000000000000000000000000000000000000000001147656e6572616c2041646d697373696f6e000000000000000000000000000000",
          "blockHash": "0x1dbe23c8dde5ef189746c086ba5c05f86a2ffa4b9e94cdbc7a455be59caa8179",
          "blockNumber": "0x13ce9f4",
          "transactionHash": "0xf600ec1fb58dd43467e76c9d2f89b34545e3ecb2663b456f2922817cfc181a4e",
          "transactionIndex": "0x0",
          "logIndex": "0x4",
          "removed": false
        }
      ],
      "logsBloom": "0x04000000000000000000000000004000000000000000000000001000000000000000000000000000000000000000000000100000000000000000000000440000000000000000000000000008000000000200000002040000000000000000000000000080020000000000000000000800000000000000000000000010000000000000000000000000000000000000000000000000000000000404000000000000000800200000000000000100000000002000000000000000010000800000088000000002000000800002000000000020020000000000000000000000100060200000000000000000200000000000000000000000008000000000000000000000",
      "type": "0x2",
      "transactionHash": "0xf600ec1fb58dd43467e76c9d2f89b34545e3ecb2663b456f2922817cfc181a4e",
      "transactionIndex": "0x0",
      "blockHash": "0x1dbe23c8dde5ef189746c086ba5c05f86a2ffa4b9e94cdbc7a455be59caa8179",
      "blockNumber": "0x13ce9f4",
      "gasUsed": "0x14f69c",
      "effectiveGasPrice": "0x3b9aca00",
      "from": "0x2cac89abf06dbe5d3a059517053b7144074e1ce5",
      "to": "0x17d9207e742e6e806123cb5cb8df04e0513d55c4",
      "contractAddress": null
    },
    {
      "status": "0x1",
      "cumulativeGasUsed": "0xe033f",
      "logs": [
        {
          "address": "0xf7f007dc8cb507e25e8b7dbda600c07fdcf9a75b",
          "topics": [
            "0x8c5be1e5ebec7d5bd14f71427d1e84f3dd0314c0f7b2291e5b200ac8c7c3b925",
            "0x0000000000000000000000002cac89abf06dbe5d3a059517053b7144074e1ce5",
            "0x0000000000000000000000006eca0faba1916fb1b164176f7b71de088daadf5e"
          ],
          "data": "0x00000000000000000000000000000000000000000000000000000000001e8480",
          "blockHash": "0x49222aed5802162d1c35000985da6f1f32e6d8c8b6f1b471f97b3f1e14753bc8",
          "blockNumber": "0x13ce9f6",
          "transactionHash": "0x32e3922cc99f68997bbe042e1c77c5dc7ddd462d445ae5db5ac66b12981b5ede",
          "transactionIndex": "0x0",
          "logIndex": "0x0",
          "removed": false
        }
      ],
      "logsBloom": "0x00000000000000000000000000000000000000000000000000000001000000000000000000000000000000000000000000000000000000000000000000600000000000000000000000000000000000000000000002000000000000000000000000000080000000000000000000000000000000000000000000000000000000000000000000000000000000000000000000000000000000000004000000000000020800000000000000000000000000000000000000000000002000000000000000010000000000000000000000000020000000000000000000000000000000000010000000000000000000000000000000000000000000000000000000000000",
      "type": "0x2",
      "transactionHash": "0x32e3922cc99f68997bbe042e1c77c5dc7ddd462d445ae5db5ac66b12981b5ede",
      "transactionIndex": "0x0",
      "blockHash": "0x49222aed5802162d1c35000985da6f1f32e6d8c8b6f1b471f97b3f1e14753bc8",
      "blockNumber": "0x13ce9f6",
      "gasUsed": "0xe033f",
      "effectiveGasPrice": "0x3b9aca00",
      "from": "0x2cac89abf06dbe5d3a059517053b7144074e1ce5",
      "to": "0xf7f007dc8cb507e25e8b7dbda600c07fdcf9a75b",
      "contractAddress": null
    },
    {
      "status": "0x1",
      "cumulativeGasUsed": "0x155683",
      "logs": [
        {
          "address": "0xf7f007dc8cb507e25e8b7dbda600c07fdcf9a75b",
          "topics": [
            "0xddf252ad1be2c89b69c2b068fc378daa952ba7f163c4a11628f55a4df523b3ef",
            "0x0000000000000000000000002cac89abf06dbe5d3a059517053b7144074e1ce5",
            "0x0000000000000000000000006eca0faba1916fb1b164176f7b71de088daadf5e"
          ],
          "data": "0x00000000000000000000000000000000000000000000000000000000001e8480",
          "blockHash": "0x7004f6a91429f476f5d049dcb018eae2f01efd6b11592d010b896fd6a23af322",
          "blockNumber": "0x13ce9f7",
          "transactionHash": "0x3e7e4f1b2936f0c9aa9487c1337ed7052e79390a7e9b3fc14f9ad1ecd3fe6d91",
          "transactionIndex": "0x0",
          "logIndex": "0x0",
          "removed": false
        },
        {
          "address": "0x632654be7ea0625dea3d12857887acb76dc3ae1b",
          "topics": [
            "0xddf252ad1be2c89b69c2b068fc378daa952ba7f163c4a11628f55a4df523b3ef",
            "0x0000000000000000000000000000000000000000000000000000000000000000",
            "0x0000000000000000000000002cac89abf06dbe5d3a059517053b7144074e1ce5",
            "0x0000000000000000000000000000000000000000000000000000000000000003"
          ],
          "data": "0x",
          "blockHash": "0x7004f6a91429f476f5d049dcb018eae2f01efd6b11592d010b896fd6a23af322",
          "blockNumber": "0x13ce9f7",
          "transactionHash": "0x3e7e4f1b2936f0c9aa9487c1337ed7052e79390a7e9b3fc14f9ad1ecd3fe6d91",
          "transactionIndex": "0x0",
          "logIndex": "0x1",
          "removed": false
        },
        {
          "address": "0x632654be7ea0625dea3d12857887acb76dc3ae1b",
          "topics": [
            "0xf8e1a15aba9398e019f0b49df1a4fde98ee17ae345cb5f6b5e2c27f5033e8ce7"
          ],
          "data": "0x0000000000000000000000000000000000000000000000000000000000000003",
          "blockHash": "0x7004f6a91429f476f5d049dcb018eae2f01efd6b11592d010b896fd6a23af322",
          "blockNumber": "0x13ce9f7",
          "transactionHash": "0x3e7e4f1b2936f0c9aa9487c1337ed7052e79390a7e9b3fc14f9ad1ecd3fe6d91",
          "transactionIndex": "0x0",
          "logIndex": "0x2",
          "removed": false
        },
        {
          "address": "0x632654be7ea0625dea3d12857887acb76dc3ae1b",
          "topics": [
            "0x7bc684e6c46e8f9f9ece878eb1544e6e07b5dc4289148b08c888f525b27be3db",
            "0x0000000000000000000000000000000000000000000000000000000000000003",
            "0x0000000000000000000000000000000000000000000000000000000000000002",
            "0x0000000000000000000000002cac89abf06dbe5d3a059517053b7144074e1ce5"
          ],
          "data": "0x000000000000000000000000000000000000000000000000000000000000000000000000000000000000000000000000000000000000000000000000001e84800000000000000000000000000000000000000000000000000000000068867145",
          "blockHash": "0x7004f6a91429f476f5d049dcb018eae2f01efd6b11592d010b896fd6a23af322",
          "blockNumber": "0x13ce9f7",
          "transactionHash": "0x3e7e4f1b2936f0c9aa9487c1337ed7052e79390a7e9b3fc14f9ad1ecd3fe6d91",
          "transactionIndex": "0x0",
          "logIndex": "0x3",
          "removed": false
        },
        {
          "address": "0x6eca0faba1916fb1b164176f7b71de088daadf5e",
          "topics": [
            "0xe57a70e7bd5ff15b67408de156d6b60b131f76a51ee875a24307fdd155643f24",
            "0x0000000000000000000000002cac89abf06dbe5d3a059517053b7144074e1ce5",
            "0x0000000000000000000000000000000000000000000000000000000000000002",
            "0x0000000000000000000000000000000000000000000000000000000000000000"
          ],
          "data": "0x000000000000000000000000000000000000000000000000000000000000000300000000000000000000000000000000000000000000000000000000001e848000000000000000000000000000000000000000000000000000000000000000c0000000000000000000000000000000000000000000000000000000006886714500000000000000000000000000000000000000000000000000000000000000000000000000000000000000000000000000000000000000000000000000000001000000000000000000000000000000000000000000000000000000000000000e446576656c6f7065722050617373000000000000000000000000000000000000",
          "blockHash": "0x7004f6a91429f476f5d049dcb018eae2f01efd6b11592d010b896fd6a23af322",
          "blockNumber": "0x13ce9f7",
          "transactionHash": "0x3e7e4f1b2936f0c9aa9487c1337ed7052e79390a7e9b3fc14f9ad1ecd3fe6d91",
          "transactionIndex": "0x0",
          "logIndex": "0x4",
          "removed": false
        }
      ],
      "logsBloom": "0x04000000000000000000000000000000000000000000000000201001000000000000000000000000000000000000000000000000020000000000000000400000000000000000000000000008000000000200000002000000000000000000000000000080020000000000000000000800000000000000000000200010000000000001000000000000000000000000000000000000000000000404000000000000000800000000000000000100000000002000000000800000012000000000408000010002000000800002000000000020020000000000000000000000000020200000000000000000200000000000000000000000008000000000000000000000",
      "type": "0x2",
      "transactionHash": "0x3e7e4f1b2936f0c9aa9487c1337ed7052e79390a7e9b3fc14f9ad1ecd3fe6d91",
      "transactionIndex": "0x0",
      "blockHash": "0x7004f6a91429f476f5d049dcb018eae2f01efd6b11592d010b896fd6a23af322",
      "blockNumber": "0x13ce9f7",
      "gasUsed": "0x155683",
      "effectiveGasPrice": "0x3b9aca00",
      "from": "0x2cac89abf06dbe5d3a059517053b7144074e1ce5",
      "to": "0x6eca0faba1916fb1b164176f7b71de088daadf5e",
      "contractAddress": null
    },
    {
      "status": "0x1",
      "cumulativeGasUsed": "0xe0333",
      "logs": [
        {
          "address": "0xf7f007dc8cb507e25e8b7dbda600c07fdcf9a75b",
          "topics": [
            "0x8c5be1e5ebec7d5bd14f71427d1e84f3dd0314c0f7b2291e5b200ac8c7c3b925",
            "0x0000000000000000000000002cac89abf06dbe5d3a059517053b7144074e1ce5",
            "0x000000000000000000000000aa51ae81b06b939c0aa2f4651a3cb1180975dbf9"
          ],
          "data": "0x00000000000000000000000000000000000000000000000000000000003d0900",
          "blockHash": "0xd07cb9eb118ad356ca766ad048a27836a82855ea466b6fc60fb7bafa9205960a",
          "blockNumber": "0x13ce9f8",
          "transactionHash": "0x8b98b4606bd88f2359805f2912efbf2fa438c7a5cbff5b7a783754774f2f7ac1",
          "transactionIndex": "0x0",
          "logIndex": "0x0",
          "removed": false
        }
      ],
      "logsBloom": "0x00000000000000000000000000000000000000000000000000000000000000000000000000000000000000000000000000000000000000000000000000600000000000000000000000000000000000000000000002000000000000000000000000000080000000000000000000000000008000000000000000000000000000000000000000000000000000000000000000000000000000000004000080000000020800000000000000000000000000000000000000000000000000000000000000000000000000000000000000000020000000000000000000000000000000000010000000000000000000000000000000000000000000000000002000000000",
      "type": "0x2",
      "transactionHash": "0x8b98b4606bd88f2359805f2912efbf2fa438c7a5cbff5b7a783754774f2f7ac1",
      "transactionIndex": "0x0",
      "blockHash": "0xd07cb9eb118ad356ca766ad048a27836a82855ea466b6fc60fb7bafa9205960a",
      "blockNumber": "0x13ce9f8",
      "gasUsed": "0xe0333",
      "effectiveGasPrice": "0x3b9aca00",
      "from": "0x2cac89abf06dbe5d3a059517053b7144074e1ce5",
      "to": "0xf7f007dc8cb507e25e8b7dbda600c07fdcf9a75b",
      "contractAddress": null
    },
    {
      "status": "0x1",
      "cumulativeGasUsed": "0x15b404",
      "logs": [
        {
          "address": "0xf7f007dc8cb507e25e8b7dbda600c07fdcf9a75b",
          "topics": [
            "0xddf252ad1be2c89b69c2b068fc378daa952ba7f163c4a11628f55a4df523b3ef",
            "0x0000000000000000000000002cac89abf06dbe5d3a059517053b7144074e1ce5",
            "0x000000000000000000000000aa51ae81b06b939c0aa2f4651a3cb1180975dbf9"
          ],
          "data": "0x00000000000000000000000000000000000000000000000000000000003d0900",
          "blockHash": "0xce44bfdfd2d66b91c2762f10db1c9bc97471982b279101e764920c70bcbeafab",
          "blockNumber": "0x13ce9f9",
          "transactionHash": "0x0ad7b87aeb2ff48d307a54bc19cdb496ecef4201ff73135f71e5ae50c79bbc76",
          "transactionIndex": "0x0",
          "logIndex": "0x0",
          "removed": false
        },
        {
          "address": "0x632654be7ea0625dea3d12857887acb76dc3ae1b",
          "topics": [
            "0xddf252ad1be2c89b69c2b068fc378daa952ba7f163c4a11628f55a4df523b3ef",
            "0x0000000000000000000000000000000000000000000000000000000000000000",
            "0x0000000000000000000000002cac89abf06dbe5d3a059517053b7144074e1ce5",
            "0x0000000000000000000000000000000000000000000000000000000000000004"
          ],
          "data": "0x",
          "blockHash": "0xce44bfdfd2d66b91c2762f10db1c9bc97471982b279101e764920c70bcbeafab",
          "blockNumber": "0x13ce9f9",
          "transactionHash": "0x0ad7b87aeb2ff48d307a54bc19cdb496ecef4201ff73135f71e5ae50c79bbc76",
          "transactionIndex": "0x0",
          "logIndex": "0x1",
          "removed": false
        },
        {
          "address": "0x632654be7ea0625dea3d12857887acb76dc3ae1b",
          "topics": [
            "0xf8e1a15aba9398e019f0b49df1a4fde98ee17ae345cb5f6b5e2c27f5033e8ce7"
          ],
          "data": "0x0000000000000000000000000000000000000000000000000000000000000004",
          "blockHash": "0xce44bfdfd2d66b91c2762f10db1c9bc97471982b279101e764920c70bcbeafab",
          "blockNumber": "0x13ce9f9",
          "transactionHash": "0x0ad7b87aeb2ff48d307a54bc19cdb496ecef4201ff73135f71e5ae50c79bbc76",
          "transactionIndex": "0x0",
          "logIndex": "0x2",
          "removed": false
        },
        {
          "address": "0x632654be7ea0625dea3d12857887acb76dc3ae1b",
          "topics": [
            "0x7bc684e6c46e8f9f9ece878eb1544e6e07b5dc4289148b08c888f525b27be3db",
            "0x0000000000000000000000000000000000000000000000000000000000000004",
            "0x0000000000000000000000000000000000000000000000000000000000000003",
            "0x0000000000000000000000002cac89abf06dbe5d3a059517053b7144074e1ce5"
          ],
          "data": "0x000000000000000000000000000000000000000000000000000000000000000000000000000000000000000000000000000000000000000000000000003d0900000000000000000000000000000000000000000000000000000000006886714b",
          "blockHash": "0xce44bfdfd2d66b91c2762f10db1c9bc97471982b279101e764920c70bcbeafab",
          "blockNumber": "0x13ce9f9",
          "transactionHash": "0x0ad7b87aeb2ff48d307a54bc19cdb496ecef4201ff73135f71e5ae50c79bbc76",
          "transactionIndex": "0x0",
          "logIndex": "0x3",
          "removed": false
        },
        {
          "address": "0xaa51ae81b06b939c0aa2f4651a3cb1180975dbf9",
          "topics": [
            "0xe57a70e7bd5ff15b67408de156d6b60b131f76a51ee875a24307fdd155643f24",
            "0x0000000000000000000000002cac89abf06dbe5d3a059517053b7144074e1ce5",
            "0x0000000000000000000000000000000000000000000000000000000000000003",
            "0x0000000000000000000000000000000000000000000000000000000000000000"
          ],
          "data": "0x000000000000000000000000000000000000000000000000000000000000000400000000000000000000000000000000000000000000000000000000003d090000000000000000000000000000000000000000000000000000000000000000c0000000000000000000000000000000000000000000000000000000006886714b0000000000000000000000000000000000000000000000000000000000000000000000000000000000000000000000000000000000000000000000000000000100000000000000000000000000000000000000000000000000000000000000114368616d70696f6e736869702050617373000000000000000000000000000000",
          "blockHash": "0xce44bfdfd2d66b91c2762f10db1c9bc97471982b279101e764920c70bcbeafab",
          "blockNumber": "0x13ce9f9",
          "transactionHash": "0x0ad7b87aeb2ff48d307a54bc19cdb496ecef4201ff73135f71e5ae50c79bbc76",
          "transactionIndex": "0x0",
          "logIndex": "0x4",
          "removed": false
        }
      ],
      "logsBloom": "0x00000000000000000000000000000000000000000000000000001000000000000000000000000000000000000000000000000000020000000000000000400000000000000000000000000008000000000200000002000000000000000000000008000080020000000000000000000900008000000000000000000010000000000000000000000000000000000000010000000000000000000404000080000000000800000000000000000000000000002000000000800000012000000000408000000002000000800002000000000020020000008000000000000000000020200000000000000000200200000000000000000000000000000000002000000000",
      "type": "0x2",
      "transactionHash": "0x0ad7b87aeb2ff48d307a54bc19cdb496ecef4201ff73135f71e5ae50c79bbc76",
      "transactionIndex": "0x0",
      "blockHash": "0xce44bfdfd2d66b91c2762f10db1c9bc97471982b279101e764920c70bcbeafab",
      "blockNumber": "0x13ce9f9",
      "gasUsed": "0x15b404",
      "effectiveGasPrice": "0x3b9aca00",
      "from": "0x2cac89abf06dbe5d3a059517053b7144074e1ce5",
      "to": "0xaa51ae81b06b939c0aa2f4651a3cb1180975dbf9",
      "contractAddress": null
    }
  ],
  "libraries": [],
  "pending": [],
  "returns": {},
  "timestamp": 1753641293,
  "chain": 128123,
  "commit": "42ec3ca"
}