{
  "transactions": [
    {
      "hash": "0x8f0ee8d563dfb82bde90cfe0dee474fb7fe5a0b9bc9cb3456ea076251c504321",
      "transactionType": "CALL",
      "contractName": null,
      "contractAddress": "0xf7f007dc8cb507e25e8b7dbda600c07fdcf9a75b",
      "function": "approve(address,uint256)",
      "arguments": [
        "0x0ba78eD63B6478273Bb2E01DAB695aDA325Ae2Eb",
        "25000"
      ],
      "transaction": {
        "from": "0x2cac89abf06dbe5d3a059517053b7144074e1ce5",
        "to": "0xf7f007dc8cb507e25e8b7dbda600c07fdcf9a75b",
        "gas": "0x1247fa",
        "value": "0x0",
        "input": "0x095ea7b30000000000000000000000000ba78ed63b6478273bb2e01dab695ada325ae2eb00000000000000000000000000000000000000000000000000000000000061a8",
        "nonce": "0x81",
        "chainId": "0x1f47b"
      },
      "additionalContracts": [],
      "isFixedGasLimit": false
    },
    {
      "hash": "0xfea8fe3df16f41795469b46dc0f140134ecfa7a3ae989a2b67c6e8ceffcb17fb",
      "transactionType": "CALL",
      "contractName": null,
      "contractAddress": "0x0ba78ed63b6478273bb2e01dab695ada325ae2eb",
      "function": "purchaseTicket(uint256)",
      "arguments": [
        "0"
      ],
      "transaction": {
        "from": "0x2cac89abf06dbe5d3a059517053b7144074e1ce5",
        "to": "0x0ba78ed63b6478273bb2e01dab695ada325ae2eb",
        "gas": "0xdc5df",
        "value": "0x0",
        "input": "0xb948348c0000000000000000000000000000000000000000000000000000000000000000",
        "nonce": "0x82",
        "chainId": "0x1f47b"
      },
      "additionalContracts": [],
      "isFixedGasLimit": false
    },
    {
      "hash": "0xc3dc9b80f827eaabaaca8f365016007f6c5ef835586312d8b27723d7893a9b99",
      "transactionType": "CALL",
      "contractName": null,
      "contractAddress": "0x0ba78ed63b6478273bb2e01dab695ada325ae2eb",
      "function": "useTicket(uint256)",
      "arguments": [
        "2"
      ],
      "transaction": {
        "from": "0x2cac89abf06dbe5d3a059517053b7144074e1ce5",
        "to": "0x0ba78ed63b6478273bb2e01dab695ada325ae2eb",
        "gas": "0xbaadd",
        "value": "0x0",
        "input": "0x266064480000000000000000000000000000000000000000000000000000000000000002",
        "nonce": "0x83",
        "chainId": "0x1f47b"
      },
      "additionalContracts": [],
      "isFixedGasLimit": false
    }
  ],
  "receipts": [
    {
      "status": "0x1",
      "cumulativeGasUsed": "0xe0333",
      "logs": [
        {
          "address": "0xf7f007dc8cb507e25e8b7dbda600c07fdcf9a75b",
          "topics": [
            "0x8c5be1e5ebec7d5bd14f71427d1e84f3dd0314c0f7b2291e5b200ac8c7c3b925",
            "0x0000000000000000000000002cac89abf06dbe5d3a059517053b7144074e1ce5",
            "0x0000000000000000000000000ba78ed63b6478273bb2e01dab695ada325ae2eb"
          ],
          "data": "0x00000000000000000000000000000000000000000000000000000000000061a8",
          "blockHash": "0x80a5a9a5e7579d8c2ab92ebdf4f4d14c552c3940100df6c8769ce2b28cf596cf",
          "blockNumber": "0x13d63bb",
          "transactionHash": "0x8f0ee8d563dfb82bde90cfe0dee474fb7fe5a0b9bc9cb3456ea076251c504321",
          "transactionIndex": "0x0",
          "logIndex": "0x0",
          "removed": false
        }
      ],
      "logsBloom": "0x00000000000000000000000000000000000000000000000000000000000000000000000000000000000000000000000000000000000000000000000000600000000000000000000000000000000000000000000002000000000000000000000000000080000000000000000000000000000000000000000000000000000000000000000000000000000000000000000000000000000000000004000000008000020800000000000000000000000000000000000000000000000000000000000000000000000000000000000000000020000000000000000020000000000000000010000000000000000000000000004000000000000000000000000000000000",
      "type": "0x2",
      "transactionHash": "0x8f0ee8d563dfb82bde90cfe0dee474fb7fe5a0b9bc9cb3456ea076251c504321",
      "transactionIndex": "0x0",
      "blockHash": "0x80a5a9a5e7579d8c2ab92ebdf4f4d14c552c3940100df6c8769ce2b28cf596cf",
      "blockNumber": "0x13d63bb",
      "gasUsed": "0xe0333",
      "effectiveGasPrice": "0x3b9aca00",
      "from": "0x2cac89abf06dbe5d3a059517053b7144074e1ce5",
      "to": "0xf7f007dc8cb507e25e8b7dbda600c07fdcf9a75b",
      "contractAddress": null
    },
    {
      "status": "0x1",
      "cumulativeGasUsed": "0x1552ec",
      "logs": [
        {
          "address": "0xf7f007dc8cb507e25e8b7dbda600c07fdcf9a75b",
          "topics": [
            "0xddf252ad1be2c89b69c2b068fc378daa952ba7f163c4a11628f55a4df523b3ef",
            "0x0000000000000000000000002cac89abf06dbe5d3a059517053b7144074e1ce5",
            "0x0000000000000000000000000ba78ed63b6478273bb2e01dab695ada325ae2eb"
          ],
          "data": "0x00000000000000000000000000000000000000000000000000000000000061a8",
          "blockHash": "0x683726b04799d6746da7373a5224b0103d846e9d9d3e74521c5fed74c6b4a533",
          "blockNumber": "0x13d63bc",
          "transactionHash": "0xfea8fe3df16f41795469b46dc0f140134ecfa7a3ae989a2b67c6e8ceffcb17fb",
          "transactionIndex": "0x0",
          "logIndex": "0x0",
          "removed": false
        },
        {
          "address": "0x63cf8c06e25f6fbe972f5de85c377df7669fcaf7",
          "topics": [
            "0xddf252ad1be2c89b69c2b068fc378daa952ba7f163c4a11628f55a4df523b3ef",
            "0x0000000000000000000000000000000000000000000000000000000000000000",
            "0x0000000000000000000000002cac89abf06dbe5d3a059517053b7144074e1ce5",
            "0x0000000000000000000000000000000000000000000000000000000000000002"
          ],
          "data": "0x",
          "blockHash": "0x683726b04799d6746da7373a5224b0103d846e9d9d3e74521c5fed74c6b4a533",
          "blockNumber": "0x13d63bc",
          "transactionHash": "0xfea8fe3df16f41795469b46dc0f140134ecfa7a3ae989a2b67c6e8ceffcb17fb",
          "transactionIndex": "0x0",
          "logIndex": "0x1",
          "removed": false
        },
        {
          "address": "0x63cf8c06e25f6fbe972f5de85c377df7669fcaf7",
          "topics": [
            "0xf8e1a15aba9398e019f0b49df1a4fde98ee17ae345cb5f6b5e2c27f5033e8ce7"
          ],
          "data": "0x0000000000000000000000000000000000000000000000000000000000000002",
          "blockHash": "0x683726b04799d6746da7373a5224b0103d846e9d9d3e74521c5fed74c6b4a533",
          "blockNumber": "0x13d63bc",
          "transactionHash": "0xfea8fe3df16f41795469b46dc0f140134ecfa7a3ae989a2b67c6e8ceffcb17fb",
          "transactionIndex": "0x0",
          "logIndex": "0x2",
          "removed": false
        },
        {
          "address": "0x63cf8c06e25f6fbe972f5de85c377df7669fcaf7",
          "topics": [
            "0x7bc684e6c46e8f9f9ece878eb1544e6e07b5dc4289148b08c888f525b27be3db",
            "0x0000000000000000000000000000000000000000000000000000000000000002",
            "0x0000000000000000000000000000000000000000000000000000000000000003",
            "0x0000000000000000000000002cac89abf06dbe5d3a059517053b7144074e1ce5"
          ],
          "data": "0x000000000000000000000000000000000000000000000000000000000000000000000000000000000000000000000000000000000000000000000000000061a8000000000000000000000000000000000000000000000000000000006888c362",
          "blockHash": "0x683726b04799d6746da7373a5224b0103d846e9d9d3e74521c5fed74c6b4a533",
          "blockNumber": "0x13d63bc",
          "transactionHash": "0xfea8fe3df16f41795469b46dc0f140134ecfa7a3ae989a2b67c6e8ceffcb17fb",
          "transactionIndex": "0x0",
          "logIndex": "0x3",
          "removed": false
        },
        {
          "address": "0x0ba78ed63b6478273bb2e01dab695ada325ae2eb",
          "topics": [
            "0xe57a70e7bd5ff15b67408de156d6b60b131f76a51ee875a24307fdd155643f24",
            "0x0000000000000000000000002cac89abf06dbe5d3a059517053b7144074e1ce5",
            "0x0000000000000000000000000000000000000000000000000000000000000003",
            "0x0000000000000000000000000000000000000000000000000000000000000000"
          ],
          "data": "0x000000000000000000000000000000000000000000000000000000000000000200000000000000000000000000000000000000000000000000000000000061a800000000000000000000000000000000000000000000000000000000000000c0000000000000000000000000000000000000000000000000000000006888c36200000000000000000000000000000000000000000000000000000000000000000000000000000000000000000000000000000000000000000000000000000001000000000000000000000000000000000000000000000000000000000000001746757475726520504f41502054657374205469636b6574000000000000000000",
          "blockHash": "0x683726b04799d6746da7373a5224b0103d846e9d9d3e74521c5fed74c6b4a533",
          "blockNumber": "0x13d63bc",
          "transactionHash": "0xfea8fe3df16f41795469b46dc0f140134ecfa7a3ae989a2b67c6e8ceffcb17fb",
          "transactionIndex": "0x0",
          "logIndex": "0x4",
          "removed": false
        }
      ],
      "logsBloom": "0x04000000000000040000000000000000000000000000000000000000000000000000000000000000000000000000000000000000020000000000000000400000000020000000000000000008000000000200000002000000000000000000000000000080020000000000000000000800000000000000000000000010000000200000000000000000000000000000000000000000000000000404000000008010040800000000000000000100000000002000000000800000010000000000408000000002000000800002000001000020020000000000000020000000000020000000000000000000200000000000004000000000008000000000000000000000",
      "type": "0x2",
      "transactionHash": "0xfea8fe3df16f41795469b46dc0f140134ecfa7a3ae989a2b67c6e8ceffcb17fb",
      "transactionIndex": "0x0",
      "blockHash": "0x683726b04799d6746da7373a5224b0103d846e9d9d3e74521c5fed74c6b4a533",
      "blockNumber": "0x13d63bc",
      "gasUsed": "0x1552ec",
      "effectiveGasPrice": "0x3b9aca00",
      "from": "0x2cac89abf06dbe5d3a059517053b7144074e1ce5",
      "to": "0x0ba78ed63b6478273bb2e01dab695ada325ae2eb",
      "contractAddress": null
    },
    {
      "status": "0x1",
      "cumulativeGasUsed": "0x13ccb0",
      "logs": [
        {
          "address": "0x63cf8c06e25f6fbe972f5de85c377df7669fcaf7",
          "topics": [
            "0x8be613b4dc15de51545df38aaa743da56cbd4d107ee7a3c2764ddc43c2bca505",
            "0x0000000000000000000000000000000000000000000000000000000000000002",
            "0x0000000000000000000000000000000000000000000000000000000000000003",
            "0x0000000000000000000000000ba78ed63b6478273bb2e01dab695ada325ae2eb"
          ],
          "data": "0x000000000000000000000000000000000000000000000000000000006888c363",
          "blockHash": "0x9c065f0832b5feb64dc1a7e469c956e13cb8c19d51ca400aebcf3788c67f1d11",
          "blockNumber": "0x13d63bd",
          "transactionHash": "0xc3dc9b80f827eaabaaca8f365016007f6c5ef835586312d8b27723d7893a9b99",
          "transactionIndex": "0x0",
          "logIndex": "0x0",
          "removed": false
        },
        {
          "address": "0xd85612c44d575c00da13ebb62df2816cf7c22ace",
          "topics": [
            "0xddf252ad1be2c89b69c2b068fc378daa952ba7f163c4a11628f55a4df523b3ef",
            "0x0000000000000000000000000000000000000000000000000000000000000000",
            "0x0000000000000000000000002cac89abf06dbe5d3a059517053b7144074e1ce5",
            "0x0000000000000000000000000000000000000000000000000000000000000002"
          ],
          "data": "0x",
          "blockHash": "0x9c065f0832b5feb64dc1a7e469c956e13cb8c19d51ca400aebcf3788c67f1d11",
          "blockNumber": "0x13d63bd",
          "transactionHash": "0xc3dc9b80f827eaabaaca8f365016007f6c5ef835586312d8b27723d7893a9b99",
          "transactionIndex": "0x0",
          "logIndex": "0x1",
          "removed": false
        },
        {
          "address": "0xd85612c44d575c00da13ebb62df2816cf7c22ace",
          "topics": [
            "0xf8e1a15aba9398e019f0b49df1a4fde98ee17ae345cb5f6b5e2c27f5033e8ce7"
          ],
          "data": "0x0000000000000000000000000000000000000000000000000000000000000002",
          "blockHash": "0x9c065f0832b5feb64dc1a7e469c956e13cb8c19d51ca400aebcf3788c67f1d11",
          "blockNumber": "0x13d63bd",
          "transactionHash": "0xc3dc9b80f827eaabaaca8f365016007f6c5ef835586312d8b27723d7893a9b99",
          "transactionIndex": "0x0",
          "logIndex": "0x2",
          "removed": false
        },
        {
          "address": "0xd85612c44d575c00da13ebb62df2816cf7c22ace",
          "topics": [
            "0xe08e85b6c120ed467bb3455d9ee3712720b1540306ad0664464d1f4a2731706d",
            "0x0000000000000000000000000000000000000000000000000000000000000002",
            "0x0000000000000000000000000000000000000000000000000000000000000003",
            "0x0000000000000000000000000000000000000000000000000000000000000003"
          ],
          "data": "0x0000000000000000000000002cac89abf06dbe5d3a059517053b7144074e1ce500000000000000000000000000000000000000000000000000000000000000020000000000000000000000000000000000000000000000000000000000000080000000000000000000000000000000000000000000000000000000006888c363000000000000000000000000000000000000000000000000000000000000002668747470733a2f2f6578616d706c652e636f6d2f706f61702d6d657461646174612e6a736f6e0000000000000000000000000000000000000000000000000000",
          "blockHash": "0x9c065f0832b5feb64dc1a7e469c956e13cb8c19d51ca400aebcf3788c67f1d11",
          "blockNumber": "0x13d63bd",
          "transactionHash": "0xc3dc9b80f827eaabaaca8f365016007f6c5ef835586312d8b27723d7893a9b99",
          "transactionIndex": "0x0",
          "logIndex": "0x3",
          "removed": false
        },
        {
          "address": "0x0ba78ed63b6478273bb2e01dab695ada325ae2eb",
          "topics": [
            "0xe6c762b539c457743f94227289f320ccb6dc2241f3af7ef16d1d5e0ac6f664d6",
            "0x0000000000000000000000000000000000000000000000000000000000000002",
            "0x0000000000000000000000000000000000000000000000000000000000000003",
            "0x0000000000000000000000002cac89abf06dbe5d3a059517053b7144074e1ce5"
          ],
          "data": "0x000000000000000000000000000000000000000000000000000000006888c363000000000000000000000000000000000000000000000000000000000000006000000000000000000000000000000000000000000000000000000000000000a0000000000000000000000000000000000000000000000000000000000000001646757475726520504f41502054657374204576656e7400000000000000000000000000000000000000000000000000000000000000000000000000000000001746757475726520504f41502054657374205469636b6574000000000000000000",
          "blockHash": "0x9c065f0832b5feb64dc1a7e469c956e13cb8c19d51ca400aebcf3788c67f1d11",
          "blockNumber": "0x13d63bd",
          "transactionHash": "0xc3dc9b80f827eaabaaca8f365016007f6c5ef835586312d8b27723d7893a9b99",
          "transactionIndex": "0x0",
          "logIndex": "0x4",
          "removed": false
        }
      ],
      "logsBloom": "0x04000000002000040000000000000000000000000000000000000000000000001000000000000000000000400000000000000000020000000000000800400000000020000000000000000008000000000000000000000000000000000000000000002080020000000000000000200800001000000000000000000010000000200000000000000000008000000000020000000000000000000004000000008010040000000000000000000100000000002008000000800000000000000000408000000002000000000000040001000000000010000000000020000000000020000000000000000000200000000000004000000000008000000000000000000000",
      "type": "0x2",
      "transactionHash": "0xc3dc9b80f827eaabaaca8f365016007f6c5ef835586312d8b27723d7893a9b99",
      "transactionIndex": "0x0",
      "blockHash": "0x9c065f0832b5feb64dc1a7e469c956e13cb8c19d51ca400aebcf3788c67f1d11",
      "blockNumber": "0x13d63bd",
      "gasUsed": "0x13ccb0",
      "effectiveGasPrice": "0x3b9aca00",
      "from": "0x2cac89abf06dbe5d3a059517053b7144074e1ce5",
      "to": "0x0ba78ed63b6478273bb2e01dab695ada325ae2eb",
      "contractAddress": null
    }
  ],
  "libraries": [],
  "pending": [],
  "returns": {},
  "timestamp": 1753793380,
  "chain": 128123,
  "commit": "84283d5"
}