{
  "transactions": [
    {
      "hash": "0x64a0656f65378a98cb716f830f7c2a82e0729a9a930486b75d2885fc3faa40e5",
      "transactionType": "CALL",
      "contractName": null,
      "contractAddress": "0xf7f007dc8cb507e25e8b7dbda600c07fdcf9a75b",
      "function": "approve(address,uint256)",
      "arguments": [
        "0xFc2057d74aE0383c521053D3ac180Be93ae4a263",
        "100000"
      ],
      "transaction": {
        "from": "0x2cac89abf06dbe5d3a059517053b7144074e1ce5",
        "to": "0xf7f007dc8cb507e25e8b7dbda600c07fdcf9a75b",
        "gas": "0x12480a",
        "value": "0x0",
        "input": "0x095ea7b3000000000000000000000000fc2057d74ae0383c521053d3ac180be93ae4a26300000000000000000000000000000000000000000000000000000000000186a0",
        "nonce": "0x70",
        "chainId": "0x1f47b"
      },
      "additionalContracts": [],
      "isFixedGasLimit": false
    },
    {
      "hash": "0x47a64699d6cda574ad240eac18025291622e58d97d9efd759aab699c9b3bcd9e",
      "transactionType": "CALL",
      "contractName": null,
      "contractAddress": "0xfc2057d74ae0383c521053d3ac180be93ae4a263",
      "function": "purchaseTicket(uint256)",
      "arguments": [
        "0"
      ],
      "transaction": {
        "from": "0x2cac89abf06dbe5d3a059517053b7144074e1ce5",
        "to": "0xfc2057d74ae0383c521053d3ac180be93ae4a263",
        "gas": "0xe80a7",
        "value": "0x0",
        "input": "0xb948348c0000000000000000000000000000000000000000000000000000000000000000",
        "nonce": "0x71",
        "chainId": "0x1f47b"
      },
      "additionalContracts": [],
      "isFixedGasLimit": false
    },
    {
      "hash": "0x0e72a575d662cb5aec8b10833722e8b2e6f51cdd03d71ed5a9744c7a98d0f8c4",
      "transactionType": "CALL",
      "contractName": null,
      "contractAddress": "0xfc2057d74ae0383c521053d3ac180be93ae4a263",
      "function": "useTicket(uint256)",
      "arguments": [
        "1"
      ],
      "transaction": {
        "from": "0x2cac89abf06dbe5d3a059517053b7144074e1ce5",
        "to": "0xfc2057d74ae0383c521053d3ac180be93ae4a263",
        "gas": "0xcbfa7",
        "value": "0x0",
        "input": "0x266064480000000000000000000000000000000000000000000000000000000000000001",
        "nonce": "0x72",
        "chainId": "0x1f47b"
      },
      "additionalContracts": [],
      "isFixedGasLimit": false
    }
  ],
  "receipts": [
    {
      "status": "0x1",
      "cumulativeGasUsed": "0xe033f",
      "logs": [
        {
          "address": "0xf7f007dc8cb507e25e8b7dbda600c07fdcf9a75b",
          "topics": [
            "0x8c5be1e5ebec7d5bd14f71427d1e84f3dd0314c0f7b2291e5b200ac8c7c3b925",
            "0x0000000000000000000000002cac89abf06dbe5d3a059517053b7144074e1ce5",
            "0x000000000000000000000000fc2057d74ae0383c521053d3ac180be93ae4a263"
          ],
          "data": "0x00000000000000000000000000000000000000000000000000000000000186a0",
          "blockHash": "0xb5140aea3bd61dde391956f74df63aa25e6ed102eb8f6ea095f9aa3c98c0411c",
          "blockNumber": "0x13d62b3",
          "transactionHash": "0x64a0656f65378a98cb716f830f7c2a82e0729a9a930486b75d2885fc3faa40e5",
          "transactionIndex": "0x0",
          "logIndex": "0x0",
          "removed": false
        }
      ],
      "logsBloom": "0x00000000000000000000000000000000000000000000000000000000000000000000000000000000000000000000000000000000000000000000000000600000000000000000000000000000000000100000000002000000000010000000000000000080000000000000000000000000000000000000000000000000000000000000000000000000000000000000000000000000000000000004000000000000020800000000000000000000000000000000000000000000000000000000000000000000000000000000000000000020000000000000000000000000200000000010000000000000000000000000000000000000000000000000000000000000",
      "type": "0x2",
      "transactionHash": "0x64a0656f65378a98cb716f830f7c2a82e0729a9a930486b75d2885fc3faa40e5",
      "transactionIndex": "0x0",
      "blockHash": "0xb5140aea3bd61dde391956f74df63aa25e6ed102eb8f6ea095f9aa3c98c0411c",
      "blockNumber": "0x13d62b3",
      "gasUsed": "0xe033f",
      "effectiveGasPrice": "0x3b9aca00",
      "from": "0x2cac89abf06dbe5d3a059517053b7144074e1ce5",
      "to": "0xf7f007dc8cb507e25e8b7dbda600c07fdcf9a75b",
      "contractAddress": null
    },
    {
      "status": "0x1",
      "cumulativeGasUsed": "0x15da25",
      "logs": [
        {
          "address": "0xf7f007dc8cb507e25e8b7dbda600c07fdcf9a75b",
          "topics": [
            "0xddf252ad1be2c89b69c2b068fc378daa952ba7f163c4a11628f55a4df523b3ef",
            "0x0000000000000000000000002cac89abf06dbe5d3a059517053b7144074e1ce5",
            "0x000000000000000000000000fc2057d74ae0383c521053d3ac180be93ae4a263"
          ],
          "data": "0x00000000000000000000000000000000000000000000000000000000000186a0",
          "blockHash": "0x252e98e5190555594d19b2b5df8cf838489ad4e8bcbcc2d56146ce34275fccc1",
          "blockNumber": "0x13d62b4",
          "transactionHash": "0x47a64699d6cda574ad240eac18025291622e58d97d9efd759aab699c9b3bcd9e",
          "transactionIndex": "0x0",
          "logIndex": "0x0",
          "removed": false
        },
        {
          "address": "0x63cf8c06e25f6fbe972f5de85c377df7669fcaf7",
          "topics": [
            "0xddf252ad1be2c89b69c2b068fc378daa952ba7f163c4a11628f55a4df523b3ef",
            "0x0000000000000000000000000000000000000000000000000000000000000000",
            "0x0000000000000000000000002cac89abf06dbe5d3a059517053b7144074e1ce5",
            "0x0000000000000000000000000000000000000000000000000000000000000001"
          ],
          "data": "0x",
          "blockHash": "0x252e98e5190555594d19b2b5df8cf838489ad4e8bcbcc2d56146ce34275fccc1",
          "blockNumber": "0x13d62b4",
          "transactionHash": "0x47a64699d6cda574ad240eac18025291622e58d97d9efd759aab699c9b3bcd9e",
          "transactionIndex": "0x0",
          "logIndex": "0x1",
          "removed": false
        },
        {
          "address": "0x63cf8c06e25f6fbe972f5de85c377df7669fcaf7",
          "topics": [
            "0xf8e1a15aba9398e019f0b49df1a4fde98ee17ae345cb5f6b5e2c27f5033e8ce7"
          ],
          "data": "0x0000000000000000000000000000000000000000000000000000000000000001",
          "blockHash": "0x252e98e5190555594d19b2b5df8cf838489ad4e8bcbcc2d56146ce34275fccc1",
          "blockNumber": "0x13d62b4",
          "transactionHash": "0x47a64699d6cda574ad240eac18025291622e58d97d9efd759aab699c9b3bcd9e",
          "transactionIndex": "0x0",
          "logIndex": "0x2",
          "removed": false
        },
        {
          "address": "0x63cf8c06e25f6fbe972f5de85c377df7669fcaf7",
          "topics": [
            "0x7bc684e6c46e8f9f9ece878eb1544e6e07b5dc4289148b08c888f525b27be3db",
            "0x0000000000000000000000000000000000000000000000000000000000000001",
            "0x0000000000000000000000000000000000000000000000000000000000000001",
            "0x0000000000000000000000002cac89abf06dbe5d3a059517053b7144074e1ce5"
          ],
          "data": "0x000000000000000000000000000000000000000000000000000000000000000000000000000000000000000000000000000000000000000000000000000186a0000000000000000000000000000000000000000000000000000000006888bee0",
          "blockHash": "0x252e98e5190555594d19b2b5df8cf838489ad4e8bcbcc2d56146ce34275fccc1",
          "blockNumber": "0x13d62b4",
          "transactionHash": "0x47a64699d6cda574ad240eac18025291622e58d97d9efd759aab699c9b3bcd9e",
          "transactionIndex": "0x0",
          "logIndex": "0x3",
          "removed": false
        },
        {
          "address": "0xfc2057d74ae0383c521053d3ac180be93ae4a263",
          "topics": [
            "0xe57a70e7bd5ff15b67408de156d6b60b131f76a51ee875a24307fdd155643f24",
            "0x0000000000000000000000002cac89abf06dbe5d3a059517053b7144074e1ce5",
            "0x0000000000000000000000000000000000000000000000000000000000000001",
            "0x0000000000000000000000000000000000000000000000000000000000000000"
          ],
          "data": "0x000000000000000000000000000000000000000000000000000000000000000100000000000000000000000000000000000000000000000000000000000186a000000000000000000000000000000000000000000000000000000000000000c0000000000000000000000000000000000000000000000000000000006888bee0000000000000000000000000000000000000000000000000000000000000000000000000000000000000000000000000000000000000000000000000000000010000000000000000000000000000000000000000000000000000000000000015496d6d6564696174652054657374205469636b65740000000000000000000000",
          "blockHash": "0x252e98e5190555594d19b2b5df8cf838489ad4e8bcbcc2d56146ce34275fccc1",
          "blockNumber": "0x13d62b4",
          "transactionHash": "0x47a64699d6cda574ad240eac18025291622e58d97d9efd759aab699c9b3bcd9e",
          "transactionIndex": "0x0",
          "logIndex": "0x4",
          "removed": false
        }
      ],
      "logsBloom": "0x00000000000000040000000000000000000000000000000000000000000000000000000000000000000100000000000000000000000000000000000000440000000000000400000000000008000000100200000002040000000010000000000000000080020000000000000000000800000000000000000000000010000000000000000000000000000000000000000000000000000000000404000000000010040800000000000000000000000000002000000000000000010000000000808000000002000000800002000000000020020000000000000000000000200060000000000000000000200000000000000000000000000000000000000000000000",
      "type": "0x2",
      "transactionHash": "0x47a64699d6cda574ad240eac18025291622e58d97d9efd759aab699c9b3bcd9e",
      "transactionIndex": "0x0",
      "blockHash": "0x252e98e5190555594d19b2b5df8cf838489ad4e8bcbcc2d56146ce34275fccc1",
      "blockNumber": "0x13d62b4",
      "gasUsed": "0x15da25",
      "effectiveGasPrice": "0x3b9aca00",
      "from": "0x2cac89abf06dbe5d3a059517053b7144074e1ce5",
      "to": "0xfc2057d74ae0383c521053d3ac180be93ae4a263",
      "contractAddress": null
    },
    {
      "status": "0x1",
      "cumulativeGasUsed": "0x149514",
      "logs": [
        {
          "address": "0x63cf8c06e25f6fbe972f5de85c377df7669fcaf7",
          "topics": [
            "0x8be613b4dc15de51545df38aaa743da56cbd4d107ee7a3c2764ddc43c2bca505",
            "0x0000000000000000000000000000000000000000000000000000000000000001",
            "0x0000000000000000000000000000000000000000000000000000000000000001",
            "0x000000000000000000000000fc2057d74ae0383c521053d3ac180be93ae4a263"
          ],
          "data": "0x000000000000000000000000000000000000000000000000000000006888bee1",
          "blockHash": "0x25db61fe82f7103c4f424fad3376e2c3dc8143bfb1f51ec7b59ecfaa83f3e2e2",
          "blockNumber": "0x13d62b5",
          "transactionHash": "0x0e72a575d662cb5aec8b10833722e8b2e6f51cdd03d71ed5a9744c7a98d0f8c4",
          "transactionIndex": "0x0",
          "logIndex": "0x0",
          "removed": false
        },
        {
          "address": "0xd85612c44d575c00da13ebb62df2816cf7c22ace",
          "topics": [
            "0xddf252ad1be2c89b69c2b068fc378daa952ba7f163c4a11628f55a4df523b3ef",
            "0x0000000000000000000000000000000000000000000000000000000000000000",
            "0x0000000000000000000000002cac89abf06dbe5d3a059517053b7144074e1ce5",
            "0x0000000000000000000000000000000000000000000000000000000000000001"
          ],
          "data": "0x",
          "blockHash": "0x25db61fe82f7103c4f424fad3376e2c3dc8143bfb1f51ec7b59ecfaa83f3e2e2",
          "blockNumber": "0x13d62b5",
          "transactionHash": "0x0e72a575d662cb5aec8b10833722e8b2e6f51cdd03d71ed5a9744c7a98d0f8c4",
          "transactionIndex": "0x0",
          "logIndex": "0x1",
          "removed": false
        },
        {
          "address": "0xd85612c44d575c00da13ebb62df2816cf7c22ace",
          "topics": [
            "0xf8e1a15aba9398e019f0b49df1a4fde98ee17ae345cb5f6b5e2c27f5033e8ce7"
          ],
          "data": "0x0000000000000000000000000000000000000000000000000000000000000001",
          "blockHash": "0x25db61fe82f7103c4f424fad3376e2c3dc8143bfb1f51ec7b59ecfaa83f3e2e2",
          "blockNumber": "0x13d62b5",
          "transactionHash": "0x0e72a575d662cb5aec8b10833722e8b2e6f51cdd03d71ed5a9744c7a98d0f8c4",
          "transactionIndex": "0x0",
          "logIndex": "0x2",
          "removed": false
        },
        {
          "address": "0xd85612c44d575c00da13ebb62df2816cf7c22ace",
          "topics": [
            "0xe08e85b6c120ed467bb3455d9ee3712720b1540306ad0664464d1f4a2731706d",
            "0x0000000000000000000000000000000000000000000000000000000000000001",
            "0x0000000000000000000000000000000000000000000000000000000000000001",
            "0x0000000000000000000000000000000000000000000000000000000000000001"
          ],
          "data": "0x0000000000000000000000002cac89abf06dbe5d3a059517053b7144074e1ce500000000000000000000000000000000000000000000000000000000000000010000000000000000000000000000000000000000000000000000000000000080000000000000000000000000000000000000000000000000000000006888bee1000000000000000000000000000000000000000000000000000000000000002b68747470733a2f2f65746865726c696e6b2e636f6d2f6576656e74732f696d6d6564696174652d74657374000000000000000000000000000000000000000000",
          "blockHash": "0x25db61fe82f7103c4f424fad3376e2c3dc8143bfb1f51ec7b59ecfaa83f3e2e2",
          "blockNumber": "0x13d62b5",
          "transactionHash": "0x0e72a575d662cb5aec8b10833722e8b2e6f51cdd03d71ed5a9744c7a98d0f8c4",
          "transactionIndex": "0x0",
          "logIndex": "0x3",
          "removed": false
        },
        {
          "address": "0xfc2057d74ae0383c521053d3ac180be93ae4a263",
          "topics": [
            "0xe6c762b539c457743f94227289f320ccb6dc2241f3af7ef16d1d5e0ac6f664d6",
            "0x0000000000000000000000000000000000000000000000000000000000000001",
            "0x0000000000000000000000000000000000000000000000000000000000000001",
            "0x0000000000000000000000002cac89abf06dbe5d3a059517053b7144074e1ce5"
          ],
          "data": "0x000000000000000000000000000000000000000000000000000000006888bee1000000000000000000000000000000000000000000000000000000000000006000000000000000000000000000000000000000000000000000000000000000a00000000000000000000000000000000000000000000000000000000000000019496d6d65646961746520504f41502054657374204576656e74000000000000000000000000000000000000000000000000000000000000000000000000000015496d6d6564696174652054657374205469636b65740000000000000000000000",
          "blockHash": "0x25db61fe82f7103c4f424fad3376e2c3dc8143bfb1f51ec7b59ecfaa83f3e2e2",
          "blockNumber": "0x13d62b5",
          "transactionHash": "0x0e72a575d662cb5aec8b10833722e8b2e6f51cdd03d71ed5a9744c7a98d0f8c4",
          "transactionIndex": "0x0",
          "logIndex": "0x4",
          "removed": false
        }
      ],
      "logsBloom": "0x00000000002000040000000000000000000000000000000000000000000000001000000000000000000100400000000000000000000000000000000800440000000000000400000000000008000000100000000000040000000010000000000000002080020000000000000000200800001000000000000000000010000000000000000000000000008000000000020000000000000000000004000000000010040000000000000000000000000000002008000000000000000000000000808000000002000000000000040000000000000010000000000000000000200060000000000000000000200000000000000000000000000000000000000000000000",
      "type": "0x2",
      "transactionHash": "0x0e72a575d662cb5aec8b10833722e8b2e6f51cdd03d71ed5a9744c7a98d0f8c4",
      "transactionIndex": "0x0",
      "blockHash": "0x25db61fe82f7103c4f424fad3376e2c3dc8143bfb1f51ec7b59ecfaa83f3e2e2",
      "blockNumber": "0x13d62b5",
      "gasUsed": "0x149514",
      "effectiveGasPrice": "0x3b9aca00",
      "from": "0x2cac89abf06dbe5d3a059517053b7144074e1ce5",
      "to": "0xfc2057d74ae0383c521053d3ac180be93ae4a263",
      "contractAddress": null
    }
  ],
  "libraries": [],
  "pending": [],
  "returns": {},
  "timestamp": 1753792225,
  "chain": 128123,
  "commit": "84283d5"
}