{
  "transactions": [
    {
      "hash": "0xad2f1015420367fb41f6814598cf1c03b4ef0e880e4f68c2cdebfa0c40b87056",
      "transactionType": "CALL",
      "contractName": null,
      "contractAddress": "0x9b22c8b8371c54d9cfeba5386cb26103733be7e4",
      "function": "purchaseTicket(uint256)",
      "arguments": [
        "0"
      ],
      "transaction": {
        "from": "0x2cac89abf06dbe5d3a059517053b7144074e1ce5",
        "to": "0x9b22c8b8371c54d9cfeba5386cb26103733be7e4",
        "gas": "0x20d1bb",
        "value": "0x0",
        "input": "0xb948348c0000000000000000000000000000000000000000000000000000000000000000",
        "nonce": "0xa7",
        "chainId": "0x1f47b"
      },
      "additionalContracts": [],
      "isFixedGasLimit": false
    },
    {
      "hash": "0x49f6ad8da2acc8330f3db6291c66e9274019c46b19336607d60ea01c8c0bffb2",
      "transactionType": "CALL",
      "contractName": null,
      "contractAddress": "0x9b22c8b8371c54d9cfeba5386cb26103733be7e4",
      "function": "useTicket(uint256)",
      "arguments": [
        "1"
      ],
      "transaction": {
        "from": "0x2cac89abf06dbe5d3a059517053b7144074e1ce5",
        "to": "0x9b22c8b8371c54d9cfeba5386cb26103733be7e4",
        "gas": "0xcbad2",
        "value": "0x0",
        "input": "0x266064480000000000000000000000000000000000000000000000000000000000000001",
        "nonce": "0xa8",
        "chainId": "0x1f47b"
      },
      "additionalContracts": [],
      "isFixedGasLimit": false
    }
  ],
  "receipts": [
    {
      "status": "0x1",
      "cumulativeGasUsed": "0x18f026",
      "logs": [
        {
          "address": "0xf7f007dc8cb507e25e8b7dbda600c07fdcf9a75b",
          "topics": [
            "0xddf252ad1be2c89b69c2b068fc378daa952ba7f163c4a11628f55a4df523b3ef",
            "0x0000000000000000000000002cac89abf06dbe5d3a059517053b7144074e1ce5",
            "0x0000000000000000000000009b22c8b8371c54d9cfeba5386cb26103733be7e4"
          ],
          "data": "0x0000000000000000000000000000000000000000000000000000000000000000",
          "blockHash": "0x329f64ba4f27b10e3c8744eb8b3c094bb6cf9013ab1da206716106db265c19d5",
          "blockNumber": "0x13e0e24",
          "transactionHash": "0xad2f1015420367fb41f6814598cf1c03b4ef0e880e4f68c2cdebfa0c40b87056",
          "transactionIndex": "0x0",
          "logIndex": "0x0",
          "removed": false
        },
        {
          "address": "0xba90fddf9ac55d2be1a7be92058e2c54b80899ba",
          "topics": [
            "0xddf252ad1be2c89b69c2b068fc378daa952ba7f163c4a11628f55a4df523b3ef",
            "0x0000000000000000000000000000000000000000000000000000000000000000",
            "0x0000000000000000000000002cac89abf06dbe5d3a059517053b7144074e1ce5",
            "0x0000000000000000000000000000000000000000000000000000000000000001"
          ],
          "data": "0x",
          "blockHash": "0x329f64ba4f27b10e3c8744eb8b3c094bb6cf9013ab1da206716106db265c19d5",
          "blockNumber": "0x13e0e24",
          "transactionHash": "0xad2f1015420367fb41f6814598cf1c03b4ef0e880e4f68c2cdebfa0c40b87056",
          "transactionIndex": "0x0",
          "logIndex": "0x1",
          "removed": false
        },
        {
          "address": "0xba90fddf9ac55d2be1a7be92058e2c54b80899ba",
          "topics": [
            "0xf8e1a15aba9398e019f0b49df1a4fde98ee17ae345cb5f6b5e2c27f5033e8ce7"
          ],
          "data": "0x0000000000000000000000000000000000000000000000000000000000000001",
          "blockHash": "0x329f64ba4f27b10e3c8744eb8b3c094bb6cf9013ab1da206716106db265c19d5",
          "blockNumber": "0x13e0e24",
          "transactionHash": "0xad2f1015420367fb41f6814598cf1c03b4ef0e880e4f68c2cdebfa0c40b87056",
          "transactionIndex": "0x0",
          "logIndex": "0x2",
          "removed": false
        },
        {
          "address": "0xba90fddf9ac55d2be1a7be92058e2c54b80899ba",
          "topics": [
            "0x7bc684e6c46e8f9f9ece878eb1544e6e07b5dc4289148b08c888f525b27be3db",
            "0x0000000000000000000000000000000000000000000000000000000000000001",
            "0x0000000000000000000000000000000000000000000000000000000000000001",
            "0x0000000000000000000000002cac89abf06dbe5d3a059517053b7144074e1ce5"
          ],
          "data": "0x0000000000000000000000000000000000000000000000000000000000000000000000000000000000000000000000000000000000000000000000000000000000000000000000000000000000000000000000000000000000000000688bce47",
          "blockHash": "0x329f64ba4f27b10e3c8744eb8b3c094bb6cf9013ab1da206716106db265c19d5",
          "blockNumber": "0x13e0e24",
          "transactionHash": "0xad2f1015420367fb41f6814598cf1c03b4ef0e880e4f68c2cdebfa0c40b87056",
          "transactionIndex": "0x0",
          "logIndex": "0x3",
          "removed": false
        },
        {
          "address": "0x9b22c8b8371c54d9cfeba5386cb26103733be7e4",
          "topics": [
            "0xe57a70e7bd5ff15b67408de156d6b60b131f76a51ee875a24307fdd155643f24",
            "0x0000000000000000000000002cac89abf06dbe5d3a059517053b7144074e1ce5",
            "0x0000000000000000000000000000000000000000000000000000000000000001",
            "0x0000000000000000000000000000000000000000000000000000000000000000"
          ],
          "data": "0x0000000000000000000000000000000000000000000000000000000000000001000000000000000000000000000000000000000000000000000000000000000000000000000000000000000000000000000000000000000000000000000000c000000000000000000000000000000000000000000000000000000000688bce470000000000000000000000000000000000000000000000000000000000000000000000000000000000000000000000000000000000000000000000000000000100000000000000000000000000000000000000000000000000000000000000174561726c79204269726420526567697374726174696f6e000000000000000000",
          "blockHash": "0x329f64ba4f27b10e3c8744eb8b3c094bb6cf9013ab1da206716106db265c19d5",
          "blockNumber": "0x13e0e24",
          "transactionHash": "0xad2f1015420367fb41f6814598cf1c03b4ef0e880e4f68c2cdebfa0c40b87056",
          "transactionIndex": "0x0",
          "logIndex": "0x4",
          "removed": false
        }
      ],
      "logsBloom": "0x00000000001000000000000020000000000000000000000000000000000000000000000000000000000000000000000000000040000000000000000000440000000000000000000000000008000000008200000002040000000000000000000000000080020000000000000000000800000000000000000000000010000000000000000000000000000000000000000000000000000000000404000000000000000800000000000000000008000000002000200000000400010000000000008000000002000000800002000000000020020000000000200000000000000060000000000000000000200000000000000000000000000000000000200000000000",
      "type": "0x2",
      "transactionHash": "0xad2f1015420367fb41f6814598cf1c03b4ef0e880e4f68c2cdebfa0c40b87056",
      "transactionIndex": "0x0",
      "blockHash": "0x329f64ba4f27b10e3c8744eb8b3c094bb6cf9013ab1da206716106db265c19d5",
      "blockNumber": "0x13e0e24",
      "gasUsed": "0x18f026",
      "effectiveGasPrice": "0x3b9aca00",
      "from": "0x2cac89abf06dbe5d3a059517053b7144074e1ce5",
      "to": "0x9b22c8b8371c54d9cfeba5386cb26103733be7e4",
      "contractAddress": null
    },
    {
      "status": "0x1",
      "cumulativeGasUsed": "0x149194",
      "logs": [
        {
          "address": "0xba90fddf9ac55d2be1a7be92058e2c54b80899ba",
          "topics": [
            "0x8be613b4dc15de51545df38aaa743da56cbd4d107ee7a3c2764ddc43c2bca505",
            "0x0000000000000000000000000000000000000000000000000000000000000001",
            "0x0000000000000000000000000000000000000000000000000000000000000001",
            "0x0000000000000000000000009b22c8b8371c54d9cfeba5386cb26103733be7e4"
          ],
          "data": "0x00000000000000000000000000000000000000000000000000000000688bce48",
          "blockHash": "0xd0690e96cdfcf1df4377b02d1d3565044cb7f59c51618d2934f160e45df13e50",
          "blockNumber": "0x13e0e25",
          "transactionHash": "0x49f6ad8da2acc8330f3db6291c66e9274019c46b19336607d60ea01c8c0bffb2",
          "transactionIndex": "0x0",
          "logIndex": "0x0",
          "removed": false
        },
        {
          "address": "0x679fa9d4830238913213b8ae49dccdc95a43acfc",
          "topics": [
            "0xddf252ad1be2c89b69c2b068fc378daa952ba7f163c4a11628f55a4df523b3ef",
            "0x0000000000000000000000000000000000000000000000000000000000000000",
            "0x0000000000000000000000002cac89abf06dbe5d3a059517053b7144074e1ce5",
            "0x0000000000000000000000000000000000000000000000000000000000000001"
          ],
          "data": "0x",
          "blockHash": "0xd0690e96cdfcf1df4377b02d1d3565044cb7f59c51618d2934f160e45df13e50",
          "blockNumber": "0x13e0e25",
          "transactionHash": "0x49f6ad8da2acc8330f3db6291c66e9274019c46b19336607d60ea01c8c0bffb2",
          "transactionIndex": "0x0",
          "logIndex": "0x1",
          "removed": false
        },
        {
          "address": "0x679fa9d4830238913213b8ae49dccdc95a43acfc",
          "topics": [
            "0xf8e1a15aba9398e019f0b49df1a4fde98ee17ae345cb5f6b5e2c27f5033e8ce7"
          ],
          "data": "0x0000000000000000000000000000000000000000000000000000000000000001",
          "blockHash": "0xd0690e96cdfcf1df4377b02d1d3565044cb7f59c51618d2934f160e45df13e50",
          "blockNumber": "0x13e0e25",
          "transactionHash": "0x49f6ad8da2acc8330f3db6291c66e9274019c46b19336607d60ea01c8c0bffb2",
          "transactionIndex": "0x0",
          "logIndex": "0x2",
          "removed": false
        },
        {
          "address": "0x679fa9d4830238913213b8ae49dccdc95a43acfc",
          "topics": [
            "0x195a528771a60e4758f19cbdb765a122f5c4c1ee6c939f93b6e733b24e404cbc",
            "0x0000000000000000000000000000000000000000000000000000000000000001",
            "0x0000000000000000000000000000000000000000000000000000000000000001",
            "0x0000000000000000000000002cac89abf06dbe5d3a059517053b7144074e1ce5"
          ],
          "data": "0x000000000000000000000000000000000000000000000000000000000000004000000000000000000000000000000000000000000000000000000000688bce4800000000000000000000000000000000000000000000000000000000000001f1646174613a6170706c69636174696f6e2f6a736f6e3b6261736536342c7b226e616d65223a22504f4150202d2045746865726c696e6b20456e636f646520436c75622053756d6d6572206f6620436f64652032303235222c226465736372697074696f6e223a2250726f6f66206f6620417474656e64616e636520666f722045746865726c696e6b20456e636f646520436c75622053756d6d6572206f6620436f64652032303235202d204561726c79204269726420526567697374726174696f6e207469636b6574222c22696d616765223a2268747470733a2f2f697066732e696f2f697066732f516d504f4150496d616765222c2261747472696275746573223a5b7b2274726169745f74797065223a224576656e74222c2276616c7565223a2245746865726c696e6b20456e636f646520436c75622053756d6d6572206f6620436f64652032303235227d2c7b2274726169745f74797065223a225469636b65742054797065222c2276616c7565223a224561726c79204269726420526567697374726174696f6e227d2c7b2274726169745f74797065223a225469636b6574204944222c2276616c7565223a2231227d2c7b2274726169745f74797065223a224576656e74204c6f636174696f6e222c2276616c7565223a225669727475616c20284f6e6c696e6529227d5d7d000000000000000000000000000000",
          "blockHash": "0xd0690e96cdfcf1df4377b02d1d3565044cb7f59c51618d2934f160e45df13e50",
          "blockNumber": "0x13e0e25",
          "transactionHash": "0x49f6ad8da2acc8330f3db6291c66e9274019c46b19336607d60ea01c8c0bffb2",
          "transactionIndex": "0x0",
          "logIndex": "0x3",
          "removed": false
        },
        {
          "address": "0x9b22c8b8371c54d9cfeba5386cb26103733be7e4",
          "topics": [
            "0xe6c762b539c457743f94227289f320ccb6dc2241f3af7ef16d1d5e0ac6f664d6",
            "0x0000000000000000000000000000000000000000000000000000000000000001",
            "0x0000000000000000000000000000000000000000000000000000000000000001",
            "0x0000000000000000000000002cac89abf06dbe5d3a059517053b7144074e1ce5"
          ],
          "data": "0x00000000000000000000000000000000000000000000000000000000688bce48000000000000000000000000000000000000000000000000000000000000006000000000000000000000000000000000000000000000000000000000000000c0000000000000000000000000000000000000000000000000000000000000002945746865726c696e6b20456e636f646520436c75622053756d6d6572206f6620436f64652032303235000000000000000000000000000000000000000000000000000000000000000000000000000000000000000000000000000000000000174561726c79204269726420526567697374726174696f6e000000000000000000",
          "blockHash": "0xd0690e96cdfcf1df4377b02d1d3565044cb7f59c51618d2934f160e45df13e50",
          "blockNumber": "0x13e0e25",
          "transactionHash": "0x49f6ad8da2acc8330f3db6291c66e9274019c46b19336607d60ea01c8c0bffb2",
          "transactionIndex": "0x0",
          "logIndex": "0x4",
          "removed": false
        }
      ],
      "logsBloom": "0x00000000003000000000000020000000000000000000000000000000000000001000000000000000000000000000000000000040000000000000000000440000000000000000000000000008000000008000000000040000000000000000009000002080020000000000000000200800000000000000000000000010000000000000000100000000000000000000001000000000000000000004000000000000000000000000000000000008000000002008200000000400000000000000008000000002000000000000040000000000000000000000200000000000000060000000000010000000200000000000000100000000000000000000200000000000",
      "type": "0x2",
      "transactionHash": "0x49f6ad8da2acc8330f3db6291c66e9274019c46b19336607d60ea01c8c0bffb2",
      "transactionIndex": "0x0",
      "blockHash": "0xd0690e96cdfcf1df4377b02d1d3565044cb7f59c51618d2934f160e45df13e50",
      "blockNumber": "0x13e0e25",
      "gasUsed": "0x149194",
      "effectiveGasPrice": "0x3b9aca00",
      "from": "0x2cac89abf06dbe5d3a059517053b7144074e1ce5",
      "to": "0x9b22c8b8371c54d9cfeba5386cb26103733be7e4",
      "contractAddress": null
    }
  ],
  "libraries": [],
  "pending": [],
  "returns": {},
  "timestamp": 1753992776,
  "chain": 128123,
  "commit": "fb1eae7"
}