{
  "transactions": [
    {
      "hash": "0x3a130d5ea03e3b0d403705d5f28bbe85358b32bbe2efae98153ad9fd05d8da83",
      "transactionType": "CALL",
      "contractName": null,
      "contractAddress": "0xa0eea7b0e1f2df06698b006204ff3701d0de42c4",
      "function": "purchaseTicket(uint256)",
      "arguments": [
        "0"
      ],
      "transaction": {
        "from": "0x2cac89abf06dbe5d3a059517053b7144074e1ce5",
        "to": "0xa0eea7b0e1f2df06698b006204ff3701d0de42c4",
        "gas": "0x1fc803",
        "value": "0x0",
        "input": "0xb948348c0000000000000000000000000000000000000000000000000000000000000000",
        "nonce": "0x9f",
        "chainId": "0x1f47b"
      },
      "additionalContracts": [],
      "isFixedGasLimit": false
    },
    {
      "hash": "0xa5c4e5bdf4c70574e9b6b049d5802bb319bdc9d7b5cd5e5ff10ad9919c55ca6e",
      "transactionType": "CALL",
      "contractName": null,
      "contractAddress": "0xa0eea7b0e1f2df06698b006204ff3701d0de42c4",
      "function": "useTicket(uint256)",
      "arguments": [
        "3"
      ],
      "transaction": {
        "from": "0x2cac89abf06dbe5d3a059517053b7144074e1ce5",
        "to": "0xa0eea7b0e1f2df06698b006204ff3701d0de42c4",
        "gas": "0xc5e8e",
        "value": "0x0",
        "input": "0x266064480000000000000000000000000000000000000000000000000000000000000003",
        "nonce": "0xa0",
        "chainId": "0x1f47b"
      },
      "additionalContracts": [],
      "isFixedGasLimit": false
    }
  ],
  "receipts": [
    {
      "status": "0x1",
      "cumulativeGasUsed": "0x1827c2",
      "logs": [
        {
          "address": "0xf7f007dc8cb507e25e8b7dbda600c07fdcf9a75b",
          "topics": [
            "0xddf252ad1be2c89b69c2b068fc378daa952ba7f163c4a11628f55a4df523b3ef",
            "0x0000000000000000000000002cac89abf06dbe5d3a059517053b7144074e1ce5",
            "0x000000000000000000000000a0eea7b0e1f2df06698b006204ff3701d0de42c4"
          ],
          "data": "0x0000000000000000000000000000000000000000000000000000000000000000",
          "blockHash": "0x873659a29439669f6478a85468aa53648d533d2313440b506c8d8fcdb4967f80",
          "blockNumber": "0x13e0d69",
          "transactionHash": "0x3a130d5ea03e3b0d403705d5f28bbe85358b32bbe2efae98153ad9fd05d8da83",
          "transactionIndex": "0x0",
          "logIndex": "0x0",
          "removed": false
        },
        {
          "address": "0x6257d4a94d8ec27ee92a95c760585ae5d6188a85",
          "topics": [
            "0xddf252ad1be2c89b69c2b068fc378daa952ba7f163c4a11628f55a4df523b3ef",
            "0x0000000000000000000000000000000000000000000000000000000000000000",
            "0x0000000000000000000000002cac89abf06dbe5d3a059517053b7144074e1ce5",
            "0x0000000000000000000000000000000000000000000000000000000000000003"
          ],
          "data": "0x",
          "blockHash": "0x873659a29439669f6478a85468aa53648d533d2313440b506c8d8fcdb4967f80",
          "blockNumber": "0x13e0d69",
          "transactionHash": "0x3a130d5ea03e3b0d403705d5f28bbe85358b32bbe2efae98153ad9fd05d8da83",
          "transactionIndex": "0x0",
          "logIndex": "0x1",
          "removed": false
        },
        {
          "address": "0x6257d4a94d8ec27ee92a95c760585ae5d6188a85",
          "topics": [
            "0xf8e1a15aba9398e019f0b49df1a4fde98ee17ae345cb5f6b5e2c27f5033e8ce7"
          ],
          "data": "0x0000000000000000000000000000000000000000000000000000000000000003",
          "blockHash": "0x873659a29439669f6478a85468aa53648d533d2313440b506c8d8fcdb4967f80",
          "blockNumber": "0x13e0d69",
          "transactionHash": "0x3a130d5ea03e3b0d403705d5f28bbe85358b32bbe2efae98153ad9fd05d8da83",
          "transactionIndex": "0x0",
          "logIndex": "0x2",
          "removed": false
        },
        {
          "address": "0x6257d4a94d8ec27ee92a95c760585ae5d6188a85",
          "topics": [
            "0x7bc684e6c46e8f9f9ece878eb1544e6e07b5dc4289148b08c888f525b27be3db",
            "0x0000000000000000000000000000000000000000000000000000000000000003",
            "0x0000000000000000000000000000000000000000000000000000000000000001",
            "0x0000000000000000000000002cac89abf06dbe5d3a059517053b7144074e1ce5"
          ],
          "data": "0x0000000000000000000000000000000000000000000000000000000000000000000000000000000000000000000000000000000000000000000000000000000000000000000000000000000000000000000000000000000000000000688bcb01",
          "blockHash": "0x873659a29439669f6478a85468aa53648d533d2313440b506c8d8fcdb4967f80",
          "blockNumber": "0x13e0d69",
          "transactionHash": "0x3a130d5ea03e3b0d403705d5f28bbe85358b32bbe2efae98153ad9fd05d8da83",
          "transactionIndex": "0x0",
          "logIndex": "0x3",
          "removed": false
        },
        {
          "address": "0xa0eea7b0e1f2df06698b006204ff3701d0de42c4",
          "topics": [
            "0xe57a70e7bd5ff15b67408de156d6b60b131f76a51ee875a24307fdd155643f24",
            "0x0000000000000000000000002cac89abf06dbe5d3a059517053b7144074e1ce5",
            "0x0000000000000000000000000000000000000000000000000000000000000001",
            "0x0000000000000000000000000000000000000000000000000000000000000000"
          ],
          "data": "0x0000000000000000000000000000000000000000000000000000000000000003000000000000000000000000000000000000000000000000000000000000000000000000000000000000000000000000000000000000000000000000000000c000000000000000000000000000000000000000000000000000000000688bcb010000000000000000000000000000000000000000000000000000000000000000000000000000000000000000000000000000000000000000000000000000000300000000000000000000000000000000000000000000000000000000000000174561726c79204269726420526567697374726174696f6e000000000000000000",
          "blockHash": "0x873659a29439669f6478a85468aa53648d533d2313440b506c8d8fcdb4967f80",
          "blockNumber": "0x13e0d69",
          "transactionHash": "0x3a130d5ea03e3b0d403705d5f28bbe85358b32bbe2efae98153ad9fd05d8da83",
          "transactionIndex": "0x0",
          "logIndex": "0x4",
          "removed": false
        }
      ],
      "logsBloom": "0x00080000000000000000000000000000000000000000000000000000000000000000000000000000000040000000000100000000020000000000000000440080000000000200000000000008000000000200000002040010000000000000000000040080020000000000000000000800000000000000000000000010000000000000000000000000000000000000000000000000000000000404000000000000000800000000000000000000000000002000000000800000010000000000408000000002000000800002000000000020020000000000000000000000000060000000000000000000200000000000000000000000000000020000000000000000",
      "type": "0x2",
      "transactionHash": "0x3a130d5ea03e3b0d403705d5f28bbe85358b32bbe2efae98153ad9fd05d8da83",
      "transactionIndex": "0x0",
      "blockHash": "0x873659a29439669f6478a85468aa53648d533d2313440b506c8d8fcdb4967f80",
      "blockNumber": "0x13e0d69",
      "gasUsed": "0x1827c2",
      "effectiveGasPrice": "0x3b9aca00",
      "from": "0x2cac89abf06dbe5d3a059517053b7144074e1ce5",
      "to": "0xa0eea7b0e1f2df06698b006204ff3701d0de42c4",
      "contractAddress": null
    },
    {
      "status": "0x1",
      "cumulativeGasUsed": "0x144ec8",
      "logs": [
        {
          "address": "0x6257d4a94d8ec27ee92a95c760585ae5d6188a85",
          "topics": [
            "0x8be613b4dc15de51545df38aaa743da56cbd4d107ee7a3c2764ddc43c2bca505",
            "0x0000000000000000000000000000000000000000000000000000000000000003",
            "0x0000000000000000000000000000000000000000000000000000000000000001",
            "0x000000000000000000000000a0eea7b0e1f2df06698b006204ff3701d0de42c4"
          ],
          "data": "0x00000000000000000000000000000000000000000000000000000000688bcb02",
          "blockHash": "0x093a6525c4f52c75a339a57f0a0846dedc5475b420d84503b8eba8d78e9c108d",
          "blockNumber": "0x13e0d6a",
          "transactionHash": "0xa5c4e5bdf4c70574e9b6b049d5802bb319bdc9d7b5cd5e5ff10ad9919c55ca6e",
          "transactionIndex": "0x0",
          "logIndex": "0x0",
          "removed": false
        },
        {
          "address": "0xa4755d7640a7a52448f6669734efe799df05891f",
          "topics": [
            "0xddf252ad1be2c89b69c2b068fc378daa952ba7f163c4a11628f55a4df523b3ef",
            "0x0000000000000000000000000000000000000000000000000000000000000000",
            "0x0000000000000000000000002cac89abf06dbe5d3a059517053b7144074e1ce5",
            "0x0000000000000000000000000000000000000000000000000000000000000002"
          ],
          "data": "0x",
          "blockHash": "0x093a6525c4f52c75a339a57f0a0846dedc5475b420d84503b8eba8d78e9c108d",
          "blockNumber": "0x13e0d6a",
          "transactionHash": "0xa5c4e5bdf4c70574e9b6b049d5802bb319bdc9d7b5cd5e5ff10ad9919c55ca6e",
          "transactionIndex": "0x0",
          "logIndex": "0x1",
          "removed": false
        },
        {
          "address": "0xa4755d7640a7a52448f6669734efe799df05891f",
          "topics": [
            "0xf8e1a15aba9398e019f0b49df1a4fde98ee17ae345cb5f6b5e2c27f5033e8ce7"
          ],
          "data": "0x0000000000000000000000000000000000000000000000000000000000000002",
          "blockHash": "0x093a6525c4f52c75a339a57f0a0846dedc5475b420d84503b8eba8d78e9c108d",
          "blockNumber": "0x13e0d6a",
          "transactionHash": "0xa5c4e5bdf4c70574e9b6b049d5802bb319bdc9d7b5cd5e5ff10ad9919c55ca6e",
          "transactionIndex": "0x0",
          "logIndex": "0x2",
          "removed": false
        },
        {
          "address": "0xa4755d7640a7a52448f6669734efe799df05891f",
          "topics": [
            "0x195a528771a60e4758f19cbdb765a122f5c4c1ee6c939f93b6e733b24e404cbc",
            "0x0000000000000000000000000000000000000000000000000000000000000002",
            "0x0000000000000000000000000000000000000000000000000000000000000001",
            "0x0000000000000000000000002cac89abf06dbe5d3a059517053b7144074e1ce5"
          ],
          "data": "0x000000000000000000000000000000000000000000000000000000000000004000000000000000000000000000000000000000000000000000000000688bcb0200000000000000000000000000000000000000000000000000000000000001f1646174613a6170706c69636174696f6e2f6a736f6e3b6261736536342c7b226e616d65223a22504f4150202d2045746865726c696e6b20456e636f646520436c75622053756d6d6572206f6620436f64652032303235222c226465736372697074696f6e223a2250726f6f66206f6620417474656e64616e636520666f722045746865726c696e6b20456e636f646520436c75622053756d6d6572206f6620436f64652032303235202d204561726c79204269726420526567697374726174696f6e207469636b6574222c22696d616765223a2268747470733a2f2f697066732e696f2f697066732f516d504f4150496d616765222c2261747472696275746573223a5b7b2274726169745f74797065223a224576656e74222c2276616c7565223a2245746865726c696e6b20456e636f646520436c75622053756d6d6572206f6620436f64652032303235227d2c7b2274726169745f74797065223a225469636b65742054797065222c2276616c7565223a224561726c79204269726420526567697374726174696f6e227d2c7b2274726169745f74797065223a225469636b6574204944222c2276616c7565223a2233227d2c7b2274726169745f74797065223a224576656e74204c6f636174696f6e222c2276616c7565223a225669727475616c20284f6e6c696e6529227d5d7d000000000000000000000000000000",
          "blockHash": "0x093a6525c4f52c75a339a57f0a0846dedc5475b420d84503b8eba8d78e9c108d",
          "blockNumber": "0x13e0d6a",
          "transactionHash": "0xa5c4e5bdf4c70574e9b6b049d5802bb319bdc9d7b5cd5e5ff10ad9919c55ca6e",
          "transactionIndex": "0x0",
          "logIndex": "0x3",
          "removed": false
        },
        {
          "address": "0xa0eea7b0e1f2df06698b006204ff3701d0de42c4",
          "topics": [
            "0xe6c762b539c457743f94227289f320ccb6dc2241f3af7ef16d1d5e0ac6f664d6",
            "0x0000000000000000000000000000000000000000000000000000000000000003",
            "0x0000000000000000000000000000000000000000000000000000000000000001",
            "0x0000000000000000000000002cac89abf06dbe5d3a059517053b7144074e1ce5"
          ],
          "data": "0x00000000000000000000000000000000000000000000000000000000688bcb02000000000000000000000000000000000000000000000000000000000000006000000000000000000000000000000000000000000000000000000000000000c0000000000000000000000000000000000000000000000000000000000000002945746865726c696e6b20456e636f646520436c75622053756d6d6572206f6620436f64652032303235000000000000000000000000000000000000000000000000000000000000000000000000000000000000000000000000000000000000174561726c79204269726420526567697374726174696f6e000000000000000000",
          "blockHash": "0x093a6525c4f52c75a339a57f0a0846dedc5475b420d84503b8eba8d78e9c108d",
          "blockNumber": "0x13e0d6a",
          "transactionHash": "0xa5c4e5bdf4c70574e9b6b049d5802bb319bdc9d7b5cd5e5ff10ad9919c55ca6e",
          "transactionIndex": "0x0",
          "logIndex": "0x4",
          "removed": false
        }
      ],
      "logsBloom": "0x04080000002000000000000000000000000000000000000000000000000000001000000000000000000840000000800100000000020000000000000000440080000000000200000000000008000000000200000000040010000000000000008000042080020000000000000000200800000000000000000000000010000000000000000100000000000000000000000000000000000000000004000000000000000000000000000000000100000000002008000000800000000200000000408000000002000000000000040000000000000000000000000000000000000060000000000010000000200000000000000000000000008000020000000000000000",
      "type": "0x2",
      "transactionHash": "0xa5c4e5bdf4c70574e9b6b049d5802bb319bdc9d7b5cd5e5ff10ad9919c55ca6e",
      "transactionIndex": "0x0",
      "blockHash": "0x093a6525c4f52c75a339a57f0a0846dedc5475b420d84503b8eba8d78e9c108d",
      "blockNumber": "0x13e0d6a",
      "gasUsed": "0x144ec8",
      "effectiveGasPrice": "0x3b9aca00",
      "from": "0x2cac89abf06dbe5d3a059517053b7144074e1ce5",
      "to": "0xa0eea7b0e1f2df06698b006204ff3701d0de42c4",
      "contractAddress": null
    }
  ],
  "libraries": [],
  "pending": [],
  "returns": {},
  "timestamp": 1753991939,
  "chain": 128123,
  "commit": "fb1eae7"
}