{
  "transactions": [
    {
      "hash": "0xb89736377dde42d558daefccd8f4325ad8f214449d9eb98f896088d442579d40",
      "transactionType": "CALL",
      "contractName": null,
      "contractAddress": "0x3b082f6ea285761f862608f28ff420a8592201cd",
      "function": "createEvent(string,string,uint256,uint256,string,string[],uint256[],uint256[],address)",
      "arguments": [
        "Etherlink Developer Summit 2024",
        "Join us for the most exciting blockchain developer summit on Etherlink! Learn about the latest in DeFi, NFTs, and smart contract development. Network with industry experts and discover new opportunities in the blockchain space.",
        "1753814032",
        "1753821232",
        "Etherlink Innovation Center",
        "[General Admission, VIP]",
        "[50000, 150000]",
        "[20, 10]",
        "0x39a450990A9A778172201f1CFC0e205E5D0B15d4"
      ],
      "transaction": {
        "from": "0x2cac89abf06dbe5d3a059517053b7144074e1ce5",
        "to": "0x3b082f6ea285761f862608f28ff420a8592201cd",
        "gas": "0xa80178",
        "value": "0x0",
        "input": "0xd2d0f0790000000000000000000000000000000000000000000000000000000000000120000000000000000000000000000000000000000000000000000000000000016000000000000000000000000000000000000000000000000000000000688914100000000000000000000000000000000000000000000000000000000068893030000000000000000000000000000000000000000000000000000000000000028000000000000000000000000000000000000000000000000000000000000002c000000000000000000000000000000000000000000000000000000000000003a0000000000000000000000000000000000000000000000000000000000000040000000000000000000000000039a450990a9a778172201f1cfc0e205e5d0b15d4000000000000000000000000000000000000000000000000000000000000001f45746865726c696e6b20446576656c6f7065722053756d6d697420323032340000000000000000000000000000000000000000000000000000000000000000e34a6f696e20757320666f7220746865206d6f7374206578636974696e6720626c6f636b636861696e20646576656c6f7065722073756d6d6974206f6e2045746865726c696e6b21204c6561726e2061626f757420746865206c617465737420696e20446546692c204e4654732c20616e6420736d61727420636f6e747261637420646576656c6f706d656e742e204e6574776f726b207769746820696e647573747279206578706572747320616e6420646973636f766572206e6577206f70706f7274756e697469657320696e2074686520626c6f636b636861696e2073706163652e0000000000000000000000000000000000000000000000000000000000000000000000000000000000000000000000000000000000000000000000001b45746865726c696e6b20496e6e6f766174696f6e2043656e7465720000000000000000000000000000000000000000000000000000000000000000000000000200000000000000000000000000000000000000000000000000000000000000400000000000000000000000000000000000000000000000000000000000000080000000000000000000000000000000000000000000000000000000000000001147656e6572616c2041646d697373696f6e000000000000000000000000000000000000000000000000000000000000000000000000000000000000000000000356495000000000000000000000000000000000000000000000000000000000000000000000000000000000000000000000000000000000000000000000000002000000000000000000000000000000000000000000000000000000000000c35000000000000000000000000000000000000000000000000000000000000249f000000000000000000000000000000000000000000000000000000000000000020000000000000000000000000000000000000000000000000000000000000014000000000000000000000000000000000000000000000000000000000000000a",
        "nonce": "0x8e",
        "chainId": "0x1f47b"
      },
      "additionalContracts": [
        {
          "transactionType": "CREATE",
          "address": "0x3bc275e3a18f1bf373375cd2abb90ae0a9c2a7bd",
          "initCode": "0x604060a081523462000a5557620034eb803803806200001e8162000a8a565b92833981016101808282031262000a555781516001600160401b03811162000a5557816200004e91840162000ad3565b60805260208201516001600160401b03811162000a5557816200007391840162000ad3565b8383015160608401516080850151929490926001600160401b03811162000a555784620000a291830162000ad3565b60a08201519091906001600160401b03811162000a555781019085601f8301121562000a5557815190620000e0620000da8362000b2a565b62000a8a565b8281529260208085019360051b820101908389831162000a555760208201905b83821062000a59575050505060c08101516001600160401b03811162000a5557876200012e91830162000b42565b60e082015190976001600160401b03821162000a55576200015191830162000b42565b62000160610100830162000b9f565b9062000170610120840162000b9f565b986200018f61016062000187610140870162000b9f565b950162000b9f565b946001600160a01b038b161562000a3e575f80546001600160a01b038d81166001600160a01b0319831681178455929116907f8be0079c531659141344cd1fd0a4f28419497f9722a3daafe3b4186f6b6457e09080a360018055608051516001600160401b03811162000594576200020960035462000bb4565b601f8111620009ec575b50806020601f82116001146200097b575f916200096d575b508160011b915f199060031b1c1916176003555b8b516001600160401b03811162000594576200025d60045462000bb4565b601f81116200091b575b50806020601f821160011462000891575f9162000885575b508160011b915f199060031b1c1916176004555b600589905560068a905587516001600160401b0381116200059457620002bb60075462000bb4565b601f811162000845575b50806020601f8211600114620007ce575f91620007c2575b508160011b915f199060031b1c1916176007555b8651906801000000000000000082116200059457600954826009558083106200073a575b5060095f9081525f80516020620034cb83398151915292915b828210620006105750508251929150506001600160401b03821162000594576801000000000000000082116200059457602090600a5483600a55808410620005f1575b5001600a5f5260205f205f5b838110620005dc5750508251929150506001600160401b03821162000594576801000000000000000082116200059457602090600b5483600b55808410620005bd575b5001600b5f5260205f205f5b838110620005a8575050600d80546001600160a01b03199081166001600160a01b0395861617909155600e805482168c8616179055600f80549091169484169490941790935550601080546001600160a81b0319169390911692909217600160a01b1790915550516200045162000447620000da8362000b2a565b9180835262000b2a565b602082019190601f190136833751906001600160401b03821162000594576801000000000000000082116200059457600c5482600c5580831062000557575b50600c5f5260205f205f5b8381106200054257505050507f0ce7a912f1d2fdb215639a4613bef663b1331aeb9d753245e598176f6dad3ee691620005159160115494620004fd89519860e08a52620004ee60e08b0160805162000c07565b908a820360208c015262000c07565b92898901526060880152868203608088015262000c07565b5f60a08601524260c08601526001600160a01b0390931693309381900390a45161287c908162000c2f8239f35b6001906020845194019381840155016200049b565b600c5f526200058d907fdf6966c971051c3d54ec59162606531493a51404a002842f56009d7e5cf4a8c790810190840162000bef565b5f62000490565b634e487b7160e01b5f52604160045260245ffd5b600190602084519401938184015501620003cc565b620005d590600b5f5284845f20918201910162000bef565b5f620003c0565b6001906020845194019381840155016200037d565b6200060990600a5f5284845f20918201910162000bef565b5f62000371565b80518051906001600160401b038211620005945762000630865462000bb4565b601f8111620006fa575b50602090601f8311600114620006895792826001949360209386955f926200067d575b50505f19600383901b1c191690841b1787555b019401910190926200032e565b015190505f806200065d565b90865f5260205f20915f5b601f1985168110620006e1575083602093600196938796938794601f19811610620006c8575b505050811b01875562000670565b01515f1960f88460031b161c191690555f8080620006ba565b9192602060018192868501518155019401920162000694565b6200072890875f5260205f20601f850160051c810191602086106200072f575b601f0160051c019062000bef565b5f6200063a565b90915081906200071a565b60095f525f80516020620034cb833981519152908382015b81830181106200076457505062000315565b80620007736001925462000bb4565b8062000782575b500162000752565b601f811183146200079957505f81555b5f6200077a565b5f90828252620007b8601f60208420920160051c820185830162000bef565b8183555562000792565b90508901515f620002dd565b60075f90815292505f80516020620034ab833981519152905b8b601f19841685106200082d57506001935082601f1981161062000814575b5050811b01600755620002f1565b8b01515f1960f88460031b161c191690555f8062000806565b810151825560209384019360019092019101620007e7565b60075f526200087e905f80516020620034ab833981519152601f840160051c810191602085106200072f57601f0160051c019062000bef565b5f620002c5565b90508d01515f6200027f565b60045f90815292507f8a35acfbc15ff81a39ae7d344fd709f28e8600b4aa8c65c6b64bfe7fe36bd19b908f5b601f198416851062000902576001945083601f19811610620008e9575b505050811b0160045562000293565b01515f1960f88460031b161c191690555f808f620008da565b8101518255602093840193600190920191018f620008bd565b60045f5262000966907f8a35acfbc15ff81a39ae7d344fd709f28e8600b4aa8c65c6b64bfe7fe36bd19b601f840160051c810191602085106200072f57601f0160051c019062000bef565b5f62000267565b905060805101515f6200022b565b915060035f5260205f205f926080515b601f1984168510620009d0576001945083601f19811610620009b7575b505050811b016003556200023f565b01515f1960f88460031b161c191690555f8080620009a8565b818101518355602094850194600190930192909101906200098b565b60035f5262000a37907fc2575a0e9e593c00f959f8c92f12db2869c3395a3b0502d05e2516446f71f85b601f840160051c810191602085106200072f57601f0160051c019062000bef565b5f62000213565b8c51631e4fbdf760e01b81525f6004820152602490fd5b5f80fd5b81516001600160401b03811162000a555760209162000a7e8d84809488010162000ad3565b81520191019062000100565b6040519190601f01601f191682016001600160401b038111838210176200059457604052565b5f5b83811062000ac25750505f910152565b818101518382015260200162000ab2565b81601f8201121562000a555780516001600160401b038111620005945762000b05601f8201601f191660200162000a8a565b928184526020828401011162000a555762000b27916020808501910162000ab0565b90565b6001600160401b038111620005945760051b60200190565b9080601f8301121562000a555781519062000b61620000da8362000b2a565b9182938184526020808095019260051b82010192831162000a55578301905b82821062000b8f575050505090565b8151815290830190830162000b80565b51906001600160a01b038216820362000a5557565b90600182811c9216801562000be4575b602083101462000bd057565b634e487b7160e01b5f52602260045260245ffd5b91607f169162000bc4565b81811062000bfb575050565b5f815560010162000bef565b9060209162000c228151809281855285808601910162000ab0565b601f01601f191601019056fe608080604052600436101561006d575b50361561001a575f80fd5b60405162461bcd60e51b815260206004820152602560248201527f5573652070757263686173655469636b65742066756e6374696f6e2077697468604482015264081554d11560da1b6064820152608490fd5b5f90813560e01c9081630484a22f14611f5e5750806306fdde0314611f42578063089cdd0c14611f24578063163e0f4614611e5f57806316ce2ced14611e3457806322f3e2d414611e0e57806324600fc314611c4a57806326606448146114c25780632cd1d35c14610dc95780633197cbb6146114a45780633f4ba83a146113fd578063516f279e146113e1578063541b0efb14610ec65780635c975abb14610ea35780636115092314610e7a5780636120326514610e51578063715018a614610df857806371efdc2114610dc95780637284e41614610dad57806378e9792514610d8f5780638456cb5914610cc45780638da5cb5b14610c9d5780638ec8c59514610c3f578063a31aa84b14610c21578063b75b25ec14610b4c578063b948348c14610485578063cf2c03341461043d578063d56d229d14610414578063d9f103cc146103eb578063e44d311b146103c0578063e9dbebce14610359578063f2fde38b146102cc578063fa37d671146102935763fb6c95370361000f5734610290578060031936011261029057600e546001600160a01b031661021233821461259f565b61021f60055442106124af565b60ff60a01b19601054166010556011547f9e89d1cf72a294b6af0df731fd8a586dc96757c911dce0abedcd133ee2f69f0e608060405142815260406020820152601c60408201527f4576656e742063616e63656c6c6564206279206f7267616e697a6572000000006060820152a380f35b80fd5b50346102905760203660031901126102905760043590600b548210156102905760206102be836123a3565b90546040519160031b1c8152f35b5034610290576020366003190112610290576102e661200b565b6102ee612484565b6001600160a01b03908116908115610340575f54826bffffffffffffffffffffffff60a01b8216175f55167f8be0079c531659141344cd1fd0a4f28419497f9722a3daafe3b4186f6b6457e05f80a380f35b604051631e4fbdf760e01b815260048101849052602490fd5b5034610290576020366003190112610290576004356009548110156103bc5761038190612325565b6103a9576103916103a591612240565b604051918291602083526020830190612300565b0390f35b634e487b7160e01b5f525f60045260245ffd5b5080fd5b50346102905760203660031901126102905760043590600a548210156102905760206102be8361236e565b50346102905780600319360112610290576010546040516001600160a01b039091168152602090f35b5034610290578060031936011261029057600d546040516001600160a01b039091168152602090f35b50346102905760403660031901126102905761045761200b565b6001600160a01b03168152601260205260408120805460243592908310156102905760206102be848461240d565b503461029057602036600319011261029057600260015414610b3a5760026001556104ae61256d565b60ff60105460a01c1615610aff576009546004351015610ac4576104d36004356123a3565b90549060031b1c158015610a99575b15610a5d576104f460055442106124af565b6104ff60043561236e565b90549060031b1c9080602060018060a01b03600f54166064604051809481936323b872dd60e01b83523360048401523060248401528860448401525af18015610a52578290610a17575b6105539150612508565b6105866105616004356123d8565b61057082548260031b1c61254b565b82545f1960039390931b92831b1916911b179055565b61059160085461254b565b60085561059f600435612325565b50916105ac600435612325565b50926105c86105bc60043561236e565b90549060031b1c6126f0565b604051683d913730b6b2911d1160b91b6020820152916106009060036105f0602986016125f8565b6201016960ed1b81520190612671565b61088b60f21b81526e113232b9b1b934b83a34b7b7111d1160891b60028201526004545f96919061063081612021565b90600181169081156109f457506001146109ac575b5050602b8360209493610759936106f36106aa602f6107f69b9c61088b60f21b81526d2261747472696275746573223a5b60901b60028201527f7b2274726169745f74797065223a224576656e74222c2276616c7565223a22006010820152016125f8565b62089f4b60ea1b8082527f7b2274726169745f74797065223a225469636b65742054797065222c2276616c6003830152643ab2911d1160d91b6023830152929060280190612671565b9081527f7b2274726169745f74797065223a225072696365222c2276616c7565223a2200600382015261072f82518093896022850191016122df565b01662055534454227d60c81b6022820152615d7d60f01b602982015203600b810184520182612059565b6107aa603d60405180937f646174613a6170706c69636174696f6e2f6a736f6e3b6261736536342c0000008683015261079a815180928886860191016122df565b810103601d810184520182612059565b60018060a01b03600d54166011548660405180978195829463575854f760e11b84526004840152600435602484015288604484015233606484015260a0608484015260a4830190612300565b03925af19182156109a1578392610969575b50338352601260205260408320805490680100000000000000008210156109555761083d82859260016108559501815561240d565b90919082549060031b91821b915f19901b1916179055565b60115490610864600435612325565b50906108716004356123d8565b90549060031b1c90604051948552602085015260c060408501525f9180549061089982612021565b918260c08801526001811690815f1461093557506001146108fa575b505042606085015284608085015260a08401527fe57a70e7bd5ff15b67408de156d6b60b131f76a51ee875a24307fdd155643f24600435938033930390a46001805580f35b909192505f5260205f205f905b82821061091e575060e09150840101905f806108b5565b6001816020925460e0858a01015201910190610907565b91505060e092935060ff191682860152151560051b840101905f806108b5565b634e487b7160e01b85526041600452602485fd5b9091506020813d602011610999575b8161098560209383612059565b810103126109955751905f610808565b5f80fd5b3d9150610978565b6040513d85823e3d90fd5b90965060045f525f805160206128278339815191525f905b8282106109dd5750509590950160110194602b83610645565b600181602092546011858d010152019101906109c4565b60ff1916601184810191909152821515909202909201019650602b905083610645565b506020813d602011610a4a575b81610a3160209383612059565b810103126103bc57610a45610553916124fb565b610549565b3d9150610a24565b6040513d84823e3d90fd5b60405162461bcd60e51b8152602060048201526014602482015273151a58dad95d081d1e5c19481cdbdb19081bdd5d60621b6044820152606490fd5b50610aa56004356123d8565b90549060031b1c610ab76004356123a3565b90549060031b1c116104e2565b60405162461bcd60e51b8152602060048201526013602482015272496e76616c6964207469636b6574207479706560681b6044820152606490fd5b60405162461bcd60e51b81526020600482015260136024820152724576656e74206973206e6f742061637469766560681b6044820152606490fd5b604051633ee5aeb560e01b8152600490fd5b50346102905780600319360112610290576005546006544211829083600b545b808210610ba0575b50506080935060ff60105460a01c16926040519315158452421015602084015260408301526060820152f35b909192610bac836123a3565b9054600391821b1c610bca5750505050608092505f19905f80610b74565b610bf490610bd98596956123a3565b905490821b1c90610be9876123d8565b9054911b1c906125eb565b8101809111610c0d57610c07909361254b565b90610b6c565b634e487b7160e01b86526011600452602486fd5b50346102905780600319360112610290576020600854604051908152f35b503461029057602036600319011261029057601154610c615760043560115580f35b60405162461bcd60e51b8152602060048201526014602482015273115d995b9d08125108185b1c9958591e481cd95d60621b6044820152606490fd5b5034610290578060031936011261029057546040516001600160a01b039091168152602090f35b5034610290578060031936011261029057600e546001600160a01b0316610cec33821461259f565b610cf461256d565b600160ff1960025416176002557f62e78cea01bee320cd4e420270b5ea74000d11b0c9f74754ebdbfc544b05a2586020604051338152a16011547fe68031f4d167d2f8d029110c4db0b632b1cf23fc596408d2ce79f73678c8b9f6608060405142815260406020820152601960408201527f4576656e7420706175736564206279206f7267616e697a6572000000000000006060820152a380f35b50346102905780600319360112610290576020600554604051908152f35b50346102905780600319360112610290576103a56103916121bc565b50346102905760203660031901126102905760ff60406020926004358152601384522054166040519015158152f35b5034610290578060031936011261029057610e11612484565b5f80546001600160a01b0319811682556001600160a01b03167f8be0079c531659141344cd1fd0a4f28419497f9722a3daafe3b4186f6b6457e08280a380f35b5034610290578060031936011261029057600e546040516001600160a01b039091168152602090f35b5034610290578060031936011261029057600f546040516001600160a01b039091168152602090f35b5034610290578060031936011261029057602060ff600254166040519015158152f35b50346102905760603660031901126102905760043567ffffffffffffffff81116103bc57610ef890369060040161243e565b60243567ffffffffffffffff81116113dd57610f1890369060040161243e565b60443567ffffffffffffffff81116113d957610f3890369060040161243e565b610f4d60018060a01b03600e5416331461259f565b610f5a60055442106124af565b610f6261208f565b90610f6b6121bc565b92610f74612138565b90855167ffffffffffffffff811161120b57610f91600354612021565b601f8111611375575b50806020601f82116001146113065789916112fb575b508160011b915f199060031b1c1916176003555b805167ffffffffffffffff811161120b57610fe0600454612021565b601f8111611297575b50806020601f821160011461122a57899161121f575b508160011b915f199060031b1c1916176004555b825167ffffffffffffffff811161120b5761102f600754612021565b601f81116111bb575b50602088601f831160011461111d57936110ea61110694846110c098956110f8957f069f82d01b7699477b22a2bb39e32ab40dbf33545f13c04db6a31ee9fb142d3d9b9991611112575b508160011b915f199060031b1c1916176007555b6110dc6011549a6110ce60018060a01b03600e54169d6040519b8c9b60e08d5260e08d0190612300565b908b820360208d0152612300565b9089820360408b0152612300565b908782036060890152612300565b908582036080870152612300565b9083820360a0850152612300565b4260c08301520390a380f35b90508601515f611082565b50600789525f8051602061280783398151915290601f1983168a5b8181106111a35750611106946001856110f8957f069f82d01b7699477b22a2bb39e32ab40dbf33545f13c04db6a31ee9fb142d3d9b99956110c09b986110ea961061118b575b5050811b01600755611096565b8801515f1960f88460031b161c191690555f8061117e565b9192602060018192868b015181550194019201611138565b600789525f80516020612807833981519152601f830160051c81019160208410611201575b601f0160051c01905b8181106111f65750611038565b5f81556001016111e9565b90915081906111e0565b634e487b7160e01b88526041600452602488fd5b90508201515f610fff565b60048a525f805160206128278339815191529150601f1983168a5b81811061127f57509083600194939210611267575b5050811b01600455611013565b8401515f1960f88460031b161c191690555f8061125a565b91926020600181928689015181550194019201611245565b60048952601f820160051c5f8051602061282783398151915201602083106112e7575b601f820160051c5f805160206128278339815191520181106112dc5750610fe9565b5f81556001016112ba565b505f805160206128278339815191526112ba565b90508701515f610fb0565b9150600389525f805160206127e783398151915289925b601f198316841061135d576001935082601f19811610611345575b5050811b01600355610fc4565b8901515f1960f88460031b161c191690555f80611338565b8981015182556020938401936001909201910161131d565b60038952601f820160051c5f805160206127e783398151915201602083106113c5575b601f820160051c5f805160206127e78339815191520181106113ba5750610f9a565b5f8155600101611398565b505f805160206127e7833981519152611398565b8380fd5b8280fd5b50346102905780600319360112610290576103a5610391612138565b5034610290578060031936011261029057600e546001600160a01b031661142533821461259f565b60025460ff8116156114925760ff19166002557f5db9ee0a495bf2e6ff9c91a7834c1ba4fdd244a5e8aa4e537bd38aeae4b073aa6020604051338152a16011547f86468d9718fdb013069507af69c12b82d441f49cbda2d367ef629c1688b685bf6020604051428152a380f35b604051638dfc202b60e01b8152600490fd5b50346102905780600319360112610290576020600654604051908152f35b5034610290576020806003193601126103bc57600435908183526013815260ff604084205416611c1057600d546040516331a9108f60e11b8152600481018490526001600160a01b0393602493909290919085169082818681855afa908115611a22578791611bd7575b508533911603611ba05782865260138252604086209360019160ff19958387825416179055803b15611b4f576040516304cc0c8960e31b8152600481018690528881848183865af18015611b9557611b66575b5060e0829160405192838092633ee1bcfd60e11b82528960048301525afa8015611b5b5784918991611a95575b506115bc826115c2920151612325565b50612240565b966010541691826116f5575b50505060115493604051924284526060818501525f926003546115f081612021565b9384606088015282821691825f146116b057505060011461164b575b505050908061164583827fe6c762b539c457743f94227289f320ccb6dc2241f3af7ef16d1d5e0ac6f664d6950360408401523397612300565b0390a480f35b60035f90815293505f805160206127e78339815191525b83851061169c57505050508101608001816116457fe6c762b539c457743f94227289f320ccb6dc2241f3af7ef16d1d5e0ac6f664d661160c565b805486860160800152938201938101611662565b8796506116459450608093507fe6c762b539c457743f94227289f320ccb6dc2241f3af7ef16d1d5e0ac6f664d6979592501682850152151560051b830101929361160c565b6116fe866126f0565b6040516f03d913730b6b2911d112827a0a81016960851b8482019081529091611772602961172e603086016125f8565b61088b60f21b81527f226465736372697074696f6e223a2250726f6f66206f6620417474656e64616e600282015266031b2903337b9160cd1b6022820152016125f8565b906201016960ed1b825261182a60648d8881519101946117968260038301886122df565b68081d1a58dad95d088b60ba1b600392909101918201527f22696d616765223a2268747470733a2f2f697066732e696f2f697066732f516d600c8201526a1413d054125b5859d9488b60aa1b602c8201526d2261747472696275746573223a5b60901b60378201527f7b2274726169745f74797065223a224576656e74222c2276616c7565223a22006045820152016125f8565b62089f4b60ea1b8082527f7b2274726169745f74797065223a225469636b65742054797065222c2276616c6003830152643ab2911d1160d91b602383015292908d9061187f90602801928392519384916122df565b018281527f7b2274726169745f74797065223a225469636b6574204944222c2276616c7565600382015262111d1160e91b60238201526118c882518093896026850191016122df565b019060268201527f7b2274726169745f74797065223a224576656e74204c6f636174696f6e222c226029820152673b30b63ab2911d1160c11b60498201525f906007549061191582612021565b918c8a821691825f14611a73575050600114611a2d575b5050603d8361199d959361196660046119e09a976119ad9661227d60f01b8152615d7d60f01b600282015203601b19810185520183612059565b6040519687927f646174613a6170706c69636174696f6e2f6a736f6e3b6261736536342c0000008a850152518092858501906122df565b810103601d810186520184612059565b8a6011546040519687958694859363653091d360e01b855260048501523290840152606060448401526064830190612300565b03925af1908115611a225783916119f9575b81906115ce565b813d8311611a1b575b611a0c8183612059565b8101031261099557815f6119f2565b503d611a02565b6040513d89823e3d90fd5b90915060075f525f80516020612807833981519152885f915b848310611a5c5750505001605101603d8361192c565b8054605184860101528b98909201918a9101611a46565b166051838101919091528315159093029091019091019150603d90508361192c565b91505060e0813d60e011611b53575b81611ab160e09383612059565b81010312611b4f576040519060e0820182811067ffffffffffffffff821117611b3c57858093611b2f60c06115c2956115bc9560405280518452848101518585015260408101516040850152611b09606082016124fb565b6060850152611b1a608082016124fb565b608085015260a081015160a08501520161258b565b60c08201529250506115ac565b83634e487b7160e01b5f5260416004525ffd5b8780fd5b3d9150611aa4565b6040513d8a823e3d90fd5b67ffffffffffffffff8199929911611b83576040529660e061157f565b50634e487b7160e01b81526041600452fd5b6040513d8b823e3d90fd5b60405162461bcd60e51b8152600481018390526010818601526f2737ba103a34b1b5b2ba1037bbb732b960811b6044820152606490fd5b90508281813d8311611c09575b611bee8183612059565b81010312611c0557611bff9061258b565b5f61152c565b8680fd5b503d611be4565b6064906040519062461bcd60e51b825260048201526013602482015272151a58dad95d08185b1c9958591e481d5cd959606a1b6044820152fd5b5034610290578060031936011261029057600e546001600160a01b0390811690611c7533831461259f565b80600f5416604051906370a0823160e01b82523060048301526020938483602481855afa928315611e03578693611dd0575b508215611d9457859160448692604051948593849263a9059cbb60e01b845260048401528760248401525af1908115611d89578591611d26575b507f3dbb1a26f29aef1264c12ca1285deb60cca5666d8b17100c7ea1602c0a4014f691611d0f604092612508565b60115493600e54169482519182524290820152a380f35b90508381813d8311611d82575b611d3d8183612059565b81010312611d7e577f3dbb1a26f29aef1264c12ca1285deb60cca5666d8b17100c7ea1602c0a4014f691611d0f611d756040936124fb565b92505091611ce1565b8480fd5b503d611d33565b6040513d87823e3d90fd5b60405162461bcd60e51b81526004810186905260146024820152734e6f2066756e647320746f20776974686472617760601b6044820152606490fd5b9092508481813d8311611dfc575b611de88183612059565b81010312611df85751915f611ca7565b8580fd5b503d611dde565b6040513d88823e3d90fd5b5034610290578060031936011261029057602060ff60105460a01c166040519015158152f35b50346102905760203660031901126102905760043590600c548210156102905760206102be836123d8565b503461029057602036600319011261029057600435600954811015611eef5780611e8b611ed392612325565b50611e958261236e565b91905492611eb1611ebe611ea8836123a3565b929054936123d8565b90549060031b1c93612240565b94604051968796608088526080880190612300565b9460031b1c602086015260031b1c604084015260608301520390f35b60405162461bcd60e51b815260206004820152600d60248201526c092dcecc2d8d2c840d2dcc8caf609b1b6044820152606490fd5b50346102905780600319360112610290576020601154604051908152f35b50346102905780600319360112610290576103a561039161208f565b9050346103bc57602090816003193601126113dd57916001600160a01b03611f8461200b565b1681526012825260408120908154808552838501908193835284832090835b818110611ff75750505084611fb9910385612059565b60405193838594850191818652518092526040850193925b828110611fe057505050500390f35b835185528695509381019392810192600101611fd1565b825484529286019260019283019201611fa3565b600435906001600160a01b038216820361099557565b90600182811c9216801561204f575b602083101461203b57565b634e487b7160e01b5f52602260045260245ffd5b91607f1691612030565b90601f8019910116810190811067ffffffffffffffff82111761207b57604052565b634e487b7160e01b5f52604160045260245ffd5b604051905f82600354916120a283612021565b8083529260019081811690811561211657506001146120cb575b506120c992500383612059565b565b60035f90815291505f805160206127e78339815191525b8483106120fb57506120c993505081016020015f6120bc565b81935090816020925483858a010152019101909185926120e2565b9050602092506120c994915060ff191682840152151560051b8201015f6120bc565b604051905f826007549161214b83612021565b80835292600190818116908115612116575060011461217157506120c992500383612059565b60075f90815291505f805160206128078339815191525b8483106121a157506120c993505081016020015f6120bc565b81935090816020925483858a01015201910190918592612188565b604051905f82600454916121cf83612021565b8083529260019081811690811561211657506001146121f557506120c992500383612059565b60045f90815291505f805160206128278339815191525b84831061222557506120c993505081016020015f6120bc565b81935090816020925483858a0101520191019091859261220c565b9060405191825f82549261225384612021565b9081845260019485811690815f146122bc575060011461227c575b50506120c992500383612059565b909391505f52602090815f20935f915b8183106122a45750506120c993508201015f8061226e565b8554888401850152948501948794509183019161228c565b9150506120c994506020925060ff191682840152151560051b8201015f8061226e565b5f5b8381106122f05750505f910152565b81810151838201526020016122e1565b90602091612319815180928185528580860191016122df565b601f01601f1916010190565b60095481101561235a5760095f527f6e1540171b6c0c960b71a7020d9f60077f6af931a8bbf590da0223dacf75c7af01905f90565b634e487b7160e01b5f52603260045260245ffd5b600a5481101561235a57600a5f527fc65a7bb8d6351c1cf70c95a316cc6a92839c986682d98bc35f958f4883f9d2a801905f90565b600b5481101561235a57600b5f527f0175b7a638427703f0dbe7bb9bbf987a2551717b34e79f33b5b1008d1fa01db901905f90565b600c5481101561235a57600c5f527fdf6966c971051c3d54ec59162606531493a51404a002842f56009d7e5cf4a8c701905f90565b805482101561235a575f5260205f2001905f90565b67ffffffffffffffff811161207b57601f01601f191660200190565b81601f820112156109955780359061245582612422565b926124636040519485612059565b8284526020838301011161099557815f926020809301838601378301015290565b5f546001600160a01b0316330361249757565b60405163118cdaa760e01b8152336004820152602490fd5b156124b657565b60405162461bcd60e51b815260206004820152601960248201527f4576656e742068617320616c72656164792073746172746564000000000000006044820152606490fd5b5190811515820361099557565b1561250f57565b60405162461bcd60e51b81526020600482015260146024820152731554d115081d1c985b9cd9995c8819985a5b195960621b6044820152606490fd5b5f1981146125595760010190565b634e487b7160e01b5f52601160045260245ffd5b60ff6002541661257957565b60405163d93c066560e01b8152600490fd5b51906001600160a01b038216820361099557565b156125a657565b60405162461bcd60e51b815260206004820152601c60248201527f4f6e6c79206f7267616e697a65722063616e2063616c6c2074686973000000006044820152606490fd5b9190820391821161255957565b6003545f929161260782612021565b9160019081811690811561265e575060011461262257505050565b909192935060035f525f805160206127e7833981519152905f915b84831061264b575050500190565b818160209254858701520192019161263d565b60ff191683525050811515909102019150565b5f9291815461267f81612021565b926001918083169081156126d5575060011461269c575b50505050565b9091929394505f52602090815f20905f915b8583106126c4575050505001905f808080612696565b8054858401529183019181016126ae565b60ff191684525050508115159091020191505f808080612696565b9081156127b6579080815f925b61279c575061270b82612422565b916127196040519384612059565b808352601f1961272882612422565b01366020850137905b818115612796575f1983019283116125595782600a90818404938285029285840414851517156125595761276860ff9384926125eb565b16603001918211612559578551111561235a5760f81b6001600160f81b0319165f1a908401601f0153612731565b50505090565b916127ab600a9194929461254b565b9204809391936126fd565b90506040516040810181811067ffffffffffffffff82111761207b5760405260018152600360fc1b60208201529056fec2575a0e9e593c00f959f8c92f12db2869c3395a3b0502d05e2516446f71f85ba66cc928b5edb82af9bd49922954155ab7b0942694bea4ce44661d9a8736c6888a35acfbc15ff81a39ae7d344fd709f28e8600b4aa8c65c6b64bfe7fe36bd19ba2646970667358221220b91e2ae7e78938bb2caeec29dc899d0c93817f9a20c5d580df4bdeef6c9eb63b64736f6c63430008140033a66cc928b5edb82af9bd49922954155ab7b0942694bea4ce44661d9a8736c6886e1540171b6c0c960b71a7020d9f60077f6af931a8bbf590da0223dacf75c7af000000000000000000000000000000000000000000000000000000000000018000000000000000000000000000000000000000000000000000000000000001c00000000000000000000000000000000000000000000000000000000068891410000000000000000000000000000000000000000000000000000000006889303000000000000000000000000000000000000000000000000000000000000002e000000000000000000000000000000000000000000000000000000000000003200000000000000000000000000000000000000000000000000000000000000400000000000000000000000000000000000000000000000000000000000000046000000000000000000000000039a450990a9a778172201f1cfc0e205e5d0b15d40000000000000000000000002cac89abf06dbe5d3a059517053b7144074e1ce5000000000000000000000000f7f007dc8cb507e25e8b7dbda600c07fdcf9a75b00000000000000000000000082c2b08463706885c5e92a6317bf81b01e70a1c2000000000000000000000000000000000000000000000000000000000000001f45746865726c696e6b20446576656c6f7065722053756d6d697420323032340000000000000000000000000000000000000000000000000000000000000000e34a6f696e20757320666f7220746865206d6f7374206578636974696e6720626c6f636b636861696e20646576656c6f7065722073756d6d6974206f6e2045746865726c696e6b21204c6561726e2061626f757420746865206c617465737420696e20446546692c204e4654732c20616e6420736d61727420636f6e747261637420646576656c6f706d656e742e204e6574776f726b207769746820696e647573747279206578706572747320616e6420646973636f766572206e6577206f70706f7274756e697469657320696e2074686520626c6f636b636861696e2073706163652e0000000000000000000000000000000000000000000000000000000000000000000000000000000000000000000000000000000000000000000000001b45746865726c696e6b20496e6e6f766174696f6e2043656e7465720000000000000000000000000000000000000000000000000000000000000000000000000200000000000000000000000000000000000000000000000000000000000000400000000000000000000000000000000000000000000000000000000000000080000000000000000000000000000000000000000000000000000000000000001147656e6572616c2041646d697373696f6e000000000000000000000000000000000000000000000000000000000000000000000000000000000000000000000356495000000000000000000000000000000000000000000000000000000000000000000000000000000000000000000000000000000000000000000000000002000000000000000000000000000000000000000000000000000000000000c35000000000000000000000000000000000000000000000000000000000000249f000000000000000000000000000000000000000000000000000000000000000020000000000000000000000000000000000000000000000000000000000000014000000000000000000000000000000000000000000000000000000000000000a"
        }
      ],
      "isFixedGasLimit": false
    },
    {
      "hash": "0x570f3d6e5ad4ff778079cf55b9c2f89523b25b91c2dec2720324ddfaa1a802ba",
      "transactionType": "CALL",
      "contractName": null,
      "contractAddress": "0xf7f007dc8cb507e25e8b7dbda600c07fdcf9a75b",
      "function": "approve(address,uint256)",
      "arguments": [
        "0x3BC275E3A18F1bf373375cd2abB90aE0A9C2A7Bd",
        "50000"
      ],
      "transaction": {
        "from": "0x2cac89abf06dbe5d3a059517053b7144074e1ce5",
        "to": "0xf7f007dc8cb507e25e8b7dbda600c07fdcf9a75b",
        "gas": "0x1247fa",
        "value": "0x0",
        "input": "0x095ea7b30000000000000000000000003bc275e3a18f1bf373375cd2abb90ae0a9c2a7bd000000000000000000000000000000000000000000000000000000000000c350",
        "nonce": "0x8f",
        "chainId": "0x1f47b"
      },
      "additionalContracts": [],
      "isFixedGasLimit": false
    },
    {
      "hash": "0xb764864d34ea9f9a796cc168573685567a141895e2ce7105785bdc6ff5d79274",
      "transactionType": "CALL",
      "contractName": "Event",
      "contractAddress": "0x3bc275e3a18f1bf373375cd2abb90ae0a9c2a7bd",
      "function": "purchaseTicket(uint256)",
      "arguments": [
        "0"
      ],
      "transaction": {
        "from": "0x2cac89abf06dbe5d3a059517053b7144074e1ce5",
        "to": "0x3bc275e3a18f1bf373375cd2abb90ae0a9c2a7bd",
        "gas": "0xf3bce",
        "value": "0x0",
        "input": "0xb948348c0000000000000000000000000000000000000000000000000000000000000000",
        "nonce": "0x90",
        "chainId": "0x1f47b"
      },
      "additionalContracts": [],
      "isFixedGasLimit": false
    },
    {
      "hash": "0x6b7c23710fddad1b20db8583292ff7c81ee98c2c00e436559d4fc2461e8eb873",
      "transactionType": "CALL",
      "contractName": null,
      "contractAddress": "0xf7f007dc8cb507e25e8b7dbda600c07fdcf9a75b",
      "function": "approve(address,uint256)",
      "arguments": [
        "0x3BC275E3A18F1bf373375cd2abB90aE0A9C2A7Bd",
        "50000"
      ],
      "transaction": {
        "from": "0x2cac89abf06dbe5d3a059517053b7144074e1ce5",
        "to": "0xf7f007dc8cb507e25e8b7dbda600c07fdcf9a75b",
        "gas": "0x1247fa",
        "value": "0x0",
        "input": "0x095ea7b30000000000000000000000003bc275e3a18f1bf373375cd2abb90ae0a9c2a7bd000000000000000000000000000000000000000000000000000000000000c350",
        "nonce": "0x91",
        "chainId": "0x1f47b"
      },
      "additionalContracts": [],
      "isFixedGasLimit": false
    },
    {
      "hash": "0x1f596aa33a506af6a8da8664eb3c19f04e6246f16763a4436f50938c65bd1cfa",
      "transactionType": "CALL",
      "contractName": "Event",
      "contractAddress": "0x3bc275e3a18f1bf373375cd2abb90ae0a9c2a7bd",
      "function": "purchaseTicket(uint256)",
      "arguments": [
        "0"
      ],
      "transaction": {
        "from": "0x2cac89abf06dbe5d3a059517053b7144074e1ce5",
        "to": "0x3bc275e3a18f1bf373375cd2abb90ae0a9c2a7bd",
        "gas": "0xf3bce",
        "value": "0x0",
        "input": "0xb948348c0000000000000000000000000000000000000000000000000000000000000000",
        "nonce": "0x92",
        "chainId": "0x1f47b"
      },
      "additionalContracts": [],
      "isFixedGasLimit": false
    },
    {
      "hash": "0xe9fa2901590973ce876272dcfb3c495c7c674edeb1dbe878724a11b5855d1ed2",
      "transactionType": "CALL",
      "contractName": null,
      "contractAddress": "0xf7f007dc8cb507e25e8b7dbda600c07fdcf9a75b",
      "function": "approve(address,uint256)",
      "arguments": [
        "0x3BC275E3A18F1bf373375cd2abB90aE0A9C2A7Bd",
        "150000"
      ],
      "transaction": {
        "from": "0x2cac89abf06dbe5d3a059517053b7144074e1ce5",
        "to": "0xf7f007dc8cb507e25e8b7dbda600c07fdcf9a75b",
        "gas": "0x12480a",
        "value": "0x0",
        "input": "0x095ea7b30000000000000000000000003bc275e3a18f1bf373375cd2abb90ae0a9c2a7bd00000000000000000000000000000000000000000000000000000000000249f0",
        "nonce": "0x93",
        "chainId": "0x1f47b"
      },
      "additionalContracts": [],
      "isFixedGasLimit": false
    },
    {
      "hash": "0xe992ec365a2cf78f2d8add8d46c088b649843ca76d5e66d18ec081f7de3d5517",
      "transactionType": "CALL",
      "contractName": "Event",
      "contractAddress": "0x3bc275e3a18f1bf373375cd2abb90ae0a9c2a7bd",
      "function": "purchaseTicket(uint256)",
      "arguments": [
        "1"
      ],
      "transaction": {
        "from": "0x2cac89abf06dbe5d3a059517053b7144074e1ce5",
        "to": "0x3bc275e3a18f1bf373375cd2abb90ae0a9c2a7bd",
        "gas": "0xf3bdf",
        "value": "0x0",
        "input": "0xb948348c0000000000000000000000000000000000000000000000000000000000000001",
        "nonce": "0x94",
        "chainId": "0x1f47b"
      },
      "additionalContracts": [],
      "isFixedGasLimit": false
    },
    {
      "hash": "0x1c8134d38393aca037c3fda88e3be3a1d191100a8a12f09dbf179402514fb478",
      "transactionType": "CALL",
      "contractName": "Event",
      "contractAddress": "0x3bc275e3a18f1bf373375cd2abb90ae0a9c2a7bd",
      "function": "useTicket(uint256)",
      "arguments": [
        "1"
      ],
      "transaction": {
        "from": "0x2cac89abf06dbe5d3a059517053b7144074e1ce5",
        "to": "0x3bc275e3a18f1bf373375cd2abb90ae0a9c2a7bd",
        "gas": "0xf3bdf",
        "value": "0x0",
        "input": "0x266064480000000000000000000000000000000000000000000000000000000000000001",
        "nonce": "0x95",
        "chainId": "0x1f47b"
      },
      "additionalContracts": [],
      "isFixedGasLimit": false
    },
    {
      "hash": "0xfb8dfe191217102b9b0d14bc98a4d42ad97769860fd27bef814b39697f049ab7",
      "transactionType": "CALL",
      "contractName": "Event",
      "contractAddress": "0x3bc275e3a18f1bf373375cd2abb90ae0a9c2a7bd",
      "function": "useTicket(uint256)",
      "arguments": [
        "2"
      ],
      "transaction": {
        "from": "0x2cac89abf06dbe5d3a059517053b7144074e1ce5",
        "to": "0x3bc275e3a18f1bf373375cd2abb90ae0a9c2a7bd",
        "gas": "0xf3bdf",
        "value": "0x0",
        "input": "0x266064480000000000000000000000000000000000000000000000000000000000000002",
        "nonce": "0x96",
        "chainId": "0x1f47b"
      },
      "additionalContracts": [],
      "isFixedGasLimit": false
    },
    {
      "hash": "0xba038e76efc2e645a39f956795e0e8498d310b98ba4af4f698d9c212c90f5982",
      "transactionType": "CALL",
      "contractName": "Event",
      "contractAddress": "0x3bc275e3a18f1bf373375cd2abb90ae0a9c2a7bd",
      "function": "useTicket(uint256)",
      "arguments": [
        "3"
      ],
      "transaction": {
        "from": "0x2cac89abf06dbe5d3a059517053b7144074e1ce5",
        "to": "0x3bc275e3a18f1bf373375cd2abb90ae0a9c2a7bd",
        "gas": "0xf3bdf",
        "value": "0x0",
        "input": "0x266064480000000000000000000000000000000000000000000000000000000000000003",
        "nonce": "0x97",
        "chainId": "0x1f47b"
      },
      "additionalContracts": [],
      "isFixedGasLimit": false
    }
  ],
  "receipts": [
    {
      "status": "0x1",
      "cumulativeGasUsed": "0x8030d4",
      "logs": [
        {
          "address": "0x3bc275e3a18f1bf373375cd2abb90ae0a9c2a7bd",
          "topics": [
            "0x8be0079c531659141344cd1fd0a4f28419497f9722a3daafe3b4186f6b6457e0",
            "0x0000000000000000000000000000000000000000000000000000000000000000",
            "0x0000000000000000000000002cac89abf06dbe5d3a059517053b7144074e1ce5"
          ],
          "data": "0x",
          "blockHash": "0x667b850a91af31d944d8daf6c3a33f954777e9dcd1abf92bceb0ba5aa809eac6",
          "blockNumber": "0x13d720e",
          "transactionHash": "0xb89736377dde42d558daefccd8f4325ad8f214449d9eb98f896088d442579d40",
          "transactionIndex": "0x0",
          "logIndex": "0x0",
          "removed": false
        },
        {
          "address": "0x3bc275e3a18f1bf373375cd2abb90ae0a9c2a7bd",
          "topics": [
            "0x0ce7a912f1d2fdb215639a4613bef663b1331aeb9d753245e598176f6dad3ee6",
            "0x0000000000000000000000000000000000000000000000000000000000000000",
            "0x0000000000000000000000003bc275e3a18f1bf373375cd2abb90ae0a9c2a7bd",
            "0x0000000000000000000000002cac89abf06dbe5d3a059517053b7144074e1ce5"
          ],
          "data": "0x00000000000000000000000000000000000000000000000000000000000000e000000000000000000000000000000000000000000000000000000000000001200000000000000000000000000000000000000000000000000000000068891410000000000000000000000000000000000000000000000000000000006889303000000000000000000000000000000000000000000000000000000000000002400000000000000000000000000000000000000000000000000000000000000000000000000000000000000000000000000000000000000000000000006889062f000000000000000000000000000000000000000000000000000000000000001f45746865726c696e6b20446576656c6f7065722053756d6d697420323032340000000000000000000000000000000000000000000000000000000000000000e34a6f696e20757320666f7220746865206d6f7374206578636974696e6720626c6f636b636861696e20646576656c6f7065722073756d6d6974206f6e2045746865726c696e6b21204c6561726e2061626f757420746865206c617465737420696e20446546692c204e4654732c20616e6420736d61727420636f6e747261637420646576656c6f706d656e742e204e6574776f726b207769746820696e647573747279206578706572747320616e6420646973636f766572206e6577206f70706f7274756e697469657320696e2074686520626c6f636b636861696e2073706163652e0000000000000000000000000000000000000000000000000000000000000000000000000000000000000000000000000000000000000000000000001b45746865726c696e6b20496e6e6f766174696f6e2043656e7465720000000000",
          "blockHash": "0x667b850a91af31d944d8daf6c3a33f954777e9dcd1abf92bceb0ba5aa809eac6",
          "blockNumber": "0x13d720e",
          "transactionHash": "0xb89736377dde42d558daefccd8f4325ad8f214449d9eb98f896088d442579d40",
          "transactionIndex": "0x0",
          "logIndex": "0x1",
          "removed": false
        },
        {
          "address": "0x39a450990a9a778172201f1cfc0e205e5d0b15d4",
          "topics": [
            "0x142cd45c6a88d426a2be994a600b3c83576fb5c1da0aa5b71dfdb12a50f1ae96",
            "0x0000000000000000000000000000000000000000000000000000000000000001",
            "0x0000000000000000000000003bc275e3a18f1bf373375cd2abb90ae0a9c2a7bd",
            "0x0000000000000000000000003b082f6ea285761f862608f28ff420a8592201cd"
          ],
          "data": "0x00000000000000000000000000000000000000000000000000000000000000a0000000000000000000000000000000000000000000000000000000006889141000000000000000000000000000000000000000000000000000000000688930300000000000000000000000000000000000000000000000000000000000000000000000000000000000000000000000000000000000000000000000006889062f000000000000000000000000000000000000000000000000000000000000001f45746865726c696e6b20446576656c6f7065722053756d6d6974203230323400",
          "blockHash": "0x667b850a91af31d944d8daf6c3a33f954777e9dcd1abf92bceb0ba5aa809eac6",
          "blockNumber": "0x13d720e",
          "transactionHash": "0xb89736377dde42d558daefccd8f4325ad8f214449d9eb98f896088d442579d40",
          "transactionIndex": "0x0",
          "logIndex": "0x2",
          "removed": false
        },
        {
          "address": "0x3b082f6ea285761f862608f28ff420a8592201cd",
          "topics": [
            "0xcdcc5e76ef2815ee3d62c351fc4b1daf2bfae2ea6e479fa98247769aaebb8b7f",
            "0x0000000000000000000000000000000000000000000000000000000000000001",
            "0x0000000000000000000000003bc275e3a18f1bf373375cd2abb90ae0a9c2a7bd",
            "0x0000000000000000000000002cac89abf06dbe5d3a059517053b7144074e1ce5"
          ],
          "data": "0x000000000000000000000000000000000000000000000000000000006889062f",
          "blockHash": "0x667b850a91af31d944d8daf6c3a33f954777e9dcd1abf92bceb0ba5aa809eac6",
          "blockNumber": "0x13d720e",
          "transactionHash": "0xb89736377dde42d558daefccd8f4325ad8f214449d9eb98f896088d442579d40",
          "transactionIndex": "0x0",
          "logIndex": "0x3",
          "removed": false
        },
        {
          "address": "0x3b082f6ea285761f862608f28ff420a8592201cd",
          "topics": [
            "0xd66a1365692e30efae0fd4306eb6d4758ec34a5edd95e4c124c5e1117dc297fb",
            "0x0000000000000000000000000000000000000000000000000000000000000001",
            "0x0000000000000000000000003bc275e3a18f1bf373375cd2abb90ae0a9c2a7bd",
            "0x0000000000000000000000002cac89abf06dbe5d3a059517053b7144074e1ce5"
          ],
          "data": "0x000000000000000000000000000000000000000000000000000000000000014000000000000000000000000000000000000000000000000000000000000001800000000000000000000000000000000000000000000000000000000068891410000000000000000000000000000000000000000000000000000000006889303000000000000000000000000000000000000000000000000000000000000002a000000000000000000000000000000000000000000000000000000000000002e000000000000000000000000000000000000000000000000000000000000003c0000000000000000000000000000000000000000000000000000000000000042000000000000000000000000039a450990a9a778172201f1cfc0e205e5d0b15d4000000000000000000000000000000000000000000000000000000006889062f000000000000000000000000000000000000000000000000000000000000001f45746865726c696e6b20446576656c6f7065722053756d6d697420323032340000000000000000000000000000000000000000000000000000000000000000e34a6f696e20757320666f7220746865206d6f7374206578636974696e6720626c6f636b636861696e20646576656c6f7065722073756d6d6974206f6e2045746865726c696e6b21204c6561726e2061626f757420746865206c617465737420696e20446546692c204e4654732c20616e6420736d61727420636f6e747261637420646576656c6f706d656e742e204e6574776f726b207769746820696e647573747279206578706572747320616e6420646973636f766572206e6577206f70706f7274756e697469657320696e2074686520626c6f636b636861696e2073706163652e0000000000000000000000000000000000000000000000000000000000000000000000000000000000000000000000000000000000000000000000001b45746865726c696e6b20496e6e6f766174696f6e2043656e7465720000000000000000000000000000000000000000000000000000000000000000000000000200000000000000000000000000000000000000000000000000000000000000400000000000000000000000000000000000000000000000000000000000000080000000000000000000000000000000000000000000000000000000000000001147656e6572616c2041646d697373696f6e000000000000000000000000000000000000000000000000000000000000000000000000000000000000000000000356495000000000000000000000000000000000000000000000000000000000000000000000000000000000000000000000000000000000000000000000000002000000000000000000000000000000000000000000000000000000000000c35000000000000000000000000000000000000000000000000000000000000249f000000000000000000000000000000000000000000000000000000000000000020000000000000000000000000000000000000000000000000000000000000014000000000000000000000000000000000000000000000000000000000000000a",
          "blockHash": "0x667b850a91af31d944d8daf6c3a33f954777e9dcd1abf92bceb0ba5aa809eac6",
          "blockNumber": "0x13d720e",
          "transactionHash": "0xb89736377dde42d558daefccd8f4325ad8f214449d9eb98f896088d442579d40",
          "transactionIndex": "0x0",
          "logIndex": "0x4",
          "removed": false
        },
        {
          "address": "0x3b082f6ea285761f862608f28ff420a8592201cd",
          "topics": [
            "0x92f22124f757bf6164da18c1145a498760fe7c29a6abcf7958583d771c361c59",
            "0x0000000000000000000000002cac89abf06dbe5d3a059517053b7144074e1ce5",
            "0x0000000000000000000000000000000000000000000000000000000000000001"
          ],
          "data": "0x000000000000000000000000000000000000000000000000000000006889062f",
          "blockHash": "0x667b850a91af31d944d8daf6c3a33f954777e9dcd1abf92bceb0ba5aa809eac6",
          "blockNumber": "0x13d720e",
          "transactionHash": "0xb89736377dde42d558daefccd8f4325ad8f214449d9eb98f896088d442579d40",
          "transactionIndex": "0x0",
          "logIndex": "0x5",
          "removed": false
        },
        {
          "address": "0x3b082f6ea285761f862608f28ff420a8592201cd",
          "topics": [
            "0x423ef4cc227ee2ab5d3b326563644621e7450cdb5793d383d1a4f386acb15a53",
            "0x0000000000000000000000000000000000000000000000000000000000000001"
          ],
          "data": "0x00000000000000000000000000000000000000000000000000000000000000010000000000000000000000000000000000000000000000000000000000000001000000000000000000000000000000000000000000000000000000006889062f",
          "blockHash": "0x667b850a91af31d944d8daf6c3a33f954777e9dcd1abf92bceb0ba5aa809eac6",
          "blockNumber": "0x13d720e",
          "transactionHash": "0xb89736377dde42d558daefccd8f4325ad8f214449d9eb98f896088d442579d40",
          "transactionIndex": "0x0",
          "logIndex": "0x6",
          "removed": false
        }
      ],
      "logsBloom": "0x00000040002000000000000000000000000000000001000000800000000020000000000000008000000000000400000000000000000000401000000040440000000000000000000000000000000000000101000000040000000000000400801200000080020000000000000000080c00000000200000000000880000000000400000080200000000000000000000000000000000008000000004000010000000000000000020000000000000000000000000000000000040000000000000100000000000000000000000000000000000000000000000000000000800002060000000000000000100000000000000000000040000000000000000000000800000",
      "type": "0x2",
      "transactionHash": "0xb89736377dde42d558daefccd8f4325ad8f214449d9eb98f896088d442579d40",
      "transactionIndex": "0x0",
      "blockHash": "0x667b850a91af31d944d8daf6c3a33f954777e9dcd1abf92bceb0ba5aa809eac6",
      "blockNumber": "0x13d720e",
      "gasUsed": "0x8030d4",
      "effectiveGasPrice": "0x3b9aca00",
      "from": "0x2cac89abf06dbe5d3a059517053b7144074e1ce5",
      "to": "0x3b082f6ea285761f862608f28ff420a8592201cd",
      "contractAddress": null
    },
    {
      "status": "0x1",
      "cumulativeGasUsed": "0xe0333",
      "logs": [
        {
          "address": "0xf7f007dc8cb507e25e8b7dbda600c07fdcf9a75b",
          "topics": [
            "0x8c5be1e5ebec7d5bd14f71427d1e84f3dd0314c0f7b2291e5b200ac8c7c3b925",
            "0x0000000000000000000000002cac89abf06dbe5d3a059517053b7144074e1ce5",
            "0x0000000000000000000000003bc275e3a18f1bf373375cd2abb90ae0a9c2a7bd"
          ],
          "data": "0x000000000000000000000000000000000000000000000000000000000000c350",
          "blockHash": "0x8016a67dab2c5911a9821087247caa2910bd2580d9dae076531e8b8bee653388",
          "blockNumber": "0x13d720f",
          "transactionHash": "0x570f3d6e5ad4ff778079cf55b9c2f89523b25b91c2dec2720324ddfaa1a802ba",
          "transactionIndex": "0x0",
          "logIndex": "0x0",
          "removed": false
        }
      ],
      "logsBloom": "0x00000000000000000000000000000000000000000000000000000000000000000000000000000000000000000000000000000000000000000000000000600000000000000000000000000000000000000000000002000000000000000400000000000080000000000000000000000000000000000000000000000000000000000000000000000000000000000000000000000000000000000004000010000000020800000000000000000000000000000000000000000000000000000000000000000000000000000000000000000020000000000000000000000000000000000010000000000000000000000000000000000000000000000000000000800000",
      "type": "0x2",
      "transactionHash": "0x570f3d6e5ad4ff778079cf55b9c2f89523b25b91c2dec2720324ddfaa1a802ba",
      "transactionIndex": "0x0",
      "blockHash": "0x8016a67dab2c5911a9821087247caa2910bd2580d9dae076531e8b8bee653388",
      "blockNumber": "0x13d720f",
      "gasUsed": "0xe0333",
      "effectiveGasPrice": "0x3b9aca00",
      "from": "0x2cac89abf06dbe5d3a059517053b7144074e1ce5",
      "to": "0xf7f007dc8cb507e25e8b7dbda600c07fdcf9a75b",
      "contractAddress": null
    },
    {
      "status": "0x1",
      "cumulativeGasUsed": "0x181789",
      "logs": [
        {
          "address": "0xf7f007dc8cb507e25e8b7dbda600c07fdcf9a75b",
          "topics": [
            "0xddf252ad1be2c89b69c2b068fc378daa952ba7f163c4a11628f55a4df523b3ef",
            "0x0000000000000000000000002cac89abf06dbe5d3a059517053b7144074e1ce5",
            "0x0000000000000000000000003bc275e3a18f1bf373375cd2abb90ae0a9c2a7bd"
          ],
          "data": "0x000000000000000000000000000000000000000000000000000000000000c350",
          "blockHash": "0x9326bab162491c212fb351e284ee3640ccd9195169e76ae1263eef697df57e3e",
          "blockNumber": "0x13d7210",
          "transactionHash": "0xb764864d34ea9f9a796cc168573685567a141895e2ce7105785bdc6ff5d79274",
          "transactionIndex": "0x0",
          "logIndex": "0x0",
          "removed": false
        },
        {
          "address": "0x39a450990a9a778172201f1cfc0e205e5d0b15d4",
          "topics": [
            "0xddf252ad1be2c89b69c2b068fc378daa952ba7f163c4a11628f55a4df523b3ef",
            "0x0000000000000000000000000000000000000000000000000000000000000000",
            "0x0000000000000000000000002cac89abf06dbe5d3a059517053b7144074e1ce5",
            "0x0000000000000000000000000000000000000000000000000000000000000001"
          ],
          "data": "0x",
          "blockHash": "0x9326bab162491c212fb351e284ee3640ccd9195169e76ae1263eef697df57e3e",
          "blockNumber": "0x13d7210",
          "transactionHash": "0xb764864d34ea9f9a796cc168573685567a141895e2ce7105785bdc6ff5d79274",
          "transactionIndex": "0x0",
          "logIndex": "0x1",
          "removed": false
        },
        {
          "address": "0x39a450990a9a778172201f1cfc0e205e5d0b15d4",
          "topics": [
            "0xf8e1a15aba9398e019f0b49df1a4fde98ee17ae345cb5f6b5e2c27f5033e8ce7"
          ],
          "data": "0x0000000000000000000000000000000000000000000000000000000000000001",
          "blockHash": "0x9326bab162491c212fb351e284ee3640ccd9195169e76ae1263eef697df57e3e",
          "blockNumber": "0x13d7210",
          "transactionHash": "0xb764864d34ea9f9a796cc168573685567a141895e2ce7105785bdc6ff5d79274",
          "transactionIndex": "0x0",
          "logIndex": "0x2",
          "removed": false
        },
        {
          "address": "0x39a450990a9a778172201f1cfc0e205e5d0b15d4",
          "topics": [
            "0x7bc684e6c46e8f9f9ece878eb1544e6e07b5dc4289148b08c888f525b27be3db",
            "0x0000000000000000000000000000000000000000000000000000000000000001",
            "0x0000000000000000000000000000000000000000000000000000000000000001",
            "0x0000000000000000000000002cac89abf06dbe5d3a059517053b7144074e1ce5"
          ],
          "data": "0x0000000000000000000000000000000000000000000000000000000000000000000000000000000000000000000000000000000000000000000000000000c3500000000000000000000000000000000000000000000000000000000068890632",
          "blockHash": "0x9326bab162491c212fb351e284ee3640ccd9195169e76ae1263eef697df57e3e",
          "blockNumber": "0x13d7210",
          "transactionHash": "0xb764864d34ea9f9a796cc168573685567a141895e2ce7105785bdc6ff5d79274",
          "transactionIndex": "0x0",
          "logIndex": "0x3",
          "removed": false
        },
        {
          "address": "0x3bc275e3a18f1bf373375cd2abb90ae0a9c2a7bd",
          "topics": [
            "0xe57a70e7bd5ff15b67408de156d6b60b131f76a51ee875a24307fdd155643f24",
            "0x0000000000000000000000002cac89abf06dbe5d3a059517053b7144074e1ce5",
            "0x0000000000000000000000000000000000000000000000000000000000000001",
            "0x0000000000000000000000000000000000000000000000000000000000000000"
          ],
          "data": "0x0000000000000000000000000000000000000000000000000000000000000001000000000000000000000000000000000000000000000000000000000000c35000000000000000000000000000000000000000000000000000000000000000c0000000000000000000000000000000000000000000000000000000006889063200000000000000000000000000000000000000000000000000000000000000000000000000000000000000000000000000000000000000000000000000000001000000000000000000000000000000000000000000000000000000000000001147656e6572616c2041646d697373696f6e000000000000000000000000000000",
          "blockHash": "0x9326bab162491c212fb351e284ee3640ccd9195169e76ae1263eef697df57e3e",
          "blockNumber": "0x13d7210",
          "transactionHash": "0xb764864d34ea9f9a796cc168573685567a141895e2ce7105785bdc6ff5d79274",
          "transactionIndex": "0x0",
          "logIndex": "0x4",
          "removed": false
        }
      ],
      "logsBloom": "0x00000040002000000000000000000000000000000000000000800000000000000000000000000000000000000000000000000000000000000000000000440000000000000000000000000008000000000300000002040000000000000400000000000080020000000000000000000800000000000000000000000010000000000000000000000000000000000000000000000000008000000404000010000000000800000000000000000000000000002000000000000040010000000000008000000002000000800002000000000020020000000000000000000000000060000000000000000000200000000000000000000000000000000000000000800000",
      "type": "0x2",
      "transactionHash": "0xb764864d34ea9f9a796cc168573685567a141895e2ce7105785bdc6ff5d79274",
      "transactionIndex": "0x0",
      "blockHash": "0x9326bab162491c212fb351e284ee3640ccd9195169e76ae1263eef697df57e3e",
      "blockNumber": "0x13d7210",
      "gasUsed": "0x181789",
      "effectiveGasPrice": "0x3b9aca00",
      "from": "0x2cac89abf06dbe5d3a059517053b7144074e1ce5",
      "to": "0x3bc275e3a18f1bf373375cd2abb90ae0a9c2a7bd",
      "contractAddress": null
    },
    {
      "status": "0x1",
      "cumulativeGasUsed": "0xe0333",
      "logs": [
        {
          "address": "0xf7f007dc8cb507e25e8b7dbda600c07fdcf9a75b",
          "topics": [
            "0x8c5be1e5ebec7d5bd14f71427d1e84f3dd0314c0f7b2291e5b200ac8c7c3b925",
            "0x0000000000000000000000002cac89abf06dbe5d3a059517053b7144074e1ce5",
            "0x0000000000000000000000003bc275e3a18f1bf373375cd2abb90ae0a9c2a7bd"
          ],
          "data": "0x000000000000000000000000000000000000000000000000000000000000c350",
          "blockHash": "0xdde9d701b23883de8dfaf4c4f913b266a08b796d34238ee10a5901dfc7b564ad",
          "blockNumber": "0x13d7211",
          "transactionHash": "0x6b7c23710fddad1b20db8583292ff7c81ee98c2c00e436559d4fc2461e8eb873",
          "transactionIndex": "0x0",
          "logIndex": "0x0",
          "removed": false
        }
      ],
      "logsBloom": "0x00000000000000000000000000000000000000000000000000000000000000000000000000000000000000000000000000000000000000000000000000600000000000000000000000000000000000000000000002000000000000000400000000000080000000000000000000000000000000000000000000000000000000000000000000000000000000000000000000000000000000000004000010000000020800000000000000000000000000000000000000000000000000000000000000000000000000000000000000000020000000000000000000000000000000000010000000000000000000000000000000000000000000000000000000800000",
      "type": "0x2",
      "transactionHash": "0x6b7c23710fddad1b20db8583292ff7c81ee98c2c00e436559d4fc2461e8eb873",
      "transactionIndex": "0x0",
      "blockHash": "0xdde9d701b23883de8dfaf4c4f913b266a08b796d34238ee10a5901dfc7b564ad",
      "blockNumber": "0x13d7211",
      "gasUsed": "0xe0333",
      "effectiveGasPrice": "0x3b9aca00",
      "from": "0x2cac89abf06dbe5d3a059517053b7144074e1ce5",
      "to": "0xf7f007dc8cb507e25e8b7dbda600c07fdcf9a75b",
      "contractAddress": null
    },
    {
      "status": "0x1",
      "cumulativeGasUsed": "0x1643f5",
      "logs": [
        {
          "address": "0xf7f007dc8cb507e25e8b7dbda600c07fdcf9a75b",
          "topics": [
            "0xddf252ad1be2c89b69c2b068fc378daa952ba7f163c4a11628f55a4df523b3ef",
            "0x0000000000000000000000002cac89abf06dbe5d3a059517053b7144074e1ce5",
            "0x0000000000000000000000003bc275e3a18f1bf373375cd2abb90ae0a9c2a7bd"
          ],
          "data": "0x000000000000000000000000000000000000000000000000000000000000c350",
          "blockHash": "0x14894a62d5bdf9c794a0a9b9fae04604a72ce9e4121d51b2e6c9d7c52a7fc136",
          "blockNumber": "0x13d7212",
          "transactionHash": "0x1f596aa33a506af6a8da8664eb3c19f04e6246f16763a4436f50938c65bd1cfa",
          "transactionIndex": "0x0",
          "logIndex": "0x0",
          "removed": false
        },
        {
          "address": "0x39a450990a9a778172201f1cfc0e205e5d0b15d4",
          "topics": [
            "0xddf252ad1be2c89b69c2b068fc378daa952ba7f163c4a11628f55a4df523b3ef",
            "0x0000000000000000000000000000000000000000000000000000000000000000",
            "0x0000000000000000000000002cac89abf06dbe5d3a059517053b7144074e1ce5",
            "0x0000000000000000000000000000000000000000000000000000000000000002"
          ],
          "data": "0x",
          "blockHash": "0x14894a62d5bdf9c794a0a9b9fae04604a72ce9e4121d51b2e6c9d7c52a7fc136",
          "blockNumber": "0x13d7212",
          "transactionHash": "0x1f596aa33a506af6a8da8664eb3c19f04e6246f16763a4436f50938c65bd1cfa",
          "transactionIndex": "0x0",
          "logIndex": "0x1",
          "removed": false
        },
        {
          "address": "0x39a450990a9a778172201f1cfc0e205e5d0b15d4",
          "topics": [
            "0xf8e1a15aba9398e019f0b49df1a4fde98ee17ae345cb5f6b5e2c27f5033e8ce7"
          ],
          "data": "0x0000000000000000000000000000000000000000000000000000000000000002",
          "blockHash": "0x14894a62d5bdf9c794a0a9b9fae04604a72ce9e4121d51b2e6c9d7c52a7fc136",
          "blockNumber": "0x13d7212",
          "transactionHash": "0x1f596aa33a506af6a8da8664eb3c19f04e6246f16763a4436f50938c65bd1cfa",
          "transactionIndex": "0x0",
          "logIndex": "0x2",
          "removed": false
        },
        {
          "address": "0x39a450990a9a778172201f1cfc0e205e5d0b15d4",
          "topics": [
            "0x7bc684e6c46e8f9f9ece878eb1544e6e07b5dc4289148b08c888f525b27be3db",
            "0x0000000000000000000000000000000000000000000000000000000000000002",
            "0x0000000000000000000000000000000000000000000000000000000000000001",
            "0x0000000000000000000000002cac89abf06dbe5d3a059517053b7144074e1ce5"
          ],
          "data": "0x0000000000000000000000000000000000000000000000000000000000000000000000000000000000000000000000000000000000000000000000000000c3500000000000000000000000000000000000000000000000000000000068890634",
          "blockHash": "0x14894a62d5bdf9c794a0a9b9fae04604a72ce9e4121d51b2e6c9d7c52a7fc136",
          "blockNumber": "0x13d7212",
          "transactionHash": "0x1f596aa33a506af6a8da8664eb3c19f04e6246f16763a4436f50938c65bd1cfa",
          "transactionIndex": "0x0",
          "logIndex": "0x3",
          "removed": false
        },
        {
          "address": "0x3bc275e3a18f1bf373375cd2abb90ae0a9c2a7bd",
          "topics": [
            "0xe57a70e7bd5ff15b67408de156d6b60b131f76a51ee875a24307fdd155643f24",
            "0x0000000000000000000000002cac89abf06dbe5d3a059517053b7144074e1ce5",
            "0x0000000000000000000000000000000000000000000000000000000000000001",
            "0x0000000000000000000000000000000000000000000000000000000000000000"
          ],
          "data": "0x0000000000000000000000000000000000000000000000000000000000000002000000000000000000000000000000000000000000000000000000000000c35000000000000000000000000000000000000000000000000000000000000000c0000000000000000000000000000000000000000000000000000000006889063400000000000000000000000000000000000000000000000000000000000000000000000000000000000000000000000000000000000000000000000000000002000000000000000000000000000000000000000000000000000000000000001147656e6572616c2041646d697373696f6e000000000000000000000000000000",
          "blockHash": "0x14894a62d5bdf9c794a0a9b9fae04604a72ce9e4121d51b2e6c9d7c52a7fc136",
          "blockNumber": "0x13d7212",
          "transactionHash": "0x1f596aa33a506af6a8da8664eb3c19f04e6246f16763a4436f50938c65bd1cfa",
          "transactionIndex": "0x0",
          "logIndex": "0x4",
          "removed": false
        }
      ],
      "logsBloom": "0x04000040002000000000000000000000000000000000000000800000000000000000000000000000000000000000000000000000000000000000000000440000000000000000000000000008000000000300000002040000000000000400000000000080020000000000000000000800000000000000000000000010000000000000000000000000000000000000000000000000008000000404000010000000000800000000000000000100000000002000000000000040010000000000008000000002000000800002000000000020020000000000000000000000000060000000000000000000200000000000000000000000008000000000000000800000",
      "type": "0x2",
      "transactionHash": "0x1f596aa33a506af6a8da8664eb3c19f04e6246f16763a4436f50938c65bd1cfa",
      "transactionIndex": "0x0",
      "blockHash": "0x14894a62d5bdf9c794a0a9b9fae04604a72ce9e4121d51b2e6c9d7c52a7fc136",
      "blockNumber": "0x13d7212",
      "gasUsed": "0x1643f5",
      "effectiveGasPrice": "0x3b9aca00",
      "from": "0x2cac89abf06dbe5d3a059517053b7144074e1ce5",
      "to": "0x3bc275e3a18f1bf373375cd2abb90ae0a9c2a7bd",
      "contractAddress": null
    },
    {
      "status": "0x1",
      "cumulativeGasUsed": "0xe033f",
      "logs": [
        {
          "address": "0xf7f007dc8cb507e25e8b7dbda600c07fdcf9a75b",
          "topics": [
            "0x8c5be1e5ebec7d5bd14f71427d1e84f3dd0314c0f7b2291e5b200ac8c7c3b925",
            "0x0000000000000000000000002cac89abf06dbe5d3a059517053b7144074e1ce5",
            "0x0000000000000000000000003bc275e3a18f1bf373375cd2abb90ae0a9c2a7bd"
          ],
          "data": "0x00000000000000000000000000000000000000000000000000000000000249f0",
          "blockHash": "0xbd4dcc8140b015e0541b6d89f1ae45f74aacf365aedd76ec09464e4a21a079c7",
          "blockNumber": "0x13d7213",
          "transactionHash": "0xe9fa2901590973ce876272dcfb3c495c7c674edeb1dbe878724a11b5855d1ed2",
          "transactionIndex": "0x0",
          "logIndex": "0x0",
          "removed": false
        }
      ],
      "logsBloom": "0x00000000000000000000000000000000000000000000000000000000000000000000000000000000000000000000000000000000000000000000000000600000000000000000000000000000000000000000000002000000000000000400000000000080000000000000000000000000000000000000000000000000000000000000000000000000000000000000000000000000000000000004000010000000020800000000000000000000000000000000000000000000000000000000000000000000000000000000000000000020000000000000000000000000000000000010000000000000000000000000000000000000000000000000000000800000",
      "type": "0x2",
      "transactionHash": "0xe9fa2901590973ce876272dcfb3c495c7c674edeb1dbe878724a11b5855d1ed2",
      "transactionIndex": "0x0",
      "blockHash": "0xbd4dcc8140b015e0541b6d89f1ae45f74aacf365aedd76ec09464e4a21a079c7",
      "blockNumber": "0x13d7213",
      "gasUsed": "0xe033f",
      "effectiveGasPrice": "0x3b9aca00",
      "from": "0x2cac89abf06dbe5d3a059517053b7144074e1ce5",
      "to": "0xf7f007dc8cb507e25e8b7dbda600c07fdcf9a75b",
      "contractAddress": null
    },
    {
      "status": "0x1",
      "cumulativeGasUsed": "0x167eff",
      "logs": [
        {
          "address": "0xf7f007dc8cb507e25e8b7dbda600c07fdcf9a75b",
          "topics": [
            "0xddf252ad1be2c89b69c2b068fc378daa952ba7f163c4a11628f55a4df523b3ef",
            "0x0000000000000000000000002cac89abf06dbe5d3a059517053b7144074e1ce5",
            "0x0000000000000000000000003bc275e3a18f1bf373375cd2abb90ae0a9c2a7bd"
          ],
          "data": "0x00000000000000000000000000000000000000000000000000000000000249f0",
          "blockHash": "0x1af06482068bd90775d26574bef85709179584dd448e65261da155836e2f6df5",
          "blockNumber": "0x13d7214",
          "transactionHash": "0xe992ec365a2cf78f2d8add8d46c088b649843ca76d5e66d18ec081f7de3d5517",
          "transactionIndex": "0x0",
          "logIndex": "0x0",
          "removed": false
        },
        {
          "address": "0x39a450990a9a778172201f1cfc0e205e5d0b15d4",
          "topics": [
            "0xddf252ad1be2c89b69c2b068fc378daa952ba7f163c4a11628f55a4df523b3ef",
            "0x0000000000000000000000000000000000000000000000000000000000000000",
            "0x0000000000000000000000002cac89abf06dbe5d3a059517053b7144074e1ce5",
            "0x0000000000000000000000000000000000000000000000000000000000000003"
          ],
          "data": "0x",
          "blockHash": "0x1af06482068bd90775d26574bef85709179584dd448e65261da155836e2f6df5",
          "blockNumber": "0x13d7214",
          "transactionHash": "0xe992ec365a2cf78f2d8add8d46c088b649843ca76d5e66d18ec081f7de3d5517",
          "transactionIndex": "0x0",
          "logIndex": "0x1",
          "removed": false
        },
        {
          "address": "0x39a450990a9a778172201f1cfc0e205e5d0b15d4",
          "topics": [
            "0xf8e1a15aba9398e019f0b49df1a4fde98ee17ae345cb5f6b5e2c27f5033e8ce7"
          ],
          "data": "0x0000000000000000000000000000000000000000000000000000000000000003",
          "blockHash": "0x1af06482068bd90775d26574bef85709179584dd448e65261da155836e2f6df5",
          "blockNumber": "0x13d7214",
          "transactionHash": "0xe992ec365a2cf78f2d8add8d46c088b649843ca76d5e66d18ec081f7de3d5517",
          "transactionIndex": "0x0",
          "logIndex": "0x2",
          "removed": false
        },
        {
          "address": "0x39a450990a9a778172201f1cfc0e205e5d0b15d4",
          "topics": [
            "0x7bc684e6c46e8f9f9ece878eb1544e6e07b5dc4289148b08c888f525b27be3db",
            "0x0000000000000000000000000000000000000000000000000000000000000003",
            "0x0000000000000000000000000000000000000000000000000000000000000001",
            "0x0000000000000000000000002cac89abf06dbe5d3a059517053b7144074e1ce5"
          ],
          "data": "0x000000000000000000000000000000000000000000000000000000000000000100000000000000000000000000000000000000000000000000000000000249f00000000000000000000000000000000000000000000000000000000068890637",
          "blockHash": "0x1af06482068bd90775d26574bef85709179584dd448e65261da155836e2f6df5",
          "blockNumber": "0x13d7214",
          "transactionHash": "0xe992ec365a2cf78f2d8add8d46c088b649843ca76d5e66d18ec081f7de3d5517",
          "transactionIndex": "0x0",
          "logIndex": "0x3",
          "removed": false
        },
        {
          "address": "0x3bc275e3a18f1bf373375cd2abb90ae0a9c2a7bd",
          "topics": [
            "0xe57a70e7bd5ff15b67408de156d6b60b131f76a51ee875a24307fdd155643f24",
            "0x0000000000000000000000002cac89abf06dbe5d3a059517053b7144074e1ce5",
            "0x0000000000000000000000000000000000000000000000000000000000000001",
            "0x0000000000000000000000000000000000000000000000000000000000000001"
          ],
          "data": "0x000000000000000000000000000000000000000000000000000000000000000300000000000000000000000000000000000000000000000000000000000249f000000000000000000000000000000000000000000000000000000000000000c000000000000000000000000000000000000000000000000000000000688906370000000000000000000000000000000000000000000000000000000000000000000000000000000000000000000000000000000000000000000000000000000100000000000000000000000000000000000000000000000000000000000000035649500000000000000000000000000000000000000000000000000000000000",
          "blockHash": "0x1af06482068bd90775d26574bef85709179584dd448e65261da155836e2f6df5",
          "blockNumber": "0x13d7214",
          "transactionHash": "0xe992ec365a2cf78f2d8add8d46c088b649843ca76d5e66d18ec081f7de3d5517",
          "transactionIndex": "0x0",
          "logIndex": "0x4",
          "removed": false
        }
      ],
      "logsBloom": "0x00000040002000000000000000000000000000000000000000800000000000000000000000000000000000000000000000000000020000000000000000440000000000000000000000000008000000000300000002040000000000000400000000000080020000000000000000000800000000000000000000000010000000000000000000000000000000000000000000000000008000000404000010000000000800000000000000000000000000002000000000800040010000000000408000000002000000800002000000000020020000000000000000000000000060000000000000000000200000000000000000000000000000000000000000800000",
      "type": "0x2",
      "transactionHash": "0xe992ec365a2cf78f2d8add8d46c088b649843ca76d5e66d18ec081f7de3d5517",
      "transactionIndex": "0x0",
      "blockHash": "0x1af06482068bd90775d26574bef85709179584dd448e65261da155836e2f6df5",
      "blockNumber": "0x13d7214",
      "gasUsed": "0x167eff",
      "effectiveGasPrice": "0x3b9aca00",
      "from": "0x2cac89abf06dbe5d3a059517053b7144074e1ce5",
      "to": "0x3bc275e3a18f1bf373375cd2abb90ae0a9c2a7bd",
      "contractAddress": null
    },
    {
      "status": "0x1",
      "cumulativeGasUsed": "0x14227c",
      "logs": [
        {
          "address": "0x39a450990a9a778172201f1cfc0e205e5d0b15d4",
          "topics": [
            "0x8be613b4dc15de51545df38aaa743da56cbd4d107ee7a3c2764ddc43c2bca505",
            "0x0000000000000000000000000000000000000000000000000000000000000001",
            "0x0000000000000000000000000000000000000000000000000000000000000001",
            "0x0000000000000000000000003bc275e3a18f1bf373375cd2abb90ae0a9c2a7bd"
          ],
          "data": "0x0000000000000000000000000000000000000000000000000000000068890638",
          "blockHash": "0x7ec9e8387eebdf5e2b25b80d919967e5f1613a0b2fbdaa7eb04ac12942420a8f",
          "blockNumber": "0x13d7215",
          "transactionHash": "0x1c8134d38393aca037c3fda88e3be3a1d191100a8a12f09dbf179402514fb478",
          "transactionIndex": "0x0",
          "logIndex": "0x0",
          "removed": false
        },
        {
          "address": "0x82c2b08463706885c5e92a6317bf81b01e70a1c2",
          "topics": [
            "0xddf252ad1be2c89b69c2b068fc378daa952ba7f163c4a11628f55a4df523b3ef",
            "0x0000000000000000000000000000000000000000000000000000000000000000",
            "0x0000000000000000000000002cac89abf06dbe5d3a059517053b7144074e1ce5",
            "0x0000000000000000000000000000000000000000000000000000000000000001"
          ],
          "data": "0x",
          "blockHash": "0x7ec9e8387eebdf5e2b25b80d919967e5f1613a0b2fbdaa7eb04ac12942420a8f",
          "blockNumber": "0x13d7215",
          "transactionHash": "0x1c8134d38393aca037c3fda88e3be3a1d191100a8a12f09dbf179402514fb478",
          "transactionIndex": "0x0",
          "logIndex": "0x1",
          "removed": false
        },
        {
          "address": "0x82c2b08463706885c5e92a6317bf81b01e70a1c2",
          "topics": [
            "0xf8e1a15aba9398e019f0b49df1a4fde98ee17ae345cb5f6b5e2c27f5033e8ce7"
          ],
          "data": "0x0000000000000000000000000000000000000000000000000000000000000001",
          "blockHash": "0x7ec9e8387eebdf5e2b25b80d919967e5f1613a0b2fbdaa7eb04ac12942420a8f",
          "blockNumber": "0x13d7215",
          "transactionHash": "0x1c8134d38393aca037c3fda88e3be3a1d191100a8a12f09dbf179402514fb478",
          "transactionIndex": "0x0",
          "logIndex": "0x2",
          "removed": false
        },
        {
          "address": "0x82c2b08463706885c5e92a6317bf81b01e70a1c2",
          "topics": [
            "0x195a528771a60e4758f19cbdb765a122f5c4c1ee6c939f93b6e733b24e404cbc",
            "0x0000000000000000000000000000000000000000000000000000000000000001",
            "0x0000000000000000000000000000000000000000000000000000000000000001",
            "0x0000000000000000000000002cac89abf06dbe5d3a059517053b7144074e1ce5"
          ],
          "data": "0x0000000000000000000000000000000000000000000000000000000000000040000000000000000000000000000000000000000000000000000000006889063800000000000000000000000000000000000000000000000000000000000001d2646174613a6170706c69636174696f6e2f6a736f6e3b6261736536342c7b226e616d65223a22504f4150202d2045746865726c696e6b20446576656c6f7065722053756d6d69742032303234222c226465736372697074696f6e223a2250726f6f66206f6620417474656e64616e636520666f722045746865726c696e6b20446576656c6f7065722053756d6d69742032303234202d2047656e6572616c2041646d697373696f6e207469636b6574222c22696d616765223a2268747470733a2f2f697066732e696f2f697066732f516d504f4150496d616765222c2261747472696275746573223a5b7b2274726169745f74797065223a224576656e74222c2276616c7565223a2245746865726c696e6b20446576656c6f7065722053756d6d69742032303234227d2c7b2274726169745f74797065223a225469636b65742054797065222c2276616c7565223a2247656e6572616c2041646d697373696f6e227d2c7b2274726169745f74797065223a225469636b6574204944222c2276616c7565223a2231227d2c7b2274726169745f74797065223a224576656e74204c6f636174696f6e222c2276616c7565223a2245746865726c696e6b20496e6e6f766174696f6e2043656e746572227d5d7d0000000000000000000000000000",
          "blockHash": "0x7ec9e8387eebdf5e2b25b80d919967e5f1613a0b2fbdaa7eb04ac12942420a8f",
          "blockNumber": "0x13d7215",
          "transactionHash": "0x1c8134d38393aca037c3fda88e3be3a1d191100a8a12f09dbf179402514fb478",
          "transactionIndex": "0x0",
          "logIndex": "0x3",
          "removed": false
        },
        {
          "address": "0x3bc275e3a18f1bf373375cd2abb90ae0a9c2a7bd",
          "topics": [
            "0xe6c762b539c457743f94227289f320ccb6dc2241f3af7ef16d1d5e0ac6f664d6",
            "0x0000000000000000000000000000000000000000000000000000000000000001",
            "0x0000000000000000000000000000000000000000000000000000000000000001",
            "0x0000000000000000000000002cac89abf06dbe5d3a059517053b7144074e1ce5"
          ],
          "data": "0x0000000000000000000000000000000000000000000000000000000068890638000000000000000000000000000000000000000000000000000000000000006000000000000000000000000000000000000000000000000000000000000000a0000000000000000000000000000000000000000000000000000000000000001f45746865726c696e6b20446576656c6f7065722053756d6d6974203230323400000000000000000000000000000000000000000000000000000000000000001147656e6572616c2041646d697373696f6e000000000000000000000000000000",
          "blockHash": "0x7ec9e8387eebdf5e2b25b80d919967e5f1613a0b2fbdaa7eb04ac12942420a8f",
          "blockNumber": "0x13d7215",
          "transactionHash": "0x1c8134d38393aca037c3fda88e3be3a1d191100a8a12f09dbf179402514fb478",
          "transactionIndex": "0x0",
          "logIndex": "0x4",
          "removed": false
        }
      ],
      "logsBloom": "0x00000040002000000000000000000000000000000000000000800100000000001000000000000000000000000000000000000000000000000000000000440000000000000000000000000008000000000100000000040000000000000400008000002080020000000000000000200800000000000000000000000010000000000000000100000000000000000000000000000000008000000004000010000000000000000000000000001000000000002008000000000040000000000000008000000002000000000000040000000004000000000000000000000000000060000000000010000000200000000000000000000000000000000000000000800000",
      "type": "0x2",
      "transactionHash": "0x1c8134d38393aca037c3fda88e3be3a1d191100a8a12f09dbf179402514fb478",
      "transactionIndex": "0x0",
      "blockHash": "0x7ec9e8387eebdf5e2b25b80d919967e5f1613a0b2fbdaa7eb04ac12942420a8f",
      "blockNumber": "0x13d7215",
      "gasUsed": "0x14227c",
      "effectiveGasPrice": "0x3b9aca00",
      "from": "0x2cac89abf06dbe5d3a059517053b7144074e1ce5",
      "to": "0x3bc275e3a18f1bf373375cd2abb90ae0a9c2a7bd",
      "contractAddress": null
    },
    {
      "status": "0x1",
      "cumulativeGasUsed": "0x2f3190",
      "logs": [
        {
          "address": "0x39a450990a9a778172201f1cfc0e205e5d0b15d4",
          "topics": [
            "0x8be613b4dc15de51545df38aaa743da56cbd4d107ee7a3c2764ddc43c2bca505",
            "0x0000000000000000000000000000000000000000000000000000000000000002",
            "0x0000000000000000000000000000000000000000000000000000000000000001",
            "0x0000000000000000000000003bc275e3a18f1bf373375cd2abb90ae0a9c2a7bd"
          ],
          "data": "0x0000000000000000000000000000000000000000000000000000000068890639",
          "blockHash": "0xa61688da986b75ae356fd3ba84685b4af58c2f3f392f6aa3340602a89259704f",
          "blockNumber": "0x13d7216",
          "transactionHash": "0xfb8dfe191217102b9b0d14bc98a4d42ad97769860fd27bef814b39697f049ab7",
          "transactionIndex": "0x1",
          "logIndex": "0x0",
          "removed": false
        },
        {
          "address": "0x82c2b08463706885c5e92a6317bf81b01e70a1c2",
          "topics": [
            "0xddf252ad1be2c89b69c2b068fc378daa952ba7f163c4a11628f55a4df523b3ef",
            "0x0000000000000000000000000000000000000000000000000000000000000000",
            "0x0000000000000000000000002cac89abf06dbe5d3a059517053b7144074e1ce5",
            "0x0000000000000000000000000000000000000000000000000000000000000002"
          ],
          "data": "0x",
          "blockHash": "0xa61688da986b75ae356fd3ba84685b4af58c2f3f392f6aa3340602a89259704f",
          "blockNumber": "0x13d7216",
          "transactionHash": "0xfb8dfe191217102b9b0d14bc98a4d42ad97769860fd27bef814b39697f049ab7",
          "transactionIndex": "0x1",
          "logIndex": "0x1",
          "removed": false
        },
        {
          "address": "0x82c2b08463706885c5e92a6317bf81b01e70a1c2",
          "topics": [
            "0xf8e1a15aba9398e019f0b49df1a4fde98ee17ae345cb5f6b5e2c27f5033e8ce7"
          ],
          "data": "0x0000000000000000000000000000000000000000000000000000000000000002",
          "blockHash": "0xa61688da986b75ae356fd3ba84685b4af58c2f3f392f6aa3340602a89259704f",
          "blockNumber": "0x13d7216",
          "transactionHash": "0xfb8dfe191217102b9b0d14bc98a4d42ad97769860fd27bef814b39697f049ab7",
          "transactionIndex": "0x1",
          "logIndex": "0x2",
          "removed": false
        },
        {
          "address": "0x82c2b08463706885c5e92a6317bf81b01e70a1c2",
          "topics": [
            "0x195a528771a60e4758f19cbdb765a122f5c4c1ee6c939f93b6e733b24e404cbc",
            "0x0000000000000000000000000000000000000000000000000000000000000002",
            "0x0000000000000000000000000000000000000000000000000000000000000001",
            "0x0000000000000000000000002cac89abf06dbe5d3a059517053b7144074e1ce5"
          ],
          "data": "0x0000000000000000000000000000000000000000000000000000000000000040000000000000000000000000000000000000000000000000000000006889063900000000000000000000000000000000000000000000000000000000000001d2646174613a6170706c69636174696f6e2f6a736f6e3b6261736536342c7b226e616d65223a22504f4150202d2045746865726c696e6b20446576656c6f7065722053756d6d69742032303234222c226465736372697074696f6e223a2250726f6f66206f6620417474656e64616e636520666f722045746865726c696e6b20446576656c6f7065722053756d6d69742032303234202d2047656e6572616c2041646d697373696f6e207469636b6574222c22696d616765223a2268747470733a2f2f697066732e696f2f697066732f516d504f4150496d616765222c2261747472696275746573223a5b7b2274726169745f74797065223a224576656e74222c2276616c7565223a2245746865726c696e6b20446576656c6f7065722053756d6d69742032303234227d2c7b2274726169745f74797065223a225469636b65742054797065222c2276616c7565223a2247656e6572616c2041646d697373696f6e227d2c7b2274726169745f74797065223a225469636b6574204944222c2276616c7565223a2232227d2c7b2274726169745f74797065223a224576656e74204c6f636174696f6e222c2276616c7565223a2245746865726c696e6b20496e6e6f766174696f6e2043656e746572227d5d7d0000000000000000000000000000",
          "blockHash": "0xa61688da986b75ae356fd3ba84685b4af58c2f3f392f6aa3340602a89259704f",
          "blockNumber": "0x13d7216",
          "transactionHash": "0xfb8dfe191217102b9b0d14bc98a4d42ad97769860fd27bef814b39697f049ab7",
          "transactionIndex": "0x1",
          "logIndex": "0x3",
          "removed": false
        },
        {
          "address": "0x3bc275e3a18f1bf373375cd2abb90ae0a9c2a7bd",
          "topics": [
            "0xe6c762b539c457743f94227289f320ccb6dc2241f3af7ef16d1d5e0ac6f664d6",
            "0x0000000000000000000000000000000000000000000000000000000000000002",
            "0x0000000000000000000000000000000000000000000000000000000000000001",
            "0x0000000000000000000000002cac89abf06dbe5d3a059517053b7144074e1ce5"
          ],
          "data": "0x0000000000000000000000000000000000000000000000000000000068890639000000000000000000000000000000000000000000000000000000000000006000000000000000000000000000000000000000000000000000000000000000a0000000000000000000000000000000000000000000000000000000000000001f45746865726c696e6b20446576656c6f7065722053756d6d6974203230323400000000000000000000000000000000000000000000000000000000000000001147656e6572616c2041646d697373696f6e000000000000000000000000000000",
          "blockHash": "0xa61688da986b75ae356fd3ba84685b4af58c2f3f392f6aa3340602a89259704f",
          "blockNumber": "0x13d7216",
          "transactionHash": "0xfb8dfe191217102b9b0d14bc98a4d42ad97769860fd27bef814b39697f049ab7",
          "transactionIndex": "0x1",
          "logIndex": "0x4",
          "removed": false
        }
      ],
      "logsBloom": "0x04000040002000000000000000000000000000000000000000800100000000001000000000000000000000000000000000000000000000000000000000440000000000000000000000000008000000000100000000040000000000000400008000002080020000000000000000200800000000000000000000000010000000000000000100000000000000000000000000000000008000000004000010000000000000000000000000001100000000002008000000000040000000000000008000000002000000000000040000000004000000000000000000000000000060000000000010000000200000000000000000000000008000000000000000800000",
      "type": "0x2",
      "transactionHash": "0xfb8dfe191217102b9b0d14bc98a4d42ad97769860fd27bef814b39697f049ab7",
      "transactionIndex": "0x1",
      "blockHash": "0xa61688da986b75ae356fd3ba84685b4af58c2f3f392f6aa3340602a89259704f",
      "blockNumber": "0x13d7216",
      "gasUsed": "0x135a18",
      "effectiveGasPrice": "0x3b9aca00",
      "from": "0x2cac89abf06dbe5d3a059517053b7144074e1ce5",
      "to": "0x3bc275e3a18f1bf373375cd2abb90ae0a9c2a7bd",
      "contractAddress": null
    },
    {
      "status": "0x1",
      "cumulativeGasUsed": "0x130191",
      "logs": [
        {
          "address": "0x39a450990a9a778172201f1cfc0e205e5d0b15d4",
          "topics": [
            "0x8be613b4dc15de51545df38aaa743da56cbd4d107ee7a3c2764ddc43c2bca505",
            "0x0000000000000000000000000000000000000000000000000000000000000003",
            "0x0000000000000000000000000000000000000000000000000000000000000001",
            "0x0000000000000000000000003bc275e3a18f1bf373375cd2abb90ae0a9c2a7bd"
          ],
          "data": "0x000000000000000000000000000000000000000000000000000000006889063a",
          "blockHash": "0x2395c916c5edd7e4c35f3ac3abb4bd8febb1fe332d1f7c8671714ad7fcc4a6d0",
          "blockNumber": "0x13d7217",
          "transactionHash": "0xba038e76efc2e645a39f956795e0e8498d310b98ba4af4f698d9c212c90f5982",
          "transactionIndex": "0x0",
          "logIndex": "0x0",
          "removed": false
        },
        {
          "address": "0x82c2b08463706885c5e92a6317bf81b01e70a1c2",
          "topics": [
            "0xddf252ad1be2c89b69c2b068fc378daa952ba7f163c4a11628f55a4df523b3ef",
            "0x0000000000000000000000000000000000000000000000000000000000000000",
            "0x0000000000000000000000002cac89abf06dbe5d3a059517053b7144074e1ce5",
            "0x0000000000000000000000000000000000000000000000000000000000000003"
          ],
          "data": "0x",
          "blockHash": "0x2395c916c5edd7e4c35f3ac3abb4bd8febb1fe332d1f7c8671714ad7fcc4a6d0",
          "blockNumber": "0x13d7217",
          "transactionHash": "0xba038e76efc2e645a39f956795e0e8498d310b98ba4af4f698d9c212c90f5982",
          "transactionIndex": "0x0",
          "logIndex": "0x1",
          "removed": false
        },
        {
          "address": "0x82c2b08463706885c5e92a6317bf81b01e70a1c2",
          "topics": [
            "0xf8e1a15aba9398e019f0b49df1a4fde98ee17ae345cb5f6b5e2c27f5033e8ce7"
          ],
          "data": "0x0000000000000000000000000000000000000000000000000000000000000003",
          "blockHash": "0x2395c916c5edd7e4c35f3ac3abb4bd8febb1fe332d1f7c8671714ad7fcc4a6d0",
          "blockNumber": "0x13d7217",
          "transactionHash": "0xba038e76efc2e645a39f956795e0e8498d310b98ba4af4f698d9c212c90f5982",
          "transactionIndex": "0x0",
          "logIndex": "0x2",
          "removed": false
        },
        {
          "address": "0x82c2b08463706885c5e92a6317bf81b01e70a1c2",
          "topics": [
            "0x195a528771a60e4758f19cbdb765a122f5c4c1ee6c939f93b6e733b24e404cbc",
            "0x0000000000000000000000000000000000000000000000000000000000000003",
            "0x0000000000000000000000000000000000000000000000000000000000000001",
            "0x0000000000000000000000002cac89abf06dbe5d3a059517053b7144074e1ce5"
          ],
          "data": "0x0000000000000000000000000000000000000000000000000000000000000040000000000000000000000000000000000000000000000000000000006889063a00000000000000000000000000000000000000000000000000000000000001b6646174613a6170706c69636174696f6e2f6a736f6e3b6261736536342c7b226e616d65223a22504f4150202d2045746865726c696e6b20446576656c6f7065722053756d6d69742032303234222c226465736372697074696f6e223a2250726f6f66206f6620417474656e64616e636520666f722045746865726c696e6b20446576656c6f7065722053756d6d69742032303234202d20564950207469636b6574222c22696d616765223a2268747470733a2f2f697066732e696f2f697066732f516d504f4150496d616765222c2261747472696275746573223a5b7b2274726169745f74797065223a224576656e74222c2276616c7565223a2245746865726c696e6b20446576656c6f7065722053756d6d69742032303234227d2c7b2274726169745f74797065223a225469636b65742054797065222c2276616c7565223a22564950227d2c7b2274726169745f74797065223a225469636b6574204944222c2276616c7565223a2233227d2c7b2274726169745f74797065223a224576656e74204c6f636174696f6e222c2276616c7565223a2245746865726c696e6b20496e6e6f766174696f6e2043656e746572227d5d7d00000000000000000000",
          "blockHash": "0x2395c916c5edd7e4c35f3ac3abb4bd8febb1fe332d1f7c8671714ad7fcc4a6d0",
          "blockNumber": "0x13d7217",
          "transactionHash": "0xba038e76efc2e645a39f956795e0e8498d310b98ba4af4f698d9c212c90f5982",
          "transactionIndex": "0x0",
          "logIndex": "0x3",
          "removed": false
        },
        {
          "address": "0x3bc275e3a18f1bf373375cd2abb90ae0a9c2a7bd",
          "topics": [
            "0xe6c762b539c457743f94227289f320ccb6dc2241f3af7ef16d1d5e0ac6f664d6",
            "0x0000000000000000000000000000000000000000000000000000000000000003",
            "0x0000000000000000000000000000000000000000000000000000000000000001",
            "0x0000000000000000000000002cac89abf06dbe5d3a059517053b7144074e1ce5"
          ],
          "data": "0x000000000000000000000000000000000000000000000000000000006889063a000000000000000000000000000000000000000000000000000000000000006000000000000000000000000000000000000000000000000000000000000000a0000000000000000000000000000000000000000000000000000000000000001f45746865726c696e6b20446576656c6f7065722053756d6d697420323032340000000000000000000000000000000000000000000000000000000000000000035649500000000000000000000000000000000000000000000000000000000000",
          "blockHash": "0x2395c916c5edd7e4c35f3ac3abb4bd8febb1fe332d1f7c8671714ad7fcc4a6d0",
          "blockNumber": "0x13d7217",
          "transactionHash": "0xba038e76efc2e645a39f956795e0e8498d310b98ba4af4f698d9c212c90f5982",
          "transactionIndex": "0x0",
          "logIndex": "0x4",
          "removed": false
        }
      ],
      "logsBloom": "0x00000040002000000000000000000000000000000000000000800100000000001000000000000000000000000000000000000000020000000000000000440000000000000000000000000008000000000100000000040000000000000400008000002080020000000000000000200800000000000000000000000010000000000000000100000000000000000000000000000000008000000004000010000000000000000000000000001000000000002008000000800040000000000000408000000002000000000000040000000004000000000000000000000000000060000000000010000000200000000000000000000000000000000000000000800000",
      "type": "0x2",
      "transactionHash": "0xba038e76efc2e645a39f956795e0e8498d310b98ba4af4f698d9c212c90f5982",
      "transactionIndex": "0x0",
      "blockHash": "0x2395c916c5edd7e4c35f3ac3abb4bd8febb1fe332d1f7c8671714ad7fcc4a6d0",
      "blockNumber": "0x13d7217",
      "gasUsed": "0x130191",
      "effectiveGasPrice": "0x3b9aca00",
      "from": "0x2cac89abf06dbe5d3a059517053b7144074e1ce5",
      "to": "0x3bc275e3a18f1bf373375cd2abb90ae0a9c2a7bd",
      "contractAddress": null
    }
  ],
  "libraries": [],
  "pending": [],
  "returns": {},
  "timestamp": 1753810490,
  "chain": 128123,
  "commit": "84283d5"
}